S00C00004C4142322E7372656317
S113000099C00000AEC00000ACC00000AAC000004F
S1130010A8C00000A6C00000A4C00000A2C0000048
S1130020A0C000009EC000009CC000009AC0000058
S113003098C0000096C0000094C0000092C0000068
S113004090C000008EC000008CC000008AC0000078
S113005088C0000086C0000084C0000082C0000088
S113006080C000007EC000007CC000007AC0000098
S113007078C0000076C0000074C0000072C00000A8
S113008070C000006EC000006CC000006AC00000B8
S113009068C0000066C0000064C0000062C00000C8
S11300A060C000005EC000005CC000005AC00000D8
S11300B058C0000056C0000054C0000052C00000E8
S11300C050C000004EC000004CC000004AC00000F8
S11300D048C0000046C0000044C0000042C0000008
S11300E040C000003EC000003CC000003AC0000018
S11300F038C0000036C0000034C0000032C0000028
S113010030C000002EC000002CC000002AC0000037
S113011028C0000026C0000024C0000022C0000047
S113012020C000001EC000001CC000001AC0000057
S113013018C0000011241FBECFEFD1E8DEBFCDBF31
S113014000E00CBF12E0A0E0B2E0ECEFF1E000E070
S11301500BBF02C007900D92AA30B107D9F734D073
S11301604BC04ECF9093CD008093CC0088E1809318
S1130170C900EAECF0E080818B7F80830895909140
S1130180C80095FFFCCF8093CE0008958091C800ED
S11301908823E4F78091CE0008959091C80095FFDC
S11301A0FCCF8093CE000895CF93DF93EC0102C07F
S11301B0F4DF219688818111FBCFDF91CF910895DF
S11301C08CE090E0CFCF0895FBDF80910202E5DF61
S11301D080910202E2DF80910202DFDF809102025D
S11301E0DCDF80910202D9DF80910002909101024C
S10F01F0DBDFCCDFC4DFFDCFF894FFCFD1
S10D01FC03024148656C6C6F0000BB
S9030000FC
