S00C00004C4142332E7372656316
S1130000A4C00000C1C00000BFC00000BDC000000B
S1130010BBC0000095C20000B7C00000B5C000001E
S1130020B3C00000B1C00000AFC00000ADC000000C
S1130030ABC00000F1C20000A7C00000FFC2000076
S1130040A3C00000D7C200009FC000009DC00000F4
S11300509BC0000099C0000097C0000095C000003C
S113006093C0000091C000008FC000008DC000004C
S11300708BC0000089C0000087C0000085C000005C
S113008083C0000081C000007FC000007DC000006C
S113009082C2000079C0000077C0000075C0000073
S11300A073C0000071C000006FC000006DC000008C
S11300B06BC0000069C0000067C0000065C000009C
S11300C063C0000061C000005FC000005DC00000AC
S11300D05BC0000059C0000057C0000055C00000BC
S11300E053C0000051C000004FC000004DC00000CC
S11300F04BC0000049C0000047C0000045C00000DC
S113010043C0000041C000003FC000003DC00000EB
S11301103BC0000039C0000037C0000035C00000FB
S113012033C0000031C000002FC000002DC000000B
S11301302BC000005E029002770290029002170228
S11301401D0224022B024302570211241FBECFEFCB
S1130150D1E8DEBFCDBF00E00CBF13E0A0E0B2E009
S1130160E4EBFDE000E00BBF02C007900D92A23665
S1130170B107D9F723E0A2E6B3E001C01D92AB3684
S1130180B207E1F72BD114C63BCFF89480E096E98F
S11301907AD2E9ECF0E080818068808381E092E0AB
S11301A0909368038093670384B1806184B985B1B7
S11301B0806185B984B1806284B985B1806285B972
S11301C08DB18F7E8DB98EB180618EB98DB3806112
S11301D08DBBEAE6F0E0808182608083808181606B
S11301E0808378940895CF93DF938BE161D28FE07D
S11301F092E06CD28BE15CD283E192E067D2CDE1F4
S1130200D2E0DF93CF93E4D285E492E09F938F937F
S1130210DFD28EE492E09F938F93DAD28AE592E064
S11302209F938F93D5D28EE692E09F938F93D0D2F3
S113023081E892E09F938F93CBD287E992E09F93DA
S11302408F93C6D28CEA92E09F938F93C1D28EEBA8
S113025092E09F938F93BCD2DF93CF93B9D28BE17B
S113026027D28FED92E032D28DB79EB744960FB667
S1130270F8949EBF0FBE8DBFDF91CF91089580E7A4
S113028084B985B92FEF34E39CE02150304090408D
S1130290E1F700C0000015B82FEF34E39CE02150D3
S11302A030409040E1F700C0000085B92FEF34E3FF
S11302B09CE0215030409040E1F700C0000015B8A8
S11302C02FEF34E39CE0215030409040E1F700C030
S11302D0000085B92FEF34E39CE02150304090407A
S11302E0E1F700C0000015B82FEF34E39CE0215083
S11302F030409040E1F700C0000085B92FEF34E3AF
S11303008CE0215030408040E1F700C0000015B877
S11303109FEF24E33CE0915020403040E1F700C0DF
S1130320000014B815B8089510928000109281004E
S11303301092820085B1806185B985B1806285B9EA
S113034085B1806485B98EB188608EB90895F894BA
S1130350A0E8B0E01C92E1E8F0E010821092820084
S113036010926F0090938900809388008081886048
S113037080838081846080838081816080838C918C
S113038080648C9378940895CF93DF93F894C0EBB2
S1130390D0E01882E1EBF0E0108220E730E0D901F0
S11303A01C92BFEF8B9FC001112464E670E0A3D1BF
S11303B06093B300808182608083808181608083C8
S11303C0808187608083F901808181608083888156
S11303D0806888837894DF91CF91089550DFD5DECB
S11303E02FEF80E792E0215080409040E1F700C079
S11303F00000F9DE2FEF80E792E02150804090402A
S1130400E1F700C0000080916203813009F08EC0E2
S1130410E09164038E2F90E0FC01BB97EB30F10573
S113042008F07EC08827E656FF4F8F4F93C17CDFCC
S113043089EE92E0E0D1D7DE77C085B18F7D85B9B2
S11304408DED92E0D8D170C08DED92E0D4D185B11C
S1130450806285B969C08DED92E0CDD180910002B2
S11304601F928F938FEF92E09F938F93B1D18CED76
S113047092E09F938F93ACD10F900F900F900F90B9
S11304800F900F9051C08DED92E0B5D1C1E4D0E052
S113049003C08C2F0DD12196CA35D105D4F38CED30
S11304A092E09F938F9394D10F900F903DC08DED68
S11304B092E0A1D180EA97E04ADF36C08DED92E068
S11304C09AD180910002843661F41F928F938EE05A
S11304D093E09F938F937CD10F900F900F900F9088
S11304E023C091E0980F909300024EDF1DC08DED64
S11304F092E081D18091000281110CC01F928F93F0
S11305008DE293E09F938F9363D10F900F900F90A0
S11305100F900AC09FEF980F9093000235DF04C03C
S11305208CE493E068D15FDE109262032FEF80E7E2
S113053092E0215080409040E1F700C0000063CF7A
S11305401F920F920FB60F9211242F938F939F93A4
S11305508DB38F7E8DBB2FEF81EE94E021508040D0
S11305609040E1F700C00000809163038F5F8093A7
S1130570630395B180E1892785B98CB380618CBB15
S11305808DB380618DBB9F918F912F910F900FBE82
S11305900F901F9018951F920F920FB60F9211246F
S11305A00BB60F922F933F934F935F936F937F9369
S11305B08F939F93AF93BF93EF93FF9380D08093D8
S11305C064038091640374D081E080936203FF919B
S11305D0EF91BF91AF919F918F917F916F915F91B7
S11305E04F913F912F910F900BBE0F900FBE0F9024
S11305F01F9018951F920F920FB60F9211248F938C
S11306009F9395B180E2892785B99F918F910F902F
S11306100FBE0F901F9018951F920F920FB60F9256
S113062011248F939F9395B180E1892785B99F9178
S11306308F910F900FBE0F901F9018951F920F92DD
S11306400FB60F9211242F935F936F937F938F9321
S11306509F93AF93BF93809100022FEF829FC001BD
S1130660112464E670E047D06093B300BF91AF916A
S11306709F918F917F916F915F912F910F900FBEFA
S11306800F901F9018959C0140E050E060E271EAE1
S113069087E090E043D02150310986E08093CA007E
S11306A03093CD002093CC0088E18093C900089555
S11306B09091C80095FFFCCF8093CE00089580915F
S11306C0C8008823E4F78091CE000895CF93DF9388
S11306D0EC0102C0EDDF219688818111FBCFDF910F
S11306E0CF9108959091C80095FFFCCF8093CE00E0
S11306F080E090E0089597FB072E16F4009406D04E
S113070077FD08D02FD007FC05D03EF49095819555
S11307109F4F0895709561957F4F0895052E97FB1F
S113072016F400940FD057FD05D030D007FC02D04A
S113073046F408C050954095309521953F4F4F4F52
S11307405F4F089590958095709561957F4F8F4F79
S11307509F4F0895EE0FFF1F881F8BBF0790F691E0
S1130760E02D1994AA1BBB1B51E107C0AA1FBB1F94
S1130770A617B70710F0A61BB70B881F991F5A9529
S1130780A9F780959095BC01CD010895A1E21A2E98
S1130790AA1BBB1BFD010DC0AA1FBB1FEE1FFF1F21
S11307A0A217B307E407F50720F0A21BB30BE40B71
S11307B0F50B661F771F881F991F1A9469F76095B8
S11307C07095809590959B01AC01BD01CF01089572
S11307D0CF93DF93CDB7DEB7AE014A5F5F4FFA0127
S11307E061917191AF01809167039091680333D057
S11307F0DF91CF9108950F931F93CF93DF93E091EF
S11308006703F0916803238121FF1BC08C01D0E0B2
S1130810C0E0F80181918F016091670370916803D2
S1130820DB011896ED91FC911997882331F0199505
S1130830892B79F3DFEFCFEFECCF8AE01995892B81
S113084019F08FEF9FEF02C08D2F9C2FDF91CF9176
S11308501F910F9108952F923F924F925F926F9242
S11308607F928F929F92AF92BF92CF92DF92EF923C
S1130870FF920F931F93CF93DF93CDB7DEB72B97E0
S11308800FB6F894DEBF0FBECDBF6C017B018A01A9
S1130890FC0117821682838181FFBFC1CE010196BC
S11308A03C01F6019381F70193FD859193FF8191BA
S11308B07F01882309F4ADC1853239F493FD859114
S11308C093FF81917F01853221F4B60190E0D6D166
S11308D0E8CF912C212C312CFFE1F315D8F08B3289
S11308E079F038F4803279F08332A1F4232D206139
S11308F01DC08D3261F0803369F4232D216016C050
S1130900832D8260382EE32DE4603E2E2AC0F32D21
S1130910F8601DC037FC2DC020ED280F2A3040F0B0
S11309208E32B9F436FC75C1232D2064322E19C0E1
S113093036FE06C08AE0989E200D1124922E11C026
S1130940EAE02E9E200D1124222EF32DF0623F2E7C
S113095008C08C3621F4832D8068382E02C0883676
S113096041F4F70193FD859193FF81917F018111FA
S1130970B3CF982F9F7D9554933028F40C5F1F4F6D
S11309809FE399830DC0833631F0833771F083354B
S113099009F055C020C0F801808189830E5F1F4F84
S11309A088248394912C530112C02801F2E04F0E45
S11309B0511CF801A080B18036FE03C0692D70E09F
S11309C002C06FEF7FEFC5014ED14C018201F32DC0
S11309D0FF773F2E15C0280122E0420E511CF8017A
S11309E0A080B18036FE03C0692D70E002C06FEFB5
S11309F07FEFC5012DD14C01F32DF0683F2E82010C
S1130A0033FC19C0822D90E088169906A0F4B60133
S1130A1080E290E033D12A94F5CFF50137FC85913B
S1130A2037FE81915F01B60190E028D121102A940C
S1130A3021E0821A91088114910479F7E1C0843687
S1130A4011F0893639F5F80137FE07C060817181EC
S1130A50828193810C5F1F4F08C060817181072ED2
S1130A60000C880B990B0E5F1F4FF32DFF763F2E62
S1130A7097FF09C090958095709561957F4F8F4F32
S1130A809F4FF0683F2E2AE030E0A30133D1882E37
S1130A90861844C0853731F4232D2F7EB22E2AE0E8
S1130AA030E025C0932D997FB92E8F36C1F018F40C
S1130AB0883579F0AEC0803719F0883721F0A9C0A5
S1130AC0E92FE061BE2EB4FE0DC0FB2DF460BF2EF5
S1130AD009C034FE0AC0292F2660B22E06C028E0C1
S1130AE030E005C020E130E002C020E132E0F8014E
S1130AF0B7FE07C060817181828193810C5F1F4FB3
S1130B0006C06081718180E090E00E5F1F4FA301F9
S1130B10F1D0882E8618FB2DFF773F2E36FE0DC0B0
S1130B20232D2E7FA22E891458F434FE0BC032FCE0
S1130B3009C0832D8E7EA82E05C0B82CA32C03C01B
S1130B40B82C01C0B92CA4FE0FC0FE01E80DF11DA4
S1130B508081803321F49A2D997EA92E09C0A2FEAA
S1130B6006C0B394B39404C08A2D867809F0B39474
S1130B70A3FC10C0A0FE06C0B21480F4280C922C72
S1130B809B180DC0B21458F4B60180E290E076D000
S1130B90B394F8CFB21418F42B1802C0982C212C5B
S1130BA0A4FE0FC0B60180E390E068D0A2FE16C098
S1130BB0A1FC03C088E790E002C088E590E0B6019C
S1130BC00CC08A2D867851F0A1FE02C08BE201C0D0
S1130BD080E2A7FC8DE2B60190E050D0891430F495
S1130BE0B60180E390E04AD09A94F8CF8A94F30156
S1130BF0E80DF11D8081B60190E040D08110F6CF60
S1130C00222009F44ECEB60180E290E037D02A9437
S1130C10F7CFF6018681978102C08FEF9FEF2B9665
S1130C200FB6F894DEBF0FBECDBFDF91CF911F91F9
S1130C300F91FF90EF90DF90CF90BF90AF909F9077
S1130C408F907F906F905F904F903F902F9008957A
S1130C50FC010590615070400110D8F78095909583
S1130C608E0F9F1F0895FC01615070400190011088
S1130C70D8F7809590958E0F9F1F08950F931F931B
S1130C80CF93DF93FB01238121FD03C08FEF9FEFFF
S1130C902CC022FF16C0468157812481358142171A
S1130CA0530744F4A081B1819D012F5F3F4F3183ED
S1130CB020838C93268137812F5F3F4F3783268390
S1130CC014C08B01EC01FB010084F185E02D199522
S1130CD0892BE1F6D80116968D919C911797019670
S1130CE017969C938E931697CE01DF91CF911F9107
S1130CF00F910895FA01AA27283051F1203181F18A
S1130D00E8946F936E7F6E5F7F4F8F4F9F4FAF4F0F
S1130D10B1E03ED0B4E03CD0670F781F891F9A1F22
S1130D20A11D680F791F8A1F911DA11D6A0F711DD6
S1130D30811D911DA11D20D009F468943F912AE0E2
S1130D40269F11243019305D3193DEF6CF010895CA
S1130D50462F4770405D4193B3E00FD0C9F7F6CFFB
S1130D60462F4F70405D4A3318F0495D31FD4052C3
S1130D70419302D0A9F7EACFB4E0A6959795879559
S1130D8077956795BA95C9F7009761057105089538
S1130D909B01AC010A2E06945795479537952795E4
S1130DA0BA95C9F7620F731F841F951FA01D08957C
S1070DB0F894FFCFE1
S1130DB43200000003000000007203000000005B26
S1130DC4324A005B303B33323B34306D002D2D2DE1
S1130DD42D2D2D2D2D2D2D2D2D2D2D2D2D2D2D2D3B
S1130DE42D2D2D2D2D2D2D2D2D2D2D2D2D2D2D2D2B
S1130DF42D2D0A0D004D454E553A200A0D00302084
S1130E042D204B6F6E65630A0D0031202D20526F27
S1130E147A73766974204C454431200A0D003220DB
S1130E242D205A6861736E69204C454431200A0DA3
S1130E340033202D20567970697320696E74657AA5
S1130E44697475200A0D0034202D20567970697355
S1130E542061626563656475200A0D0035202D20C8
S1130E64426C696B656A2032487A200A0D00272B8C
S1130E74272F272D27202D205A6D656E6120696E3A
S1130E8474657A697479204C454430200A0D005BFA
S1130E94303B33373B34306D000D0A4B6F6E63695E
S1130EA46D2070726F6772616D2E2E2E200D00738B
S1130EB47472696461206573743A202564006E65F4
S1130EC46C7A652C20646F73617A656E61206D6140
S1130ED478207374726964613A202564006E656CC9
S1130EE47A652C20646F73617A656E61206D696E16
S1130EF4207374726964613A202564000D0A4E6596
S1130F047A6E616D79207072696B617A2E2E200D70
S1050F140000D7
S9030000FC
