S01400004D5154545F676174657761792E7372656379
S1130000C1C10000EFC10000EDC10000EBC1000060
S1130010E9C10000E7C10000E5C10000E3C1000040
S1130020E1C10000DFC10000DDC10000DBC1000050
S1130030D9C100000C946129D5C10000D3C10000CE
S1130040D1C10000CFC10000CDC10000CBC1000070
S1130050C9C100000C943526C5C10000C3C100000D
S1130060C1C10000BFC10000BDC10000BBC1000090
S1130070B9C10000B7C10000B5C10000B3C10000A0
S1130080B1C10000AFC10000ADC10000ABC10000B0
S11300900C943A2A0C941E2AA5C10000A3C10000A6
S11300A0A1C100009FC100000C9450299BC1000015
S11300B099C1000097C1000095C1000093C10000E0
S11300C091C100008FC100008DC100008BC10000F0
S11300D089C1000087C1000085C1000083C1000000
S11300E081C100007FC100007DC100007BC1000010
S11300F079C1000077C1000075C1000073C1000020
S113010071C100006FC100006DC100006BC100002F
S113011069C1000067C1000065C1000063C100003F
S113012061C100005FC100005DC100005BC100004F
S113013059C10000C50FD80F2A102A10D80F091072
S1130140D80FD80FD80F2A102A10D80FE80F2A106A
S1130150F80F6364696E6F70737578585B0025736C
S113016000557074696D653A20256C75207365635C
S11301703B20467265652052414D3A202564206239
S1130180797465730D0A002D2D4D51545420436F1D
S11301906E6E6563746564204552524F523A202551
S11301A06C640D0A0053756273637269626564203E
S11301B0282573292025640D0A002B2B4D515454F6
S11301C020436F6E6E6563746564205355434345E5
S11301D053533A20256C640D0A003E3E54727969EB
S11301E06E6720636F6E6E65637420746F204D516B
S11301F054542062726F6B65723A2025642E256414
S11302002E25642E2564202E2E0D0A003E205472C5
S1130210616E736C6174656420257320746F205B58
S113022025642E25642E25642E25645D0D0A0D0A91
S1130230003E20444E53204661696C65640D0A00FB
S11302403E204D41585F444F4D41494E5F4E414D14
S11302504520697320746F6F20736D616C6C2E2060
S113026053686F756C6420626520726564656669A5
S11302706E65642069742E0D0A003E20326E64207F
S1130280444E5320526573706F6E640D0A003E2015
S113029031737420444E5320526573706F6E640D35
S11302A00A003E2054617267657420446F6D616971
S11302B06E204E616D65203A2025730D0A00436F50
S11302C06E6E656374696F6E2077697468204D5132
S11302D054542042726F6B657220776173206C6F87
S11302E0737421210D0A5265626F6F7420746865FE
S11302F020626F6172642E2E0D0A00202D2045525B
S1130300524F520D0A00202D204F4B0D0A003E3E45
S11303104D51545420707562206D736720256C759F
S113032020000D0A486F646E6F74612070726F6DE7
S1130330656E6E65206D7174745F74696D6572208D
S11303406A653A2025640D0A000D0A486F646E6FD1
S113035074612070726F6D656E6E65206D7174745A
S11303605F74696D6572206A653A2025640D0A0020
S11303703C3C4D515454205375623A205B25735DC7
S11303802025730011241FBECFEFD1E8DEBFCDBFFF
S113039000E00CBF84B78093D12514BE0FB6F89447
S11303A0A89580916000886180936000109260003D
S11303B00FBE14E0A0E0B2E0E2EDF8E700E00BBF0E
S11303C002C007900D92A236B107D9F725E2A2E642
S11303D0B4E001C01D92A13DB207E1F70E94D0260E
S11303E00C94673C0DCEBF92CF92DF92EF92FF92B6
S11303F00F931F93CF93DF93893008F059C0B82E21
S1130400082F10E0E801CC0FDD1FCC0FDD1F219673
S1130410CC0FDD1FCC0FDD1FCC0FDD1F6E01D3947D
S11304200D2C000CEE08FF0840E1C701B601D4D73B
S1130430C701B6016AD78111FBCFBE017E5F072ECB
S1130440000C880B990B4FE1C7D781E090E002C004
S1130450880F991FBA94E2F78095909520917C04B7
S113046030917D042823392330937D0420937C0428
S113047020917A0430917B048223932390937B040C
S113048080937A04F801EE0FFF1FE659FB4F1182A7
S11304901082F801EE59FB4F1082BE017D5F072EDA
S11304A0000C880B990B31D78111F7CF81E001C083
S11304B08FEFDF91CF911F910F91FF90EF90DF901D
S11304C0CF90BF9008954F925F926F927F92AF92B8
S11304D0BF92CF92DF92EF92FF920F931F93CF932D
S11304E0DF9300D01F92CDB7DEB7F82E562E3A0117
S11304F0E22E28E0281708F4C5C081E0681739F017
S1130500681708F4C1C024E02617A8F4BDC024E08D
S113051030E0AE014F5F5F4F60E07FE080E090E04D
S1130520CDD789819A81AB81BC81892B8A2B8B2B76
S113053011F48DEFB2C0E2FCA9C0EE20A9F081E075
S1130540581621F022E0521629F00EC08E2D817229
S113055059F49EC0E5FE03C0EE200CF09BC0E4FEFF
S113056003C0EE200CF098C08F2D3DDFCF2CD12C92
S11305708601000F111F000F111F0F5F1F4F000F87
S1130580111F000F111F000F111F4E2D407F452911
S1130590B801012E000C880B990B1ED7611471044D
S11305A091F46090040270900502C3010196909347
S11305B0050280930402409631F480E090EC90931D
S11305C0050280930402B8017C5F072E000C880B9F
S11305D0990B472D01D7B8017B5F072E000C880BC0
S11305E0990B462DF9D628015394052C000C660866
S11305F0770841E0C301B201EFD6C301B20185D649
S11306008111FBCF81E090E00F2C02C0880F991F6D
S11306100A94E2F78095909520917C0430917D04B2
S113062028233923E0FAAA24A0F8B12C0F2C02C005
S1130630AA0CBB1C0A94E2F7A22AB32AB0927D0446
S1130640A0927C0420917A0430917B04822393232A
S113065090937B0480937A04F601EE0FFF1FE65912
S1130660FB4F11821082F601EE59FB4F1082B80144
S11306707D5F072E000C880B990B47D68823B9F3AE
S11306808F2D0BC08FEF09C08BEF07C08AEF05C019
S11306908AEF03C08AEF01C08AEF0F900F900F908A
S11306A00F90DF91CF911F910F91FF90EF90DF900A
S11306B0CF90BF90AF907F906F905F904F900895D0
S11306C08F929F92AF92BF92CF92DF92EF92FF925E
S11306D01F93CF93DF93893008F0ACC06A017B018C
S11306E0182FC82FD0E0CC0FDD1FCC0FDD1F2196B3
S11306F0CC0FDD1FCC0FDD1FCC0FDD1FBE010D2E77
S1130700000C880B990B01D68F70813009F094C0CE
S11307104E018DEF981A092C000CAA08BB08C501DC
S1130720B401F3D5833109F089C0F701408150E069
S113073060E070E0762F652F542F44278181480FA5
S1130740511D611D711D762F652F542F4427828101
S1130750480F511D611D711D762F652F542F44279D
S11307608381480F511D611D711D4150510961095B
S113077071094E3F5F4F6F4F7F4F08F061C0C11446
S1130780D10409F45FC0BE01745F072E000C880B0E
S1130790990B24E030E0A70113D7BE01705F072E48
S11307A0000C880B990B4D2D17D6BE017F5E072ECA
S11307B0000C880B990B4C2D0FD66E01D3940D2C85
S11307C0000CEE08FF0844E0C701B60105D6C701D6
S11307D0B6019BD58111FBCF81E090E002C0880F68
S11307E0991F1A95E2F720917C0430917D048223AD
S11307F09323892BC1F028C06E01EEEFDE1A0D2C75
S1130800000CEE08FF08C701B6017FD583FF06C0C0
S113081048E0C701B601E0D583EF19C0C501B401B2
S113082074D5882399F0C501B4016FD5873121F7B8
S113083081E00DC08FEF0BC08BEF09C08DEF07C0B7
S113084084EF05C085EF03C080E001C08CEFDF9129
S1130850CF911F91FF90EF90DF90CF90BF90AF901A
S11308609F908F900895CF92DF92EF92FF921F9303
S1130870CF93DF93893008F05DC0182FC82FD0E0E4
S1130880CC0FDD1FCC0FDD1F2196CC0FDD1FCC0F4D
S1130890DD1FCC0FDD1FBE010D2E000C880B990B44
S11308A034D58F70813009F047C06E01D3940D2C7C
S11308B0000CEE08FF0848E0C701B6018DD5C7015A
S11308C0B60123D58111FBCF81E090E0012E02C057
S11308D0880F991F0A94E2F79C0120953095409166
S11308E07A0450917B042423352330937B04209392
S11308F07A0420917C0430917D0482239323892BF4
S113090071F01CC0BE017E5F072E000C880B990B92
S1130910FCD483FF04C0812F66DD83EF10C0BE01C9
S11309207D5F072E000C880B990BEFD48111EACF61
S113093081E005C08FEF03C08BEF01C080E0DF9141
S1130940CF911F91FF90EF90DF90CF9008952F9259
S11309503F924F925F926F927F928F929F92AF924B
S1130960BF92CF92DF92EF92FF920F931F93CF9398
S1130970DF9300D000D0CDB7DEB7893008F0C7C010
S11309805E834D831B01F82EC82ED12CCC0CDD1CAC
S1130990CC0CDD1C2FEFC21AD20ACC0CDD1CCC0C03
S11309A0DD1CCC0CDD1CB6010D2C000C880B990B46
S11309B0ACD48F70813009F0AEC04D815E81452B7F
S11309C009F4AEC026015DEF551A052C000C66082B
S11309D07708C301B20199D4873119F08C3109F039
S11309E0A4C081E090E04C010F2C02C0880C991C3B
S11309F00A94E2F7540180917A0490917B0488214F
S1130A009921892B61F1C6019E5F9C01990F440BCA
S1130A10550B29833A834B835C83CA01B90175D48E
S1130A2084FF14C040E169817A818B819C81D4D494
S1130A3020917A0430917B04C4018095909582239F
S1130A40932390937B0480937A0409C083FF72C03C
S1130A508F2DC9DC63EF7FEF8FEF9FEF72C0B6017C
S1130A60715E072E000C880B990B4FD4082F10E0F1
S1130A70102F0027110F110F4D815E8104171507E8
S1130A8008F08A018F2D23D69A838983C301B2018A
S1130A903CD4873149F08C3139F08F2DA4DC69EFD7
S1130AA07FEF8FEF9FEF4DC080917C0490917D0488
S1130AB08A219B21892B31F089819A8180179107A2
S1130AC008F43CC029813A8120173107D8F2A801E3
S1130AD0B1018F2DACD6D3940D2C000CEE08FF0879
S1130AE040E2C701B60178D4C701B6010ED4811122
S1130AF0FBCF80917A0490917B04882A992A909262
S1130B007B0480927A04B80180E090E01AC06FEF11
S1130B107FEFCB0116C06BEF7FEF8FEF9FEF11C01C
S1130B2062EF7FEF8FEF9FEF0CC069EF7FEF8FEFE6
S1130B309FEF07C060E070E0CB0103C060E070E0AD
S1130B40CB0126960FB6F894DEBF0FBECDBFDF9162
S1130B50CF911F910F91FF90EF90DF90CF90BF90B6
S1130B60AF909F908F907F906F905F904F903F9049
S1130B702F9008957F928F929F92AF92BF92CF92BF
S1130B80DF92EF92FF920F931F93CF93DF938930FD
S1130B9008F090C0EA014B01782EC82ED12C8601B2
S1130BA0000F111F000F111F0F5F1F4F000F111FA8
S1130BB0000F111F000F111FB801012E000C880B2C
S1130BC0990BA3D38F70813009F078C0209709F472
S1130BD07AC0B801725E072E000C880B990B95D36E
S1130BE0A82EB12CBA2CAA24BB0CBB0CAC16BD0687
S1130BF008F05E01872DC3D5EC01B8017D5F072E97
S1130C00000C880B990B81D3873121F18C31D9F4F5
S1130C102097A9F5872D5BD57C01B801715E072E5D
S1130C20000C880B990B71D390E0982F8827990FAB
S1130C30990FE816F90671F4872DD5DB69EF7FEF7C
S1130C408FEF9FEF48C0872DCEDB69EF7FEF8FEFEB
S1130C509FEF41C081E090E00C2C02C0880F991FE7
S1130C600A94E2F720917C0430917D04822393233B
S1130C70892B11F0209761F1209709F4BBCFCA1595
S1130C80DB0508F0E501AE01B401872D57D66801F4
S1130C90D3940D2C000CEE08FF0840E4C701B60104
S1130CA09BD3C701B60131D38111FBCFBE0180E0D4
S1130CB090E011C06FEF7FEFCB010DC06BEF7FEFC2
S1130CC08FEF9FEF08C062EF7FEF8FEF9FEF03C0BE
S1130CD060E070E0CB01DF91CF911F910F91FF9005
S1130CE0EF90DF90CF90BF90AF909F908F907F90C8
S1130CF008952F923F925F926F927F928F929F926C
S1130D00AF92BF92CF92DF92EF92FF920F931F9315
S1130D10CF93DF93893008F0E3C0E9013A011B0166
S1130D20582EC82ED12C7601EE0CFF1CEE0CFF1CA5
S1130D308FEFE81AF80AEE0CFF1CEE0CFF1CEE0C09
S1130D40FF1C47010F2C000CAA08BB08C501B40105
S1130D50DCD28F708250833008F0C6C061147104F5
S1130D6009F4C7C0888190E0A0E0B0E0BA2FA92FB1
S1130D70982F88272981820F911DA11DB11DBA2F9B
S1130D80A92F982F88272A81820F911DA11DB11D9B
S1130D90BA2FA92F982F88272B81820F911DA11D6F
S1130DA0B11D892B8A2B8B2B29F4C501B401ADD23B
S1130DB082FFA4C00115110529F4C501B401A5D20F
S1130DC082FFA1C047018DEF981A092C000CAA08D4
S1130DD0BB08C501B40199D2823429F0823219F0DA
S1130DE0823309F095C0B701745F072E000C880B9D
S1130DF0990B24E030E0AE01E3D3B701705F072E16
S1130E00000C880B990B412FE7D2B7017F5E072EA8
S1130E10000C880B990B402FDFD2B701715E072EAF
S1130E20000C880B990B71D2082F10E0102F0027AB
S1130E30110F110F0615170508F08301852D47D4EE
S1130E40EC01C501B40161D2882309F466C081E0D4
S1130E5090E00C2C02C0880F991F0A94E2F72091AD
S1130E607C0430917D0482239323892B21F0C017C5
S1130E70D10708F457C0C017D10700F3A801B10186
S1130E80852DD5D447019394092C000CAA08BB08DE
S1130E9040E2C501B401A0D2C501B40136D281112A
S1130EA0FBCF47018EEF981A092C000CAA08BB0847
S1130EB0C501B4012AD284FF08C040E1C501B401D0
S1130EC08BD2B80180E090E030C083FFEACF48E0E5
S1130ED0C501B40181D263EF7FEF8FEF9FEF25C08F
S1130EE06FEF7FEFCB0121C06BEF7FEF8FEF9FEFB1
S1130EF01CC062EF7FEF8FEF9FEF17C064EF7FEFAF
S1130F008FEF9FEF12C065EF7FEF8FEF9FEF0DC064
S1130F1069EF7FEF8FEF9FEF08C06CEF7FEF8FEFEC
S1130F209FEF03C060E070E0CB01DF91CF911F9190
S1130F300F91FF90EF90DF90CF90BF90AF909F9074
S1130F408F907F906F905F903F902F9008952F9295
S1130F503F924F925F926F927F928F929F92AF9245
S1130F60BF92CF92DF92EF92FF920F931F93CF9392
S1130F70DF93CDB7DEB72C970FB6F894DEBF0FBE64
S1130F80CDBF893008F092C1280139015A014B01C3
S1130F90382EC82ED12C8601000F111F000F111FEF
S1130FA00F5F1F4F000F111F000F111F000F111FA4
S1130FB0B801012E000C880B990BA7D1282E8F7035
S1130FC08250833008F076C1A114B10409F477C1CA
S1130FD0F601EE0FFF1FE659FB4F80819181892BAB
S1130FE029F5832DCCD37C01B8017D5F072E000C3D
S1130FF0880B990B8AD1882309F466C181E090E0BB
S11310000C2C02C0880F991F0A94E2F720917C04EB
S113101030917D0482239323892B21F0E114F10480
S113102009F457C1E114F104E1F202C0E12CF12CFE
S1131030822D8770833009F4B1C0843009F461C013
S1131040823009F0FEC0F601EE0FFF1FE659FB4F98
S113105080819181892B09F044C048E050E0BE01B1
S11310606F5F7F4F832D6AD4C80193959C01990FBC
S1131070440B550B29873A874B875C8740E4698585
S11310807A858B859C85A8D169857A858B859C8595
S11310903CD18111F9CF8981F30180838A818183D5
S11310A08B8182838C8183838D8190E0982F882724
S11310B02E81820F911DF201918380838F8190E0B4
S11310C0F601EE0FFF1FE659FB4F982F882728855E
S11310D0820F911D9183808380E8F601EE59FB4FC6
S11310E08083F601EE0FFF1FE659FB4FE080F1808D
S11310F0AE14BF0408F47501A701B401832D1ED4F6
S1131100AAC0F601EE0FFF1FE659FB4F80819181C3
S1131110892BA1F542E050E0BE016F5F7F4F832D24
S11311200DD428015394052C000C6608770840E47C
S1131130C301B20151D1C301B201E7D08111FBCF88
S1131140898190E0F601EE0FFF1FE659FB4F982FBF
S113115088272A81820F911D0297918380838B3E79
S1131160954038F0832D3FD967E17CEF8FEF9FEFF7
S1131170B3C080E8F601EE59FB4F8083F601EE0F11
S1131180FF1FE659FB4FE080F180AE14BF0408F462
S11311907501A701B401832DD1D35DC0F601EE0F13
S11311A0FF1FE659FB4F80819181892BD1F546E0E1
S11311B050E0BE016F5F7F4F832DC0D3C80193956C
S11311C09C01990F440B550B29873A874B875C8701
S11311D040E469857A858B859C85FED069857A850E
S11311E08B859C8592D08111F9CF8981F30180830D
S11311F08A8181838B8182838C8183838D8190E03A
S1131200F601EE0FFF1FE659FB4F982F88272E811A
S1131210820F911D9183808380E8F601EE59FB4F84
S11312208083F601EE0FFF1FE659FB4FE080F1804B
S1131230AE14BF0408F47501A701B401832D7ED355
S11312400AC0B701832D01D4F601EE0FFF1FE65942
S1131250FB4FF182E08248019394092C000CAA0808
S1131260BB0840E4C501B401B7D0C501B4014DD0F9
S11312708111FBCFF601EE0FFF1FE659FB4F808172
S113128091818E199F0991838083892B39F0F6010E
S1131290EE59FB4F80818160808304C0F601EE59D2
S11312A0FB4F1082B70180E090E016C06FEF7FEF34
S11312B0CB0112C06BEF7FEF8FEF9FEF0DC062EF9A
S11312C07FEF8FEF9FEF08C06CEF7FEF8FEF9FEF03
S11312D003C060E070E0CB012C960FB6F894DEBF3B
S11312E00FBECDBFDF91CF911F910F91FF90EF9073
S11312F0DF90CF90BF90AF909F908F907F906F9032
S11313005F904F903F902F900895DF92EF92FF925D
S11313100F931F93CF93DF9300D0CDB7DEB7F62E94
S1131320E72ED82E06E012E0D8011896ED91FC9134
S113133019971995D8011C96ED91FC911D97199553
S1131340F80184899589892B31F0E0911C02F09190
S11313501D023097C1F406E012E0D8015296ED91D7
S1131360FC9153978D2D1995D8015296ED91FC91CE
S113137053978E2D1995D8015296ED91FC91539760
S11313808F2D199508C0D982EA82FB8263E070E050
S1131390CE010196199506E012E0D8015096ED9120
S11313A0FC9151971995F82ED8011E96ED91FC9158
S11313B01F971995D8011A96ED91FC911B971995D1
S11313C08F2D0F900F900F90DF91CF911F910F9160
S11313D0FF90EF90DF9008954F925F926F927F920B
S11313E0BF92CF92DF92EF92FF920F931F93CF930E
S11313F0DF9300D01F92CDB7DEB76B017C01B42E12
S113140006E012E0D8011896ED91FC911997199510
S1131410D8011C96ED91FC911D9719952601370171
S1131420689442F8D8015696ED91FC9157973097FD
S1131430E1F45296ED91FC9153978E2D1995D801B4
S11314405296ED91FC9153978D2D1995D801529692
S1131450ED91FC915397842D1995D8015296ED91F5
S1131460FC9153978B2D199509C0E982DA824B823E
S1131470BC8264E070E0CE010196199506E012E0AA
S1131480D8011E96ED91FC911F971995D8011A96D3
S1131490ED91FC911B9719950F900F900F900F9061
S11314A0DF91CF911F910F91FF90EF90DF90CF903C
S11314B0BF907F906F905F904F9008959F92AF92EE
S11314C0BF92CF92DF92EF92FF920F931F93CF932D
S11314D0DF9300D0CDB7DEB7F62EE72E982E5A0153
S11314E0690106E012E0D8011896ED91FC91199774
S11314F01995D8011C96ED91FC911D971995F80149
S113150084899589892B31F0E0911C02F0911D02A8
S1131510309751F506E012E0D8015296ED91FC9116
S11315205397892D1995D8015296ED91FC915397B3
S11315308E2D1995D8015296ED91FC9153978F2DCC
S1131540199500E010E00CC07501E00EF11EE09169
S11315501602F09117021995F70180830F5F1F4F50
S11315600C151D0588F30FC09982EA82FB8263E0A3
S113157070E0CE0101961995E0911A02F0911B02D8
S1131580B601C501199506E012E0D8011E96ED9149
S1131590FC911F971995D8011A96ED91FC911B9710
S11315A019950F900F900F90DF91CF911F910F918C
S11315B0FF90EF90DF90CF90BF90AF909F900895F1
S11315C04F925F926F927F928F929F92AF92BF924F
S11315D0CF92DF92EF92FF920F931F93CF93DF93FB
S11315E000D0CDB7DEB76B017C014A01590106E09A
S11315F012E0D8011896ED91FC9119971995D8012C
S11316001C96ED91FC911D9719952601370168945C
S113161042F8D8015696ED91FC915797309731F5E1
S11316205296ED91FC9153978E2D1995D8015296AF
S1131630ED91FC9153978D2D1995D8015296ED910A
S1131640FC915397842D199500E010E00BC0E091B4
S11316501802F0911902D401A00FB11F8C911995B1
S11316600F5F1F4F0A151B0590F30FC0E982DA8242
S11316704B8263E070E0CE0101961995E0911C0263
S1131680F0911D02B501C401199506E012E0D801DC
S11316901E96ED91FC911F971995D8011A96ED911C
S11316A0FC911B9719950F900F900F90DF91CF919C
S11316B01F910F91FF90EF90DF90CF90BF90AF906C
S11316C09F908F907F906F905F904F9008957F923E
S11316D08F929F92AF92BF92CF92DF92EF92FF923E
S11316E00F931F93CF93DF93782E00E010E0C72C65
S11316F0D12CCC0CDD1CCC0CDD1C8FEFC81AD80A05
S1131700CC0CDD1CCC0CDD1CCC0CDD1C460180EEAD
S1131710981A092C000CAA08BB08C501B401F5DD10
S1131720C82FD0E0DC2FCC278FEDD81A0D2C000C5D
S1131730EE08FF08C701B601E8DDC80FD11D2097E8
S113174061F0C501B401E1DD082F10E0102F00277E
S1131750C701B601DADD080F111D0C171D0739F694
S1131760C801DF91CF911F910F91FF90EF90DF900F
S1131770CF90BF90AF909F908F907F9008957F926D
S11317808F929F92AF92BF92CF92DF92EF92FF928D
S11317900F931F93CF93DF93782E00E010E0C72CB4
S11317A0D12CCC0CDD1CCC0CDD1C8FEFC81AD80A54
S11317B0CC0CDD1CCC0CDD1CCC0CDD1C46018AEDF4
S11317C0981A092C000CAA08BB08C501B4019DDDB8
S11317D0C82FD0E0DC2FCC2789EDD81A0D2C000CB3
S11317E0EE08FF08C701B60190DDC80FD11D209790
S11317F061F0C501B40189DD082F10E0102F002726
S1131800C701B60182DD080F111D0C171D0739F63B
S1131810C801DF91CF911F910F91FF90EF90DF905E
S1131820CF90BF90AF909F908F907F9008952F920C
S11318303F924F925F926F927F928F929F92AF925C
S1131840BF92CF92DF92EF92FF920F931F93CF93A9
S1131850DF9300D01F92CDB7DEB74115510509F4CF
S113186056C03A017A836983282E312C220C331C0A
S1131870220C331C61012FEFC21AD20ACC0CDD1CDE
S1131880CC0CDD1CCC0CDD1C46013CED931A092C60
S1131890000CAA08BB08C501B40137DD082F10E00D
S11318A0102F00278BEDD81A0D2C000CEE08FF0822
S11318B0C701B6012ADD080F111DC801A0E0B0E080
S11318C04427582F692F7A2FC10102961C01220C3C
S11318D0331C220C331C220C331CC101330CAA0B05
S11318E0BB0B1A012B01280E391E4A1E5B1EC201B6
S11318F0B101930149815A8163DE060D171D412F01
S1131900C501B40169DD402FC701B60165DD0F9043
S11319100F900F900F90DF91CF911F910F91FF9037
S1131920EF90DF90CF90BF90AF909F908F907F907B
S11319306F905F904F903F902F9008952F923F9219
S11319404F925F926F927F928F929F92AF92BF92CB
S1131950CF92DF92EF92FF920F931F93CF93DF9377
S113196000D01F92CDB7DEB74115510509F456C01A
S11319703A017A836983282E312C220C331C220CE1
S1131980331C61012FEFC21AD20ACC0CDD1CCC0C23
S1131990DD1CCC0CDD1C460138ED931A092C000C1F
S11319A0AA08BB08C501B401B0DC082F10E0102F51
S11319B0002787EDD81A0D2C000CEE08FF08C7018C
S11319C0B601A3DC080F111DC801A0E0B0E0442754
S11319D0582F692F7A2FC10103961C01220C331C46
S11319E0220C331C220C331CC101330CAA0BBB0B7D
S11319F01A012B01280E391E4A1E5B1EC201B101B9
S1131A00930149815A815ADD060D171D412FC501E5
S1131A10B401E2DC402FC701B601DEDC0F900F9069
S1131A200F900F90DF91CF911F910F91FF90EF9046
S1131A30DF90CF90BF90AF909F908F907F906F90EA
S1131A405F904F903F902F9008958F929F92AF9206
S1131A50BF92CF92DF92EF92FF920F931F93CF9397
S1131A60DF93EB01C82ED12CCC0CDD1CCC0CDD1C7F
S1131A708FEFC81AD80ACC0CDD1CCC0CDD1CCC0CA6
S1131A80DD1C460188ED981A092C000CAA08BB0835
S1131A90C501B4013ADC082F10E0102F002787EDB0
S1131AA0D81A0D2C000CEE08FF08C701B6012DDC76
S1131AB0080F111DC00FD11F4D2FC501B4018CDCBF
S1131AC04C2FC701B60188DCDF91CF911F910F9194
S1131AD0FF90EF90DF90CF90BF90AF909F908F904A
S1131AE008950895089508950895FB018081089547
S1131AF0FB014083089580E00895089508950895B2
S1131B00009719F06115710559F4E6E0F2E083E7F6
S1131B109DE09587848784E79DE09787868708956D
S1131B20E6E0F2E0958784877787668708952091B9
S1131B3006023091070231FFFACF009719F06115C0
S1131B40710559F4E6E0F2E08BE79DE0918B808B20
S1131B508DE79DE0938B828B0895E6E0F2E0918B14
S1131B60808B738B628B089520910602309107025B
S1131B7031FFFACF009719F06115710559F4E6E0C9
S1131B80F2E08EE79DE0958B848B8FE79DE0978B49
S1131B90868B0895E6E0F2E0958B848B778B668BD9
S1131BA00895CF93DF93CDB7DEB762970FB6F8945D
S1131BB0DEBF0FBECDBF26E030E0AE01435F5F4F16
S1131BC060E079E080E090E079DC24E030E0AE0190
S1131BD04F5F5F4F60E071E080E090E06FDC24E0F5
S1131BE030E0AE014B5F5F4F60E075E080E090E075
S1131BF065DC24E030E0AE01475F5F4F60E07FE0EA
S1131C0080E090E05BDC40E860E070E0CB01E4DB86
S1131C1060E070E0CB0179DB26E030E0AE01435FA9
S1131C205F4F60E079E080E090E0CADC24E030E0DF
S1131C30AE014F5F5F4F60E071E080E090E0C0DC98
S1131C4024E030E0AE014B5F5F4F60E075E080E080
S1131C5090E0B6DC24E030E0AE01475F5F4F60E027
S1131C607FE080E090E0ACDC62960FB6F894DEBFD3
S1131C700FBECDBFDF91CF910895FF920F931F93B5
S1131C80CF93DF93EC018B018CDF209769F430C094
S1131C90FE01E80FF11D87FDFA952081920F913125
S1131CA00CF05BC08F5F02C090E080E0883084F36A
S1131CB0F12C1BC06F2D0F2C000C770BFE01E60FCF
S1131CC0F71F660F771F660F771F6F5F7F4F660FD3
S1131CD0771F660F771F660F771F715E072E000C44
S1131CE0880B990B408178DBF39487E08F1514F708
S1131CF00115110569F480E033C0F801E80FF11D06
S1131D0087FDFA952081920F91314CF58F5F02C0C7
S1131D1090E080E088308CF3C0E01BC06C2F0C2E68
S1131D20000C770BF801E60FF71F660F771F660F9D
S1131D30771F6F5F7F4F660F771F660F771F660FE2
S1131D40771F725E072E000C880B990B408144DBD1
S1131D50CF5FC8301CF380E003C08FEF01C08FEF6A
S1131D60DF91CF911F910F91FF900895CF93DF934F
S1131D70EC0126E030E0AC0160E079E080E090E046
S1131D801FDCAE01425F5F4F24E030E060E071E0B1
S1131D9080E090E015DCAE01465F5F4F24E030E068
S1131DA060E075E080E090E00BDCAE014A5F5F4FDD
S1131DB024E030E060E07FE080E090E001DC8A89AC
S1131DC0EFE7F4E080838B8981838C8982838D891A
S1131DD083838E8980937E04DF91CF91089520E0E0
S1131DE0FC0130818181A901480F511DCA01089568
S1131DF0FC017083618302960895CF92DF92EF9283
S1131E00FF920F931F93CF93DF938C01DB01EA01C1
S1131E10E12CF12CC12CD12C60E070E0AD014F5FBE
S1131E205F4F8C91E82FF0E0C114D10411F46F5F7F
S1131E307F4F982F907C903CC9F4CD2811F46F5FAC
S1131E407F4F8F73482F50E0542F442711968C9165
S1131E50480F511DF801E40FF51F4F5F5F4F400F0E
S1131E60511FE081F0E0CC24C394D12C3097E9F0E9
S1131E702E1B3F0B215031090AF1C114D10411F476
S1131E806E0F7F1FDA0105C09C919883FA011196A9
S1131E902196AF0141505109EF2BB1F78EE28883AF
S1131EA08FEFE81AF80A2196B9CFEF2819F48EE2D9
S1131EB0888321961882862F972F02C08FEF9FEF79
S1131EC0DF91CF911F910F91FF90EF90DF90CF9012
S1131ED008950F931F93CF93DF93CDB7DEB7689721
S1131EE00FB6F894DEBF0FBECDBF8B0128E130E002
S1131EF0AE014F5F5F4F81DF8F3F2FEF920721F0DD
S1131F00800F911F049602C080E090E068960FB69F
S1131F10F894DEBF0FBECDBFDF91CF911F910F911B
S1131F200895AF92BF92CF92DF92EF92FF920F93F8
S1131F301F93CF93DF93CDB7DEB768970FB6F894AE
S1131F40DEBF0FBECDBF7C018B016A0128E130E00A
S1131F50AE014F5F5F4F51DF8F3F2FEF920709F4C0
S1131F6076C0080F191FC8013ADF5801EAE0AE0E27
S1131F70B11C01978F30910508F06CC0FC018827D3
S1131F80E656FF4F8F4F0C942435F8018285F601F5
S1131F908083F8018385F6018183F8018485F60145
S1131FA08283F8018585F6018383C8010E965FC09C
S1131FB028E130E0AE014F5F5F4FB501C7011DDF7F
S1131FC08F3FFFEF9F0709F447C08A0D9B1D4FC049
S1131FD0C8010B96F801228530E0FC01E20FF31FE3
S1131FE040812F5F3F4F240F311D820F931F3FC04D
S1131FF0045F1F4F28E130E0AE014F5F5F4FB8012F
S1132000C701FBDE8F3FFFEF9F0749F1800F911F50
S11320102EC028E130E0AE014F5F5F4FB501C7012C
S1132020ECDE8F3F2FEF9207E9F0A80EB91E28E1EE
S113203030E0AE014F5F5F4FB501C701DEDE8F3F79
S1132040EFEF9E0791F08A0D9B1D449610C080E02F
S113205090E00DC0C5010BC080E090E008C080E0B6
S113206090E005C080E090E002C080E090E06896D7
S11320700FB6F894DEBF0FBECDBFDF91CF911F9195
S11320800F91FF90EF90DF90CF90BF90AF900895A5
S1132090CF92DF92EF92FF920F931F93CF93DF9330
S11320A0EC017B016A0181E1FE0111928A95E9F755
S11320B0CB0195DE99838883C701029690DE99232C
S11320C014F421E02A83292F2695269526952F702E
S11320D02B8392FF02C021E02C8391FF02C021E0F8
S11320E02D8390FF02C021E02E8387FF02C021E0F0
S11320F02F838F708887C701049671DE9A8789873A
S1132100C70106966CDE9C878B87C701089667DE3D
S11321109E878D87C7010A9662DE988B8F87C701D9
S11321200C9600E010E007C0BC01C701D2DE0097A6
S113213071F10F5F1F4F29853A8502171307A0F32A
S113214000E010E008C0A601BC01C701EADE009768
S113215001F10F5F1F4F2B853C850217130798F37E
S113216080E090E001C001962D853E85821793079B
S1132170D0F380E090E001C001962F853889821762
S11321809307D0F38885811106C081E005C08FEFE5
S113219003C08FEF01C080E0DF91CF911F910F91B9
S11321A0FF90EF90DF90CF9008954F925F926F92DF
S11321B07F928F929F92AF92BF92CF92DF92EF92D3
S11321C0FF920F931F93CF93DF93CDB7DEB768973A
S11321D00FB6F894DEBF0FBECDBFF82E8B012A01D7
S11321E06091961D7091971D6F5F7F4F7093971D3F
S11321F06093961DCA01FCDD60E070E07F2D770FCF
S1132200770F770F7160F4DD61E070E0F1DD60E07D
S113221070E0EEDD60E070E0EBDD60E070E0E8DDF2
S11322205C01B8018E010F5F1F4FC8010E94AE35DB
S1132230F80101900020E9F731973F01601A710A13
S113224078016EE270E0C7010E94A3356C0100972B
S113225021F08C010E191F0901C0830145018FEF84
S1132260881A980AF501008301151105D9F0A8010F
S1132270B701C4010E94C3355401A00EB11ECD287C
S113228039F44501FFEF8F1A9F0AF50110820AC045
S1132290C8010196E80EF91E601A710AF1E06F1A7E
S11322A07108CFCF61E070E0C401A2DD61E070E0AD
S11322B09FDD8419950968960FB6F894DEBF0FBEAA
S11322C0CDBFDF91CF911F910F91FF90EF90DF90E1
S11322D0CF90BF90AF909F908F907F906F905F90C2
S11322E04F9008958091901D9091911DA091921D01
S11322F0B091931D0397A105B105A8F01092901D0C
S11323001092911D1092921D1092931D809183043E
S1132310823020F0109283048FEF08958F5F8093B2
S1132320830480E0089581E0089580938F1D709365
S1132330951D6093941D82E291E19093971D809383
S1132340961D0895AF92BF92CF92DF92EF92FF92C3
S11323500F931F93CF93DF93CDB7DEB767970FB675
S1132360F894DEBF0FBECDBF6C017B015A01109201
S113237083041092901D1092911D1092921D109240
S1132380931D20E040E050E062E080918F1D0E94A8
S113239063024091941D5091951D20E031E0B701F6
S11323A080E090E002DF6091941D7091951D05E33B
S11323B010E09601AC0180918F1D0E9479068091F6
S11323C08F1DDDD97C01892B29F181E0E816F806FF
S11323D018F0E12CFF24F3946091941D7091951DE5
S11323E08E010A5E1F4F9E012E5E3F4FA701809112
S11323F08F1D0E94A7076091941D7091951DA501E2
S1132400CE01019645DEF82E80918F1D0E94F301C6
S11324108F2D13C067DF88237CF08111D0CF6091AA
S1132420941D7091951D05E310E09601A70180911C
S11324308F1D0E947906C3CF80E067960FB6F8948B
S1132440DEBF0FBECDBFDF91CF911F910F91FF90E3
S1132450EF90DF90CF90BF90AF900895FC0173830D
S11324606283518340830895FC0180819181A2811C
S1132470B3818F3F2FEF9207A105B10539F0BC015D
S1132480CD016F5F7F4F8F4F9F4F04C061E070E0BD
S113249080E090E0608371838283938308952F9218
S11324A03F924F925F926F927F928F929F92AF92E0
S11324B0BF92CF92DF92EF92FF920F931F93CF932D
S11324C0DF93EC012A013B011901812C912C540169
S11324D01AC0EFA5F8A9C680D780C1010E9429239C
S11324E07B018C018C859D85BC01680D791DA30140
S11324F092018FA598A9F6011995992374F0860E77
S1132500971EA81EB91E84149504A604B7042CF4BF
S1132510C1010E94C8228823E1F284149504A60410
S1132520B70461F4488959896A897B89CE01C196C7
S11325300E94FE2260E070E0CB0103C06FEF7FEFEA
S1132540CB01DF91CF911F910F91FF90EF90DF901E
S1132550CF90BF90AF909F908F907F906F905F903F
S11325604F903F902F9008954F925F926F927F9279
S1132570AF92BF92CF92DF92EF92FF920F931F938D
S1132580DC01D0967C936E939F97412C512C3201A1
S11325900EC0F201EE0FFF1FEE0FFF1FEA0FFB1F2D
S11325A0128E118E8FEF481A580A680A780A85E04D
S11325B0481651046104710464F314962D933D93F9
S11325C04D935C9317971D961C930E931C97199625
S11325D0FC92EE9218971F96DC92CE921E971B9651
S11325E0BC92AE921A9755961D921D921D921C9202
S11325F0589754961C9254979E961C921E929D979F
S1132600CD01C1960E9444231F910F91FF90EF903A
S1132610DF90CF90BF90AF907F906F905F904F907E
S113262008952F923F924F925F926F927F928F9272
S11326309F92AF92BF92CF92DF92EF92FF920F934D
S11326401F93CF93DF9300D01F921F92CDB7DEB7B5
S11326501C016B012A833B834C835D83DB011D9248
S11326601D921D921C921397412C512C3201812CE6
S1132670912C54018394BFEF4B1A5B0A6B0A7B0ABB
S1132680E5E04E165104610471040CF051C0D1010F
S11326909F968D919C91D097DC011496ED91FC91BD
S11326A01597EA80FB800C811D8121E030E040E039
S11326B050E0BE016F5F7F4F199561307105810550
S11326C09105B1F5F980AF2DAF77B0E0A501940184
S11326D00E942C35F6010081118122813381DC01B5
S11326E0CB01800F911FA21FB31F80839183A2830C
S11326F0B383880C991CAA1CBB1C880C991CAA1CAB
S1132700BB1C880C991CAA1CBB1C880C991CAA1CF9
S1132710BB1C880C991CAA1CBB1C880C991CAA1CE9
S1132720BB1C880C991CAA1CBB1CFF200CF4A3CF57
S1132730C301B2010F900F900F900F900F90DF9193
S1132740CF911F910F91FF90EF90DF90CF90BF90AA
S1132750AF909F908F907F906F905F904F903F903D
S11327602F9008954F925F926F927F928F929F92D3
S1132770AF92BF92CF92DF92EF92FF920F931F938B
S1132780CF93DF9300D01F92CDB7DEB76C015B010E
S113279019821A821B821C82DC019F96ED91FC91A6
S11327A0D09784809580CB010E9429237B018C01E2
S11327B0F6016685778521E030E040E050E087A5AA
S11327C090A9F4011995613071058105910509F00D
S11327D055C0C5010E9429239B01AC01BE016F5F56
S11327E07F4FC6011EDFD6011E968D919C911F97C7
S11327F049815A816B817C8101960E94061D2B01BF
S11328003C01BFEF4B1A5B0A6B0A7B0A49815A8170
S11328106B817C8114161506160617061CF5D60165
S11328209F96ED91FC91D09784809580C5010E947C
S113283029237B018C01F6018685978529813A81BC
S11328404B815C81BC01640D751D87A590A9F401C1
S1132850199509811A812B813C81601771078207C0
S1132860930781F4D6011E96ED91FC911F97608128
S113287062956F7070E080E090E007C06FEF7FEFCB
S1132880CB0103C06FEF7FEFCB010F900F900F9040
S11328900F90DF91CF911F910F91FF90EF90DF90F8
S11328A0CF90BF90AF909F908F907F906F905F90EC
S11328B04F900895CF93DF93EC01DB011696ED91D1
S11328C0FC91179712964D915D916D917C9115979E
S11328D04E0F5F1F20C080818F3211F49F3209F5A3
S11328E09B3221F0933211F098131BC09B3269F490
S11328F0DF01119603C03196DF011196A417B507C5
S113290040F49C919F32B9F704C0933211F4FA0158
S11329103197219631969881992319F0E417F50798
S1132920D0F2E417F50721F4992321F080E003C0E5
S113293080E001C081E0DF91CF9108954F925F92D2
S11329406F927F928F929F92AF92BF92CF92DF92BB
S1132950EF92FF920F931F93CF93DF9300D01F92B8
S1132960CDB7DEB78C017B016A01412C512C3201B9
S113297088248A94982C540145C0F201EE0FFF1F5D
S1132980EE0FFF1FE00FF11F618D728D6115710550
S1132990A1F1C7010E94541F672B682B692B69F4AE
S11329A0F201EE0FFF1FEE0FFF1FE00FF11FB70143
S11329B0818D928D7FDF882301F1F201EE0FFF1FDD
S11329C0EE0FFF1FE00FF11F838D948D892BA9F06B
S11329D0A601B701CE01019641DDF201EE0FFF1F02
S11329E0EE0FFF1FE00FF11F038CF48DE02DCE01DD
S11329F001961995812C912C54018FEF481A580A8D
S1132A00680A780AA5E04A165104610471040CF4BA
S1132A10B4CFBFEF8B169B06AB06BB06A9F4F80137
S1132A2085A596A5892B81F0A601B701CE01019653
S1132A3015DDD8019D96ED91FC919E97CE010196EE
S1132A401995812C912C5401C501B4010F900F905C
S1132A500F900F90DF91CF911F910F91FF90EF9006
S1132A60DF90CF90BF90AF909F908F907F906F90AA
S1132A705F904F9008950F931F93CF93DF93CDB73B
S1132A80DEB728970FB6F894DEBF0FBECDBFFC01AA
S1132A904089518962897389452B462B472BB9F1AB
S1132AA08C01C1960E94C8228823A9F1F801848967
S1132AB0811135C0CE0101960E94442348EE53E0B3
S1132AC060E070E0CE0101960E94E522F8014085A5
S1132AD0518560E070E0848595858CD616161706BE
S1132AE01806190684F49E012F5F3F4FAB01BC0109
S1132AF0C801D5DC611571058105910599F421E0C2
S1132B00F801248B0FC06FEF7FEFCB010BC060E0A7
S1132B1070E0CB0107C06FEF7FEFCB0103C06FEF15
S1132B207FEFCB0128960FB6F894DEBF0FBECDBF62
S1132B30DF91CF911F910F9108952F923F924F9261
S1132B405F926F927F928F929F92AF92BF92CF9239
S1132B50DF92EF92FF920F931F93CF93DF93CDB742
S1132B60DEB762970FB6F894DEBF0FBECDBF4C013F
S1132B701B01F8DD2B013C016530710509F47FC0B0
S1132B806D30710509F4C3C06330710509F0C5C027
S1132B90F40182859385A684B7841F921F929F9324
S1132BA08F93CE0108966C01FE0136967F018E014B
S1132BB0065F1F4F9E012C5F3F4FAE014E5F5F4F7C
S1132BC0BE016F5F7F4F059718D60F900F900F903F
S1132BD00F90613071058105910509F048C0AE017F
S1132BE04F5F5F4FB801C401A9DE8981882309F4CE
S1132BF042C0813081F4EC80FD80F4014085518530
S1132C0060E070E000E024E0848595850E946820FF
S1132C10AB01BC0115C0823081F4EC80FD80F4016D
S1132C204085518560E070E000E025E0848595856D
S1132C300E946820AB01BC0103C040E050E0BA012F
S1132C40141615061606170634F49101C40127DC80
S1132C506B017C0104C0CC24CA94DC2C7601FFEF08
S1132C60CF16DF06EF06FF0609F05AC05BC0C12C81
S1132C70D12C760157C0C12CD12C760151C0F4015E
S1132C80E284F38400E010E026853785AE014F5FCF
S1132C905F4FBE016E5E7F4FCE010A964BD6613008
S1132CA0710581059105F1F4E980FA80F40140850C
S1132CB0518560E070E000E026E0848595850E94FF
S1132CC0682016161706180619068CF49101AB0134
S1132CD0BC01C401E4DB6B017C01672B682B692B0D
S1132CE059F40EC0CC24CA94DC2C760109C0CC243F
S1132CF0CA94DC2C760104C0CC24CA94DC2C760162
S1132D00FFEFCF16DF06EF06FF0651F40BC0F40108
S1132D10148AC12CD12C760103C0C12CD12C76018C
S1132D20C401A9DEC114D104E104F10421F4730146
S1132D306201EE24FF24C701B60162960FB6F8942F
S1132D40DEBF0FBECDBFDF91CF911F910F91FF90DA
S1132D50EF90DF90CF90BF90AF909F908F907F9037
S1132D606F905F904F903F902F900895CF92DF9295
S1132D70EF92FF920F931F93CF93DF93CDB7DEB7FC
S1132D8028970FB6F894DEBF0FBECDBF8C016A0141
S1132D907B01CE0101960E944423B701A601CE0116
S1132DA001960E94E5220AC0BE016F5F7F4FC801F1
S1132DB0C4DE6F3F7F4F8F4F9F4F51F0CE0101967E
S1132DC00E94C822882381F360E070E0CB0103C035
S1132DD06FEF7FEFCB0128960FB6F894DEBF0FBEDE
S1132DE0CDBFDF91CF911F910F91FF90EF90DF90B6
S1132DF0CF9008958F929F92AF92BF92CF92DF921D
S1132E00EF92FF920F931F93CF93DF938C014A01AC
S1132E105B01E901CC24CA94DC2C7601CE010E942A
S1132E20C82281110AC0BE01C80187DE6B017C0182
S1132E30681579058A059B0589F7C701B601DF91F5
S1132E40CF911F910F91FF90EF90DF90CF90BF90A3
S1132E50AF909F908F900895EF92FF920F931F93DE
S1132E60CF93DF93CDB7DEB7C554D1090FB6F8942D
S1132E70DEBF0FBECDBF7C018B018BE3E8E8F2E03F
S1132E80DE01199601900D928A95E1F7CE01019623
S1132E900E944423F7014481558166817781CE01E4
S1132EA001960E94E522F70185899689A789B08D4C
S1132EB0892B8A2B8B2B09F063C00115110519F49A
S1132EC08E01075F1F4FF8014785508960E070E06D
S1132ED0F701408B518B628B738BC701C1960E94A3
S1132EE0FE22F7014085518560E070E098018485F9
S1132EF0958519D3AB01BC011416150616061706E1
S1132F000CF042C09E012F5F3F4FC701C8DA611524
S1132F1071058105910509F03EC09E012F5F3F4F69
S1132F2042E050E060E070E0C70164DF62307105A8
S1132F308105910569F58FEF26968FAF2697259623
S1132F401FAE2597F7010285138520E030E0468502
S1132F505785BE016B5B7F4FCE018C5B9F4FD1D3F6
S1132F60613071058105910539F426966FAD269778
S1132F7070E080E090E00FC06FEF7FEFCB010BC0FB
S1132F806FEF7FEFCB0107C06FEF7FEFCB0103C083
S1132F906FEF7FEFCB01611571058105910549F450
S1132FA001E010E020E030E0F701058B168B278B61
S1132FB0308FCB5BDF4F0FB6F894DEBF0FBECDBFB3
S1132FC0DF91CF911F910F91FF90EF9008952F9271
S1132FD03F924F925F926F927F928F929F92AF92A5
S1132FE0BF92CF92DF92EF92FF920F931F93CF93F2
S1132FF0DF93CDB7DEB76F970FB6F894DEBF0FBE81
S1133000CDBF3C017D8F6C8F4B8F3F8F2E8F1B86E6
S11330101C861D861E86188A1F867A876987CE01BC
S113302001960E944423F30144815581668177818E
S1133030CE0101960E94E522F30185899689A7892C
S1133040B08D892B8A2B8B2B09F49AC0C3010CDA1F
S11330508B019C01F3014085518560E070E0CE0155
S11330604B964C01FE0139965F01C12CD12C76019F
S1133070C39420E0F301848595850E940621AB0169
S1133080BC0114161506160617060CF07EC09E0128
S11330902F5F3F4FC30103DA1B012C01672B682B01
S11330A0692B09F07BC09E012F5F3F4F49E050E040
S11330B060E070E0C3019EDE693071058105910511
S11330C009F068C01D8A1E8A1F8A188E8FEF9FEF31
S11330D0DC01898B9A8BAB8BBC8BF301A284B38408
S11330E0C12CD12CE684F7848E010F5E1F4F9E0104
S11330F02B5E3F4F41E050E060E070E0CE01499626
S11331000E94A421613071058105910529F4498942
S11331105A896B897C8902C0B201A10140385105EA
S11331206105710511F529C0FC01EE0FFF1FEE0FBB
S1133130FF1FE60DF71D218D328D232B91F4880F8F
S1133140991F880F991FF301E80FF91F8C8D9D8D2E
S1133150928F818F8E8D9F8D948F838FB201A10169
S11331600CC00196A11DB11D03C080E090E0DC01FC
S113317085309105A105B105BCF21A012B010EC0E1
S113318022242A94322C210109C022242A94322C8C
S1133190210104C022242A94322C2101C201B1014C
S11331A06F960FB6F894DEBF0FBECDBFDF91CF91FF
S11331B01F910F91FF90EF90DF90CF90BF90AF9051
S11331C09F908F907F906F905F904F903F902F9043
S11331D008954F925F926F927F928F929F92AF92D7
S11331E0BF92CF92DF92EF92FF920F931F93CF93F0
S11331F0DF93CDB7DEB764970FB6F894DEBF0FBE8A
S1133200CDBF4C015A011B861C861D861E86188A5A
S11332101F867A876987CE0101960E944423F401B0
S11332204481558166817781CE0101960E94E52211
S1133230F40185899689A789B08D892B8A2B8B2BDC
S113324009F4A6C0F50180818150823028F4C401BC
S11332500BD9F50174836383F5014780508425817C
S11332603681C380D480E1800081F401408551859A
S113327060E070E0848595851F921F925F924F9263
S11332803F932F932DB73EB7285031090FB6F894CA
S11332903EBF0FBE2DBFADB7BEB7119628E0FE01ED
S11332A0399601900D922A95E1F720E07FD6AB0183
S11332B0BC010FB6F894DEBF0FBECDBF14161506C1
S11332C0160617060CF069C09E012F5F3F4FC4011C
S11332D0E6D82B013C01672B682B692B09F06BC0E6
S11332E0F5018081813051F59E012F5F3F4F44E00D
S11332F050E060E070E0C4017DDD6430710581055B
S1133300910509F04FC0F401E284F38400E010E079
S113331026853785AE014F5E5F4FBE016C5E7F4FE1
S1133320CE01439607D3613071058105910509F4F7
S113333042C044244A94542C32013DC08230D9F511
S11333409E012F5F3F4F47E050E060E070E0C40112
S113335051DD673071058105910549F5F401E28479
S1133360F38400E010E026853785AE014F5E5F4FA1
S1133370BE016C5E7F4FCE014396DCD26130710595
S113338081059105C1F044244A94542C320113C0A0
S113339044244A94542C32010EC044244A94542C9C
S11333A0320109C044244A94542C320104C04424F8
S11333B04A94542C3201C301B20164960FB6F894B6
S11333C0DEBF0FBECDBFDF91CF911F910F91FF9054
S11333D0EF90DF90CF90BF90AF909F908F907F90B1
S11333E06F905F904F9008958F929F92AF92BF928B
S11333F0CF92DF92EF92FF92CF93DF93EC018E8115
S1133400833031F0843061F0C12CD12C76010FC0AF
S11334100F2EFCE0CF2ED12CE12CF12CF02D07C087
S11334200F2EFAE0CF2ED12CE12CF12CF02D2F8190
S1133430388549855A856B857C858D859E8506D51D
S1133440DC01CB010296A11DB11DC80ED91EEA1ED6
S1133450FB1E8A89882331F1298D3A8D4B8D5C8D31
S11334606D8D7E8D8F8D98A1F1D44B015C0122E08E
S1133470820E911CA11CB11C29A13AA14BA15CA1F3
S11334806DA17EA18FA198A5E1D4DC01CB01880DAB
S1133490991DAA1DBB1D0296A11DB11DC80ED91EE2
S11334A0EA1EFB1E8BA59CA5892B21F489A99AA948
S11334B0892B91F02BA53CA54DA55EA56FA578A9F8
S11334C089A99AA9C3D4DC01CB010296A11DB11D1F
S11334D0C80ED91EEA1EFB1E8BA99CA9892B21F4B8
S11334E089AD9AAD892B91F02BA93CA94DA95EA970
S11334F06FA978AD89AD9AADA9D4DC01CB01029650
S1133500A11DB11DC80ED91EEA1EFB1EC701B601BE
S1133510DF91CF91FF90EF90DF90CF90BF90AF906D
S11335209F908F9008954F925F926F927F92AF9287
S1133530BF92DF92EF92FF920F931F93CF93DF938B
S113354000D000D0CDB7DEB75C012A013B01790180
S11335509A838983C90148DF6B837C838D839E832F
S113356033D346165706680679060CF4B2C060E1F8
S1133570CE0101967AD34B815C816D817E818981F4
S11335809A8144D229813A81620F731F7A836983B5
S1133590F7018681843051F466E473E0CE0101962C
S11335A09CD364E0CE01019660D309C06BE473E060
S11335B0CE01019692D363E0CE01019656D3D12C6D
S11335C0F701818980FBD1F8928981E0911101C0D2
S11335D080E080FBD2F8D2FE0DC0F70182A5837093
S11335E0880F880F880F9D2D977ED92ED82A81A504
S11335F080FBD5F8F70183A594A5892B21F481A933
S113360092A9892B11F06894D7F8F70183A994A99A
S1133610892B21F481AD92AD892B11F06894D6F8F1
S11336206D2DCE01019621D3F7014785508960E0C5
S113363070E0CE01019623D3F7010781108521851F
S113364032854385548565857685CE0101966DD393
S1133650F70182898823B9F0018D128D238D348D71
S1133660458D568D678D70A1CE0101965ED3F7010D
S113367001A112A123A134A145A156A167A170A55E
S1133680CE01019652D37D2CDD2064F4F70103A50D
S113369014A525A536A547A550A961A972A9CE01EF
S11336A0019643D376FE0CC0F70103A914A925A9FA
S11336B036A947A950AD61AD72ADCE01019635D39F
S11336C069817A816A197B09072E000C880B990B92
S11336D004C06EEF7FEF8FEF9FEF26960FB6F8943E
S11336E0DEBF0FBECDBFDF91CF911F910F91FF9031
S11336F0EF90DF90BF90AF907F906F905F904F906E
S11337000895EF92FF920F931F93CF93DF9300D00E
S113371000D0CDB7DEB77C018B015A834983CE013B
S113372001969BD2807F803219F5BE016D5F7F4F79
S113373089819A8177D229813A81260F371F3A836A
S113374029832B813C8122303105ACF0CE010196D6
S113375084D287FB882780F9F7018083CE01019604
S11337607CD2F801808361E070E080E090E003C0E7
S113377060E070E0CB0126960FB6F894DEBF0FBE72
S1133780CDBFDF91CF911F910F91FF90EF900895DE
S11337900F931F93CF93DF931F921F92CDB7DEB782
S11337A09A8389834230510561057105C4F08C0107
S11337B0622F6295607FCE01019657D240E050E0BF
S11337C0BA0189819A8122D129813A81620F731FBA
S11337D0601B710B072E000C880B990B04C06EEF55
S11337E07FEF8FEF9FEF0F900F90DF91CF911F919D
S11337F00F9108952CE0CCCF08952F923F924F92D1
S11338005F926F927F928F929F92AF92BF92CF926C
S1133810DF92EF92FF920F931F93CF93DF93CDB775
S1133820DEB728970FB6F894DEBF0FBECDBF3C01BC
S11338301B012A0138872F83BA82A9821B821C822A
S11338401D821E82CE01019608D2982F907F90335C
S113385009F052C083FB992790F9F3019083982FC4
S113386096959370F10190838170F2018083BE017B
S11338706D5F7F4F89819A81D5D14B015C0169804D
S11338807A80660E771E7A8269828B819C81680EAB
S1133890791EA301BE016F5F7F4FC80199D2672BC8
S11338A0682B692B61F189819A819301281B390B5B
S11338B0C901992324F1F1018081882339F0CE01D3
S11338C00196B8D1EF81F8857183608329813A81AB
S11338D0C301821B930B092E000CAA0BBB0BF60130
S11338E080839183A283B383F70131832083812C66
S11338F0912C5401839403C0812C912C5401C50153
S1133900B40128960FB6F894DEBF0FBECDBFDF9189
S1133910CF911F910F91FF90EF90DF90CF90BF90C8
S1133920AF909F908F907F906F905F904F903F905B
S11339302F900895CF92DF92EF92FF920F931F93EF
S1133940CF93DF9300D000D0CDB7DEB77C016B01FD
S11339508A013A832983CE0101967FD183FB99277B
S113396090F9F601908382958F70F7018083BE01F0
S11339706D5F7F4F89819A8155D129813A81260FC4
S1133980371F3A8329832B813C812230310554F03F
S1133990CE0101964FD1F8017183608361E070E03C
S11339A080E090E026960FB6F894DEBF0FBECDBF40
S11339B0DF91CF911F910F91FF90EF90DF90CF9007
S11339C008950F931F93CF93DF93EC0100E010E071
S11339D0980110C0E0918404F0918504DF011196F0
S11339E0B0938504A0938404908198830F5F1F4F44
S11339F02F4F3F4F04171507260737075CF3CB01FA
S1133A00BA01DF91CF911F910F9108958F929F92E8
S1133A10AF92BF92CF92DF92EF92FF920F931F93D8
S1133A20C12CD12C760102C0750164018A019B016D
S1133A300F77112722273078332364F401501109BA
S1133A402109310900681F6F2F6F3F6F0F5F1F4FF0
S1133A502F4F3F4F4A015B0177232CF42FE7820E4F
S1133A60911CA11CB11CB501A401689416F87595AC
S1133A706795579547951694D1F7141615061606AB
S1133A8017060CF40068460157012FEF821A920AB8
S1133A90A20AB20AFC01EC0DFD1D008314161506E2
S1133AA0160617060CF2C501B4011F910F91FF9081
S1133AB0EF90DF90CF90BF90AF909F908F9008953C
S1133AC04F925F926F927F929F92AF92BF92CF92EA
S1133AD0DF92EF92FF920F931F93CF93DF931F9286
S1133AE0CDB7DEB75C018B01DB011D921D921D92E7
S1133AF01C921397412C512C3201C12CD12C7601EC
S1133B00C394BFEF4B1A5B0A6B0A7B0AE5E04E16BF
S1133B105104610471040CF044C041E050E060E0E1
S1133B2070E0CE010196F5011995613071058105AA
S1133B309105B9F59980A92DAF77B0E0A701960159
S1133B400E942C35D8012D913D914D915C91DC0161
S1133B50CB01820F931FA41FB51FF80180839183AB
S1133B60A283B383CC0CDD1CEE1CFF1CCC0CDD1C2F
S1133B70EE1CFF1CCC0CDD1CEE1CFF1CCC0CDD1C55
S1133B80EE1CFF1CCC0CDD1CEE1CFF1CCC0CDD1C45
S1133B90EE1CFF1CCC0CDD1CEE1CFF1C99200CF44D
S1133BA0B0CFC301B2010F90DF91CF911F910F915C
S1133BB0FF90EF90DF90CF90BF90AF909F907F9059
S1133BC06F905F904F9008950F931F938B019C010A
S1133BD00F5F1F4F2F4F3F4F00381105210531054F
S1133BE02CF46E5F7F4F8F4F9F4F19C0011540E437
S1133BF01407210531052CF46D5F7F4F8F4F9F4FC4
S1133C000EC00F3F1F4F2F4131052CF46C5F7F4FC7
S1133C108F4F9F4F04C06B5F7F4F8F4F9F4F1F91FC
S1133C200F910895909385048093840481EE9CE120
S1133C3047CF0895DC01ED91FC911197608170E00C
S1133C40762F66278181680F711D072E000C880B63
S1133C50990B3296ED93FC930895DC01ED91FC9160
S1133C6011978191ED93FC930895FC01A081B1819A
S1133C706C93808191810196918380830895CF9381
S1133C80DF93FC01C081D181DB01CA01772324F4D5
S1133C9081509F4FAF4FBF4F9883A081B181CD0119
S1133CA001969183808355276627707877235CF487
S1133CB041505109610971095F6F6F6F7F6F4F5FE9
S1133CC05F4F6F4F7F4F11964C9380819181019686
S1133CD091838083DF91CF910895EF92FF920F93A8
S1133CE01F93CF93DF938C017B01EB01099000209C
S1133CF0E9F72197C61BD70BAE0160E070E0BFDF88
S1133D00AE01B701F801808191810E949A35F801D2
S1133D1080819181C80FD91FD183C083DF91CF9156
S1133D201F910F91FF90EF900895AF92BF92CF92A1
S1133D30DF92EF92FF920F931F93CF93DF93CDB750
S1133D40DEB728970FB6F894DEBF0FBECDBF5C0177
S1133D5009831A832B833C834D835E836F83788727
S1133D60CB80DC80ED80FE801C141D041E041F0427
S1133D709CF4B701A60183DF6F817885A601F50164
S1133D80808191810E949A35F50180819181C80ECC
S1133D90D91ED182C0820BC069817A8161157105F7
S1133DA011F09BDF04C040E050E0BA0168DF2896C0
S1133DB00FB6F894DEBF0FBECDBFDF91CF911F9138
S1133DC00F91FF90EF90DF90CF90BF90AF90089548
S1133DD0EF92FF920F931F93CF93DF938C01EB012C
S1133DE07A01888199819A01281B390B2230310587
S1133DF0E4F0CB011FDFF80162837383848395832E
S1133E0028813981A901460F571FE416F50688F069
S1133E103783268328813981620F731F79836883EE
S1133E2061E070E080E090E007C060E070E0CB010A
S1133E3003C060E070E0CB01F80111821082DF91D1
S1133E40CF911F910F91FF90EF900895CF93DF933F
S1133E50CDB7DEB728970FB6F894DEBF0FBECDBF3F
S1133E6029833A834B835C836D837E838F83988716
S1133E70E981FA81309749F0DF010D900020E9F7DC
S1133E801197BD016E1B7F0B02C06B817C81072ED5
S1133E90000C880B990B28960FB6F894DEBF0FBE62
S1133EA0CDBFDF91CF9108950F931F93CF93DF93ED
S1133EB0EB01FC01A081B181109759F0FD01019043
S1133EC00020E9F73197AF014A1B5B0B60E070E01B
S1133ED007C0FC01A681B781428153816481758149
S1133EE0FE0101900020E9F731978F010C1B1D0B97
S1133EF020E030E0401751076207730749F4BE0120
S1133F00CD010E94B535892B31F060E070E005C029
S1133F1060E070E002C061E070E0072E000C880BE6
S1133F20990BDF91CF911F910F910895BF92CF927A
S1133F30DF92EF92FF920F931F93CF93DF93CDB74E
S1133F40DEB728970FB6F894DEBF0FBECDBFB82EEC
S1133F50B22FA32FF42FE52F862F972F202F312F49
S1133F604B2F5A2F6F2F7E2F71DFDC01CB0102966E
S1133F70A11DB11DBC01CD016C0D7D1D8E1D9F1DAC
S1133F80BB2021F06E5F7F4F8F4F9F4F28960FB657
S1133F90F894DEBF0FBECDBFDF91CF911F910F917B
S1133FA0FF90EF90DF90CF90BF9008953F924F9293
S1133FB05F926F927F928F929F92AF92BF92CF92B5
S1133FC0DF92EF92FF920F931F93CF93DF9300D072
S1133FD01F92CDB7DEB74C012A013B01322EB02E21
S1133FE0AE2CDC82CB829A838983CBA0DCA0EDA0AB
S1133FF0FEA0098D1A8D2B8D3C8D4D8D5E8D6F8DA0
S113400078A18B2D93DF6B017C01DEDD461657060C
S1134010680679060CF442C060E330FA63F98B2D2C
S11340208370880F697F682BA0FA60F9CE0101962E
S11340301CDEB701A60189819A81E8DC29813A81D5
S1134040620F731F7A836983098D1A8D2B8D3C8DC2
S11340504D8D5E8D6F8D78A1CE01019666DEBB20FD
S113406041F08B819C81AC0160E070E0CE0101964F
S113407006DE4BA15CA169A17AA189819A810E9483
S11340809A3569817A818BA19CA1680F791F68197F
S11340907909072E000C880B990B04C06EEF7FEF93
S11340A08FEF9FEF0F900F900F900F90DF91CF91B4
S11340B01F910F91FF90EF90DF90CF90BF90AF9042
S11340C09F908F907F906F905F904F903F90089556
S11340D0EF92FF920F931F93CF93DF931F921F9240
S11340E0CDB7DEB7FC01FA83E9834430510561059D
S11340F071057CF1822F8295807F00FB83F991E02A
S1134100263009F090E08F01990F682F697F862F80
S1134110892B682FCE010196A8DD42E050E060E0D3
S113412070E089819A8172DC29813A81620F731F60
S11341307A836983A70160E070E0CE0101969FDD78
S113414069817A81601B710B072E000C880B990B17
S113415004C06EEF7FEF8FEF9FEF0F900F90DF9112
S1134160CF911F910F91FF90EF9008954F925F921E
S11341706F927F928F929F92AF92BF92CF92DF9273
S1134180EF92FF92CF93DF932B013C01EA01C12C04
S1134190D12C7601812C912C5401689481F820C093
S11341A0F601EE0FFF1FEE0FFF1FEE0FFF1FEC0FC8
S11341B0FD1F208131814281538164817581868113
S11341C0978144DEDC01CB010396A11DB11D880E4D
S11341D0991EAA1EBB1E8FEFC81AD80AE80AF80A4D
S11341E0C414D504E604F704DCF2C501B401DF917C
S11341F0CF91FF90EF90DF90CF90BF90AF909F90C2
S11342008F907F906F905F904F9008952F923F9280
S11342104F925F926F927F928F929F92AF92BF92D2
S1134220CF92DF92EF92FF920F931F93CF93DF937E
S1134230CDB7DEB727970FB6F894DEBF0FBECDBF5C
S11342401C012A013B012F839A838983A501C7019D
S1134250B6018CDF6B837C838D839E83B5DC46162D
S11342605706680679060CF452C060E88F8180FB1B
S113427063F9697F6260CE010196F7DC4B815C8152
S11342806D817E8189819A81C1DB29813A81620FA6
S1134290731F7A836983A80160E070E0CE01019600
S11342A0EEDC412C512C320124C0F201EE0FFF1F31
S11342B0EE0FFF1FEE0FFF1FEA0DFB1D00811181A2
S11342C0228133814481558166817781CE010196B3
S11342D02CDDF201EE0FFF1FEE0FFF1FE80DF91D9D
S11342E06081CE010196C1DC8FEF481A580A680A32
S11342F0780A4C145D046E047F04BCF269817A81EF
S113430062197309072E000C880B990B04C06EEF19
S11343107FEF8FEF9FEF27960FB6F894DEBF0FBEA7
S1134320CDBFDF91CF911F910F91FF90EF90DF9060
S1134330CF90BF90AF909F908F907F906F905F9041
S11343404F903F902F9008954F925F926F927F927B
S11343508F929F92AF92BF92CF92DF92EF92FF9291
S11343600F931F93CF93DF9300D000D0CDB7DEB768
S11343704C012A013B016901FA82E982CE010196CE
S11343806CDC807F803909F053C0BE016D5F7F4FC4
S113439089819A8147DC29813A81260F371F3A8324
S11343A02983AB80BC80A20EB31EA501421B530B14
S11343B0423051050CF443C0CE0101963BDCF401BC
S11343C071836083F601108211821282138226C0E7
S11343D0F60180819181A281B381481659066A064B
S11343E07B0654F1AC01BD014F5F5F4F6F4F7F4FB0
S11343F04083518362837383880F991F880F991FA9
S11344007801E80EF91ECE01019627DC90E0A0E0C9
S1134410B0E0F70180839183A283B38389819A8179
S11344208A159B05A8F261E070E080E090E007C087
S113443060E070E0CB0103C06FEF7FEFCB01269605
S11344400FB6F894DEBF0FBECDBFDF91CF911F91A1
S11344500F91FF90EF90DF90CF90BF90AF909F901F
S11344608F907F906F905F904F900895CF92DF92DE
S1134470EF92FF920F931F93CF93DF93EC018B0185
S113448069017A0188819981AA81BB81880F991F6A
S1134490AA1FBB1F880F991FAA1FBB1F0196A11D2E
S11344A0B11D880F991FAA1FBB1F880F991FAA1F30
S11344B0BB1F880F991FAA1FBB1FBC01CD017D5FC5
S11344C08F4F9F4F0E948509873159F488810E943C
S11344D0BF0B892B51F0A601B80188810E94BA054F
S11344E007C060E070E0CB0103C060E070E0CB0186
S11344F0DF91CF911F910F91FF90EF90DF90CF90BC
S11345000895CF92DF92EF92FF920F931F93CF9370
S1134510DF93EC018B0169017A0188819981AA8179
S1134520BB81880F991FAA1FBB1F880F991FAA1F41
S1134530BB1F0196A11DB11D880F991FAA1FBB1F88
S1134540880F991FAA1FBB1F880F991FAA1FBB1F83
S1134550BC01CD017D5F8F4F9F4F0E94850987313C
S113456031F4A601B80188810E94A70403C060E069
S113457070E0CB01DF91CF911F910F91FF90EF90ED
S1134580DF90CF900895FC0180810C94330408954A
S1134590CF92DF92EF92FF92FC01C480D580E68037
S11345A0F78088D3A7019601261B370B480B590BBC
S11345B0DA01C9018827B7FD83959927AA27BB2764
S11345C0FF90EF90DF90CF900895CF92DF92EF921B
S11345D0FF92CF93DF93EC016A017B016BD3C60E8C
S11345E0D71EE81EF91ECC82DD82EE82FF82DF91A7
S11345F0CF91FF90EF90DF90CF9008958F929F928C
S1134600AF92BF92CF92DF92EF92FF92CF93DF935C
S1134610EC014A015B014ED36B017C01A8EEB3E0CF
S1134620A50194010E942C35DC01CB018C0D9D1D4C
S1134630AE1DBF1D8C839D83AE83BF83DF91CF915D
S1134640FF90EF90DF90CF90BF90AF909F908F90AE
S11346500895CF92DF92EF92FF92FC01C480D5803F
S1134660E680F78027D3A7019601261B370B480B5A
S1134670590BCA01B9011AF460E070E0CB01FF9054
S1134680EF90DF90CF900895FC011482158216827A
S113469017820895FC0186E392E29583848381E87E
S11346A092E29783868383EC92E2918780870895D0
S11346B0EF92FF920F931F93CF93DF93EC018B0143
S11346C07A0120E049E350E361E088810E946302BB
S11346D0A701B80188810E94600360E070E0CB010B
S11346E0DF91CF911F910F91FF90EF900895109259
S11346F0890608958BB18F7B8BB908958BB1806443
S11347008BB908951EBC0DB407FEFDCF8EB5089578
S11347108EBD0DB407FEFDCF0895FC0120E030E00E
S113472009C01EBC0DB407FEFDCF8EB580832F5F7C
S11347303F4F319626173707A0F30895FC0120E078
S113474030E00AC0CF01019640814EBD0DB407FE92
S1134750FDCF2F5F3F4FFC012617370798F30895CD
S1134760CF93DF9380918906811124C0C091AE0557
S1134770CC2301F14C2F50E06FEA75E08CE196E018
S11347800E949A35EAE8F6E016821582D1E0D783D2
S1134790D08782E081878CE196E093878287C48703
S11347A087E793E296878587CF01E2D71092AE051B
S11347B0D0938906DF91CF910895D2CF0895AF9217
S11347C0BF92CF92DF92EF92FF920F931F93CF93FA
S11347D0DF93CDB7DEB7CF58D1400FB6F894DEBF24
S11347E00FBECDBF2091C3023091C4023A83298306
S11347F0FE0133964EE3DF011D924A95E9F77E01EF
S1134800B1E4EB0EF11CF7013183208332964EE7BD
S1134810DF011D924A95E9F78E010F531F4FF801EE
S1134820219331932AEADF011D922A95E9F7FC01CD
S1134830A080B1800280F381E02D428153816481A4
S1134840758186819781BC019E012F5F3F4F69016D
S1134850C9010E94C335D50115966D917C911697B7
S113486017964D915C911897C7010E94C335FF922A
S1134870EF92DF92CF9280E793E09F938F931F9301
S11348800F930E941336C801A7D56BE770E0C801E7
S11348900E94A3350FB6F894DEBF0FBECDBF892B9F
S11348A009F49BC0CE0186579E4F9F938F93029627
S11348B09F938F9340979F938F9342969F938F9349
S11348C004551F4F1F930F9382E593E09F938F939B
S11348D0C7019F93EF920E94413661E673E0C801DD
S11348E00E94D2350FB6F894DEBF0FBECDBF892B20
S11348F009F1C257DE4F8881CE58D140C157DE4FEF
S11349009881CF58D1400C5A1109D8011C929F9319
S11349108F9389E493E09F938F931F930F930E9447
S11349201336C80159D50F900F900F900F900F9028
S11349300F902AC061E673E0CE0184589E4F0E9416
S1134940D235892B09F1C457DE4F8881CC58D14028
S1134950C357DE4F9881CD58D1408E010F531F4F5E
S1134960F80110829F938F9382E293E09F938F9339
S11349701F930F930E941336C8012ED50F900F90EA
S11349800F900F900F900F906CE673E0CE01835957
S11349909E4F0E94D235892B61F0C257DE4F888129
S11349A09981CE58D1400197C1F486E793E014D59C
S11349B014C06CE673E0CE0184589E4F0E94D23539
S11349C0892B59F0C457DE4F88819981CC58D14046
S11349D0019719F486E793E0FFD4C157DE4F0FB671
S11349E0F894DEBF0FBECDBFDF91CF911F910F9121
S11349F0FF90EF90DF90CF90BF90AF90089581E04B
S1134A0090E0EED588E790E0F2D58FE00E9419336C
S1134A1081E00E94153362EE75E281E0EFD5EBE9A7
S1134A20F6E084E190E0A0E0B0E086839783A0877D
S1134A30B18712868DED93E29487838708958091E0
S1134A408C04811104C0DBDF81E080938C04089521
S1134A50FF920F931F93CF93DF938C01C0E0D0E0BC
S1134A6014C0C6D4F82E8091AE058D3609F478DED4
S1134A70E091AE05ED3640F481E08E0F8093AE05F3
S1134A80F0E0E155FA4FF0822196C017D10748F3C0
S1134A908BE996E00E944E348BE996E00E949834AC
S1134AA0DF91CF911F910F91FF900895AF92BF9224
S1134AB0CF92DF92EF92FF920F931F93CF93DF93E6
S1134AC0CDB7DEB729970FB6F894DEBF0FBECDBFC2
S1134AD08C017B016A015901A89580918804909109
S1134AE08904A0918A04B0918B040196A11DB11D83
S1134AF08093880490938904A0938A04B0938B04D0
S1134B00BF93AF939F938F938EE093E09F938F9384
S1134B100E94EC35198280919C2390919D239C01E5
S1134B202F5F3F4F30939D2320939C239D838C8341
S1134B30B986A886DF82CE82AE014F5F5F4FB70190
S1134B40C8010E94E9180F900F900F900F900F90DA
S1134B500F90672B682B692B59F41092870486E019
S1134B6093E09F938F930E94EC350F900F9019C0A0
S1134B708BEF92E09F938F930E94EC358091870492
S1134B8091E0980F909387040F900F90853148F02F
S1134B908EEB92E09F938F930E94EC350F900F90D1
S1134BA0FFCF29960FB6F894DEBF0FBECDBFDF91BD
S1134BB0CF911F910F91FF90EF90DF90CF90BF9016
S1134BC0AF9008950F931F93CF938C01EEE2F5E01D
S1134BD01082DC0118968C9118978F9317968C91FC
S1134BE08F938EE591E09F938F93FF93EF930E94B1
S1134BF013369C014EE255E06EE773E081EF94E0DA
S1134C0055DF0F900F900F900F900F900F90C0E012
S1134C100AC0D8011796ED91FC911897EC0FF11D7D
S1134C208081B3D3CF5FF8018185C81790F381E009
S1134C30CF911F910F910895CF93DF931F921F92ED
S1134C40CDB7DEB78091C7259091C825009711F0A4
S1134C509C0102C022ED35E2CE010196821B930B2A
S1134C600F900F90DF91CF9108951F920F920FB67E
S1134C700F9211248F939F93AF93BF9380919821A8
S1134C8090919921A0919A21B0919B210196A11D07
S1134C90B11D8093982190939921A0939A21B09368
S1134CA09B21BF91AF919F918F910F900FBE0F9059
S1134CB01F901895F8946091982170919921809192
S1134CC09A2190919B2178940895CF93DF93CDB747
S1134CD0DEB728970FB6F894DEBF0FBECDBF88E0CD
S1134CE0E3E0F3E0DE01119601900D928A95E1F77D
S1134CF06EE773E28AE793E20E94800D68E873E24C
S1134D0082E893E20E94970D6EE973E28DE893E2E4
S1134D100E94B40DBE016F5F7F4FCB010E943D0E18
S1134D2081E392E00E94B60E28960FB6F894DEBF97
S1134D300FBECDBFDF91CF91089582E084BD83E0A3
S1134D4085BD89EF87BDEEE6F0E0808182608083D7
S1134D50089599E288E10FB6F894A89580936000CD
S1134D600FBE90936000A89560E076E980E090E043
S1134D70B7D2E3DF789408958AEA8EBD0DB407FEB6
S1134D80FDCF1EBC0DB407FEFDCF8EB58A3A21F4CB
S1134D9084E394E021C3089582E494E01DC308955C
S1134DA0CF93DF93CDB7DEB7C85BD1090FB6F894C4
S1134DB0DEBF0FBECDBFCDDF0E94E63382E594E0B7
S1134DC00BD332D2D9DF81DFE1E9F4E010828EE146
S1134DD092E09F938F9382EA92E09F938F93FF9345
S1134DE0EF930E94133681E994E0F6D268E97DE1FD
S1134DF086E00E9495114DE854E06EE172E083E490
S1134E0092E00E94A211C82E880FDD08EE08FF0868
S1134E100F900F900F900F900F900F901C141D0483
S1134E201E041F049CF4E1E9F4E010828EE892E091
S1134E309F938F93FF93EF930E94133681E994E03D
S1134E40CBD20F900F900F900F9056C02FEFC21639
S1134E50D206E206F20629F14DE854E06EE172E072
S1134E608DE292E00E94A211C82E880FDD08EE08A0
S1134E70FF081C141D041E041F049CF4E1E9F4E063
S1134E8010828AE792E09F938F93FF93EF930E949F
S1134E90133681E994E0A0D20F900F900F900F90F9
S1134EA02BC03FEFC316D306E306F30699F4E1E9FA
S1134EB0F4E0108280E492E09F938F93FF93EF934A
S1134EC00E94133681E994E087D20F900F900F90DF
S1134ED00F9012C0E1E9F4E0108281E392E09F9325
S1134EE08F93FF93EF930E94133681E994E074D279
S1134EF00F900F900F900F901C141D041E041F049C
S1134F00ECF5E1E9F4E010820DE814E0D801139621
S1134F103C91139712962C91129711969C9111978C
S1134F208C911F923F931F922F931F929F931F92D6
S1134F308F938EE192E09F938F938CE092E09F9306
S1134F408F93FF93EF930E94133681E994E044D248
S1134F50F8018081EAE2F5E08083D80111968C9112
S1134F601197818312968C911297828313968C9158
S1134F7083830FB6F894DEBF0FBECDBF82E090E00E
S1134F80A0E0B0E0A9968CAF9DAFAEAFBFAFA9973C
S1134F90A1E9B4E01C92EAE2F5E033812281918137
S1134FA080811F923F931F922F931F929F931F9272
S1134FB08F938AED91E09F938F93BF93AF930E9459
S1134FC0133681E994E008D2CE018B599F4F62DBFE
S1134FD04BE557E06AE275E0CE018B599F4F68DBE1
S1134FE0A12C6894BB24B1F80F2EFCE9CF2EF1E27A
S1134FF0DF2EF02D0F2EF4E6EF2EF12CF02D8E0186
S11350000F5F1F4F28EE33E040E050E0BE016B59C4
S11350107F4F81EF94E00E94B4128BE3EBE0F3E066
S1135020DE01A159BF4F01900D928A95E1F7CF5748
S1135030DF4F1882C158D04084E0E6968FAFE697E0
S113504088E692E0E8969FAF8EAFE89788E492E016
S1135050C656DF4F99838883CA59D04081ED94E0C6
S1135060CE55DF4F99838883C25AD0408CE390E0B9
S1135070C258DF4F99838883CE57D04081E0C0580F
S1135080DF4F8883C058D040BE0161597F4F81EF04
S113509094E00E942C170FB6F894DEBF0FBECDBF6C
S11350A0611571058105910509F041C001E914E01C
S11350B0D8011C929F938F937F936F938AEB91E017
S11350C09F938F931F930F930E941336C80184D12B
S11350D07E01BAEAEB0EF11C8FE0EEE7F3E0D701B4
S11350E001900D928A95E1F72FED33E240E0B7018C
S11350F081EF94E00E94E717F80110829F938F9349
S11351007F936F93FF92EF9285EA91E09F938F9341
S11351101F930F930E941336C8015ED1CBDD6B0140
S11351207C010FB6F894DEBF0FBECDBF18C0E1E915
S1135130F4E010829F938F937F936F9387E891E0BD
S11351409F938F93FF93EF930E94133681E994E02A
S113515043D10FB6F894DEBF0FBECDBFFFCF00E042
S113516010E006C00E94ED33DCD169DC0F5F1F4FF5
S113517007301105BCF3A89500E010E006C00E94BA
S1135180ED33CFD15CDC0F5F1F4F07301105BCF34B
S113519091DDDC01CB018C199D09AE09BF09893E63
S11351A09340A105B105B8F185DD6B017C018091C7
S11351B086048F5F80938604843168F1109286049C
S11351C001E914E0D8011C9237DDB82EA92E72DD56
S11351D0AF92BF9228EE33E040E050E00E940235E7
S11351E05F934F933F932F9381E691E09F938F9327
S11351F01F930F930E9413360FB6F894DEBF0FBEB1
S1135200CDBF181619063CF49C01A8016EE773E0A3
S113521081EF94E04BDC44E650E060E070E081EF25
S113522094E00E94B6169BCF8AB180648AB98BB190
S113523080648BB984B1866084B985B1866085B990
S11352408AB180688AB980E58CBD1DBC089514BEFE
S11352500FB6F894A89580916000886180936000EF
S1135260109260000FBEE1E6F0E080E880831082D7
S1135270789401C0089510929E2580E197E290935E
S1135280A9008093A800E1EAF0E088E080838081AF
S113529082608083E2E7F0E0808182608083089509
S11352A01F920F920FB60F9211248F9380919E2517
S11352B08F5F80939E258F910F900FBE0F901F904C
S11352C018951F920F920FB60F9211248F9381E0BD
S11352D08093A8068F910F900FBE0F901F90189582
S11352E0DC01CB01880F991FAA1FBB1F880F991FD0
S11352F0AA1FBB1F9C01AD01220F331F441F551F62
S1135300220F331F441F551F60E074E284EF90E0C6
S11353100E940235BA01A90141505109610971097C
S1135320BB27A72F962F852F8093CD004093CC00C9
S113533082E08093C80088E98093C90086E0809366
S1135340CA00E7EDF9E086E498E09187808780E978
S113535091E09583848317821682118210821382CE
S11353601282ECE3F8E02BEA36E03187208795835C
S1135370848317821682118210821382128281E042
S11353808093AA061092A9060895CF93DF93E7EDC0
S1135390F9E0268137816481758126173707C9F0C2
S11353A0C085D18542815381DA011196B383A283EA
S11353B0FE01E40FF51F80836A177B0721F4109226
S11353C0DA091092D9092F5F3F4F3093DE092093F9
S11353D0DD09DF91CF910895CF93DF93EC0102C0F3
S11353E0D4DF219688818111FBCFDF91CF9108957D
S11353F04FB7F894ECE3F8E0208531858081918102
S1135400BC016F5F7F4F71836083D901A80FB91FFF
S11354108C9160817181248135816217730721F435
S113542010923D0810923C08ECE3F8E026813781A5
S113543021503109378326834FBF08951F920F925D
S11354400FB60F9211240BB60F928F93EF93FF9325
S113545081E08093AA06E9ECF0E080818F7D80836F
S1135460FF91EF918F910F900BBE0F900FBE0F9095
S11354701F9018951F920F920FB60F9211240BB61E
S11354800F922F933F934F935F936F937F938F93D9
S11354909F93AF93BF93EF93FF938091C8002091A4
S11354A0CE008C7159F5ECE3F8E046815781848194
S11354B095814817590711F140855185828193815F
S11354C0BC016F5F7F4F73836283DA01A80FB91F3A
S11354D02C9322813381848195812817390721F403
S11354E010923F0810923E08ECE3F8E08681978121
S11354F001969783868381E08093A906FF91EF91BB
S1135500BF91AF919F918F917F916F915F914F91D7
S11355103F912F910F900BBE0F900FBE0F901F90D5
S113552018958091DD099091DE09009769F1209129
S1135530AA06222349F1E7EDF9E06085718520810F
S11355403181A9014F5F5F4F51834083DB01A20F7B
S1135550B31F2C91648175814617570721F410926B
S1135560D8091092D70901979093DE098093DD0939
S11355709FB7F8942093CE00E9ECF0E0808180623C
S113558080831092AA069FBF2FB7F8949091A90622
S11355901092A90640914208509143082FBF9923C5
S11355A011F0CA0155CA0895EFE9F5E21482158293
S11355B01182108217A216A280E00AC0E82FF0E040
S11355C03396EE0FFF1FE156FA4D118210828F5F62
S11355D08031A0F339D68DD506D1C5D0BDC108958B
S11355E09093A02580939F250C942F330895909336
S11355F0A2258093A1250C941D330895E82FF0E093
S11356003396EE0FFF1FE156FA4D718360830895C0
S1135610C2D544D7D1C00895A091E109B091E2095F
S1135620A817B90741F42D913C913093E2092093D6
S1135630E1090BC0DF01ED91FC9111978E179F07D3
S1135640C9F7208131812D933C93EFE9F5E226A13E
S113565037A12150310937A326A3DC011D96ED9112
S1135660FC911E97199508950F931F93CF93DF9381
S11356708C01C6D0EC01009729F482E0F801848300
S1135680878750C0F8019383828381E08483FE017D
S1135690E957FF4F87E99BE291838083F801818575
S11356A082FB882780F9FE01EA57FF4F8083F801C7
S11356B091858B8590FB80F98B87918593FB992746
S11356C090F990FB82F98B87EFE9F5E284818F5F93
S11356D084838C87808191819E878D87F801858161
S11356E09681988B8F878085982F9F708989807F7A
S11356F0892B898B97819295907F8F70892B898BC9
S1135700448562857385FE01EF57FF4F50E0808129
S113571091810E949A35F80184859981890F898342
S1135720CE01B5D5DF91CF911F910F910895E091EE
S1135730E109F091E20913C0228133812817390766
S113574059F4DC01AD57BF4F2C91278713962C9148
S1135750208B22E0248305C00190F081E02D309756
S113576059F77FC008951092E2091092E109089553
S1135770FC011482178613821282AFE9B5E2969671
S11357808D919C919797019697969C938E9396975B
S11357908091E1099091E209009739F41182108215
S11357A0F093E209E093E109089591838083F093F3
S11357B0E209E093E1090895E091E109F091E20939
S11357C00FC08481882319F0823021F006C0CF01F4
S11357D04BCF0895CF0120CF08950190F081E02DA3
S11357E0309779F7089580E008C099E8899FF0011F
S11357F01124ED51F64F10828F5F8E31B0F308956E
S113580080E02AC0282F30E099E8929FF001939F0E
S1135810F00D1124ED51F64F908191111CC069E8EF
S1135820629FA001639F500D1124CF0111926A95CC
S1135830E9F720E1FC0121834B50564FEF57FF4F0E
S113584051834083EFE9F5E226A137A12F5F3F4F53
S113585037A326A308958F5F8E31A0F280E090E0F5
S11358600895FC011082EFE9F5E286A197A1019762
S113587097A386A30895009721F0FC01E757FF4FF3
S113588008C0E3EEF9E005C08081811109C0E75743
S1135890FF4F89E1E13FF807B8F380E090E0089515
S11358A08E2F9F2F0895FC01DC01AD57BF4F1C9232
S11358B0AFE9B5E214969C9114979F5F14969C935C
S11358C0149794878D919C9196878587089590E08D
S11358D012C0292F30E0F901EE0FFF1FEE0FFF1F5A
S11358E0EE0FFF1FE21BF30BEF50F64E85818695FA
S11358F08F5F85839F5F943660F30895DF92EF9204
S1135900FF920F931F93CF93DF938C017B01D42ECF
S113591077DFEC010097C1F0C6DF89818A5F898354
S1135920FE01E957FF4F11821082188B0F873697BB
S11359300190F081E02D81E0808312830183F48261
S1135940E382D582CE01A3D4DF91CF911F910F9131
S1135950FF90EF90DF90089580E016C0282F30E08C
S1135960F901EE0FFF1FEE0FFF1FEE0FFF1FE21BEB
S1135970F30BEF50F64E2FEF3FEF328321839081EC
S11359809E7F908315828F5F843640F30895CF9372
S1135990DF93EC0190E02AC0292F30E0F901EE0FEB
S11359A0FF1FEE0FFF1FEE0FFF1FE21BF30BEF5065
S11359B0F64E418152814C175D07B9F4F901EE0F9F
S11359C0FF1FEE0FFF1FEE0FFF1FE21BF30BEF5045
S11359D0F64E808181FBAA27A0F9B0E0462F50E063
S11359E0A417B50711F4CF0105C09F5F9436A0F248
S11359F080E090E0DF91CF91089580E0A0E0B0E0F6
S1135A00E1EFF9E113C0908190FD0EC095819923D7
S1135A1081F0109731F015962C911597921718F084
S1135A2003C0DF0101C0DF018F5F3796843658F36E
S1135A30FD0180818D708063808380E88583CF0140
S1135A400895FC01808180FD05C08FEF9FEF928354
S1135A508183158208959BDF009721F0FC018381E7
S1135A60948108958FEF9FEF089591DF009709F0D7
S1135A70E8CF08950F931F93CF93DF93FC01018523
S1135A801285112334F4858596850817190709F0C2
S1135A9050C085819681019609F44BC0EF0160E006
S1135AA08585968574DFDC01892B79F18F81988552
S1135AB0019659F420919F253091A0258F859889CE
S1135AC02817390721F080E003C080E001C081E09D
S1135AD0982F917013962D913C91149702171307E8
S1135AE049F0FE01ED57FF4F208116968C911697D1
S1135AF0821710F09923B9F014961C930E93139700
S1135B008C918F7080638C930EC077DFDC018D8560
S1135B109E8512969C938E93119789859A851496E7
S1135B209C938E931397FE01ED57FF4F8081169639
S1135B308C93DF91CF911F910F910895CF93DF93B1
S1135B40FC01878590898F3F2FEF920781F1EF0148
S1135B50638563FB662760F91ADFDC01892B39F161
S1135B608C9180FD24C0FE01ED57FF4F808181118F
S1135B700EC08C918F7080638C9315968C911597C1
S1135B808F5F15968C938F3F91F4A1DE10C09C918A
S1135B90892F82958F70815F8F70282F2295207FA7
S1135BA09F70922B9C93811102C0CD014ADFDF913B
S1135BB0CF910895CF93DF93FC01878590898F3F20
S1135BC02FEF920729F48FEF9FEF908787830EC002
S1135BD0238522FF03C09087878308C0EF01638574
S1135BE063FB662760F937DF98878F83DF91CF9156
S1135BF00895EF92FF921F93CF93DF93EC011B85DF
S1135C0013FB112710F9EF84F888612FC70123DFF4
S1135C10019659F0FE01E957FF4F11821082319726
S1135C2082E08083CE0133D307C0412FB7018D8535
S1135C309E8564DECE0115DEDF91CF911F91FF902A
S1135C40EF900895DC011796ED91FC911897199641
S1135C508C91863031F465818381948106DF81E003
S1135C60089580E00895EF92FF920F931F93CF93CE
S1135C70DF93CDB7DEB72C970FB6F894DEBF0FBE17
S1135C80CDBFDC0151968C91519782958F70E82F8E
S1135C90F0E03396EE0FFF1FE156FA4DE080F180FD
S1135CA0E114F10409F467C01D964D915C911E97AF
S1135CB05A8349831F966D917C9150977C836B83A3
S1135CC051969C9151979F709D838E83CD018F57E0
S1135CD09F4FFC01808191819987888711962C912F
S1135CE011978D010E5F1F4F801B910B281B2A8774
