S00F00004D5154542D47572E7372656304
S11300006DC100009BC1000099C1000097C10000B0
S113001095C1000093C1000091C100008FC1000090
S11300208DC100008BC1000089C1000087C10000A0
S113003085C100000C94B12181C100007FC1000082
S11300407DC100007BC1000079C1000077C10000C0
S113005075C100000C946B1F71C100006FC10000DA
S11300606DC100006BC1000069C1000067C10000E0
S113007065C1000063C1000061C100005FC10000F0
S11300805DC100005BC1000059C1000057C1000000
S11300900C947E220C94622251C100004FC10000D6
S11300A04DC100004BC100000C94A02147C10000C9
S11300B045C1000043C1000041C100003FC1000030
S11300C03DC100003BC1000039C1000037C1000040
S11300D035C1000033C1000031C100002FC1000050
S11300E02DC100002BC1000029C1000027C1000060
S11300F025C1000023C1000021C100001FC1000070
S11301001DC100001BC1000019C1000017C100007F
S113011015C1000013C1000011C100000FC100008F
S11301200DC100000BC1000009C1000007C100009F
S113013005C100006364696E6F70737578585B0065
S1130140257300557074696D653A20256C752073AC
S113015065633B20467265652052414D3A20256413
S11301602062797465730D0A002D2D4D515454206D
S1130170436F6E6E6563746564204552524F523A04
S113018020256C640D0A005375627363726962659D
S11301906420282573292025640D0A002B2B4D513A
S11301A0545420436F6E6E656374656420535543E5
S11301B0434553533A20256C640D0A003E3E547265
S11301C079696E6720636F6E6E65637420746F2047
S11301D04D5154542062726F6B65723A2025642E1F
S11301E025642E25642E2564202E2E0D0A00255309
S11301F000436F6E6E656374696F6E20776974680F
S1130200204D5154542042726F6B65722077617394
S1130210206C6F737421210D0A5265626F6F742014
S113022074686520626F6172642E2E0D0A00202DA1
S1130230204552524F520D0A00202D204F4B0D0ADB
S1130240003E3E4D51545420707562206D736720FA
S1130250256C7520004C574D20436F6E66696720EE
S1130260557064617465643A20616464723D2575F7
S11302702C2070616E69643D3078253034582C2010
S11302806368616E6E656C3D25750D0A003C3C4DDE
S1130290515454205375623A205B25735D202573B5
S11302A0000D0A41744D656761323536524652324B
S11302B0204C574D202D3E204D51545420476174FD
S11302C0657761792057495A4E45545F353530304A
S11302D02045544845524E45540D0A0011241FBE72
S11302E0CFEFD1E8DEBFCDBF00E00CBF84B7809371
S11302F0D32314BE0FB6F894A8958091600088614A
S113030080936000109260000FBE14E0A0E0B2E0A1
S1130310E4E7F9E600E00BBF02C007900D92A637B0
S1130320B107D9F723E2A6E7B4E001C01D92A33DCB
S1130330B207E1F70E94DF1F0C94B83461CE8F92AC
S11303409F92AF92BF92CF92DF92EF92FF92CF93A0
S1130350DF93893008F05CC0F82EC82FD0E06E011E
S1130360CC0CDD1CCC0CDD1C8FEFC81AD80ACC0CCD
S1130370DD1CCC0CDD1CCC0CDD1C46019394092C3B
S1130380000CAA08BB0840E1C501B4011AD5C50197
S1130390B401B0D48111FBCFB6017E5F072E000CEF
S11303A0880B990B4FE10DD581E090E002C0880FD6
S11303B0991FFA94E2F780959095209190043091DA
S11303C0910428233923309391042093900420919D
S11303D08E0430918F048223932390938F0480930F
S11303E08E04FE01EE0FFF1FE258FB4F11821082B4
S11303F0CA58DB4F18828DEFD81A0D2C000CEE086A
S1130400FF08C701B60176D48111FBCF81E001C09A
S11304108FEFDF91CF91FF90EF90DF90CF90BF905F
S1130420AF909F908F9008954F925F926F927F92BA
S1130430AF92BF92CF92DF92EF92FF920F931F93EE
S1130440CF93DF9300D01F92CDB7DEB7182F562E6F
S11304503A01022F893008F0CBC021E0621739F04D
S1130460621708F4C7C084E08617A8F4C3C024E068
S113047030E0AE014F5F5F4F60E07FE080E090E0EE
S113048012D589819A81AB81BC81892B8A2B8B2BD4
S113049011F48DEFB8C002FDAFC00023A9F021E034
S11304A0521621F082E0581629F00EC0802F817276
S11304B059F4A4C005FF03C0002334F0A1C004FF15
S11304C003C000230CF09EC0812F39DFA12EB12C74
S11304D06501CC0CDD1CCC0CDD1C2FEFC21AD20A3A
S11304E0CC0CDD1CCC0CDD1CCC0CDD1C402F407F67
S11304F04529B6010D2C000C880B990B62D46114AC
S11305007104A9F46090040270900502C30101967D
S1130510803F2FEF920729F0909305028093040205
S113052006C080E090EC9093050280930402B6012B
S11305307C5F072E000C880B990B472D42D4B60123
S11305407B5F072E000C880B990B462D3AD42601AD
S11305505394052C000C6608770841E0C301B201EE
S113056030D4C301B201C6D38111FBCF81E090E046
S1130570012E02C0880F991F0A94E2F78095909586
S113058020919004309191042823392300FBEE2418
S1130590E0F8F12C012E02C0EE0CFF1C0A94E2F7E5
S11305A0E22AF32AF0929104E092900420918E04BE
S11305B030918F048223932390938F0480938E042D
S11305C0F501EE0FFF1FE258FB4F11821082F50177
S11305D0EA58FB4F10822DEFD21A0D2C000CEE08B6
S11305E0FF08C701B60186D38823D9F3812F0BC036
S11305F08FEF09C08BEF07C08AEF05C08AEF03C0F5
S11306008AEF01C08AEF0F900F900F900F90DF9147
S1130610CF911F910F91FF90EF90DF90CF90BF90FB
S1130620AF907F906F905F904F9008954F925F923C
S11306306F927F928F929F92AF92BF92CF92DF92EE
S1130640EF92FF921F93CF93DF93893008F0B0C0ED
S11306507A01EB01182FC82ED12CCC0CDD1CCC0C4C
S1130660DD1C8FEFC81AD80ACC0CDD1CCC0CDD1CA9
S1130670CC0CDD1CB6010D2C000C880B990B3AD365
S11306808F70813009F096C046018DEF981A092CBD
S1130690000CAA08BB08C501B4012CD3833109F0AE
S11306A08BC0488150E060E070E0762F652F542FB6
S11306B044278981480F511D611D711D762F652FB7
S11306C0542F44278A81480F511D611D711D762FB7
S11306D0652F542F44278B8190E0A0E0B0E0019770
S11306E0A109B109480F591F6A1F7B1F4E3F5F4F75
S11306F06F4F7F4F08F062C0E114F10409F460C049
S1130700B601745F072E000C880B990B24E030E0CF
S1130710AE0151D4B601705F072E000C880B990B03
S11307204F2D4FD3B6017F5E072E000C880B990B1B
S11307304E2D47D326015394052C000C66087708E8
S113074044E0C301B2013DD3C301B201D3D281114C
S1130750FBCF81E090E002C0880F991F1A95E2F761
S1130760209190043091910482239323892B51F595
S11307708EEFD81A0D2C000CEE08FF0812C0C7012A
S1130780B601B8D283FF08C048E06C2D7D2D8E2DB4
S11307909F2D17D383EF19C0C501B401ABD28823B1
S11307A099F0C501B401A6D2873149F781E00DC0A3
S11307B08FEF0BC08BEF09C08DEF07C084EF05C02E
S11307C085EF03C080E001C08CEFDF91CF911F91D2
S11307D0FF90EF90DF90CF90BF90AF909F908F905D
S11307E07F906F905F904F9008958F929F92AF92F9
S11307F0BF92CF92DF92EF92FF921F93CF93DF933A
S1130800893008F063C0182FC82FD0E0CC0FDD1F4B
S1130810CC0FDD1F2196CC0FDD1FCC0FDD1FCC0FBD
S1130820DD1FBE010D2E000C880B990B63D28F7057
S1130830813009F04DC06E01D3940D2C000CEE08EC
S1130840FF0848E0C701B601BCD2C701B60152D2C5
S11308508111FBCF81E090E0012E02C0880F991F27
S11308600A94E2F79C012095309540918E045091B2
S11308708F042423352330938F0420938E042091F6
S113088090043091910482239323892B19F54E010E
S11308908DEF981A092C000CAA08BB086E018EEF84
S11308A0D81A0D2C000CEE08FF0809C0C701B601C8
S11308B021D283FF04C0812F42DD83EF0CC0C50128
S11308C0B40118D28111F2CF81E005C08FEF03C0CB
S11308D08BEF01C080E0DF91CF911F91FF90EF90EB
S11308E0DF90CF90BF90AF909F908F9008952F92FC
S11308F03F924F925F926F927F928F929F92AF92AC
S1130900BF92CF92DF92EF92FF921F93CF93DF9328
S113091000D01F92CDB7DEB7893008F0C3C06A019A
S11309201B01182FE82EF12CEE0CFF1CEE0CFF1C03
S11309302FEFE21AF20AEE0CFF1CEE0CFF1CEE0C79
S1130940FF1CB7010F2C000C880B990BD3D18F70AF
S1130950813009F0ABC0C114D10409F4ACC0270143
S11309603DEF531A052C000C66087708C301B20149
S1130970C1D1873119F08C3109F0A2C081E090E037
S11309804C01012E02C0880C991C0A94E2F7540110
S113099080918E0490918F0488219921892B61F193
S11309A0C7019E5F9C01990F440B550B29833A8321
S11309B04B835C83CA01B9019DD184FF14C040E11B
S11309C069817A818B819C81FCD120918E04309144
S11309D08F04C401809590958223932390938F0470
S11309E080938E0409C083FF70C0812FA8DC63EF5D
S11309F07FEF8FEF9FEF70C0B701715E072E000C81
S1130A00880B990B77D190E0982F8827990F990F2D
S1130A108C159D0508F46C01812F5BD39A8389831F
S1130A20C301B20167D1873149F08C3139F0812F8C
S1130A3086DC69EF7FEF8FEF9FEF4EC080919004CB
S1130A40909191048A219B21892B31F049815A810B
S1130A504C155D0530F43DC089819A818C159D0546
S1130A60D8F2A601B101812FDCD327015394052CC0
S1130A70000C6608770840E2C301B201A2D1C301A9
S1130A80B20138D18111FBCF80918E0490918F04F3
S1130A90882A992A90928F0480928E04B60180E06D
S1130AA090E01AC06FEF7FEFCB0116C06BEF7FEFC2
S1130AB08FEF9FEF11C062EF7FEF8FEF9FEF0CC0BE
S1130AC069EF7FEF8FEF9FEF07C060E070E0CB012D
S1130AD003C060E070E0CB010F900F900F900F9077
S1130AE0DF91CF911F91FF90EF90DF90CF90BF9057
S1130AF0AF909F908F907F906F905F904F903F90BA
S1130B002F9008952F923F924F925F926F927F920F
S1130B108F929F92AF92BF92CF92DF92EF92FF9209
S1130B200F931F93CF93DF9300D01F92CDB7DEB7FF
S1130B30893008F0A8C06A017A836983382E082FA7
S1130B4010E0000F111F000F111F0F5F1F4F000F48
S1130B50111F000F111F000F111FB801012E000CEF
S1130B60880B990BC7D08F70813009F090C0C114E5
S1130B70D10409F491C0B801725E072E000C880BF1
S1130B80990BB8D0282E81E090E07C01032C02C0A0
S1130B90EE0CFF1C0A94E2F748012DEF921A092C7F
S1130BA0000CAA08BB08280131EE531A052C000CCE
S1130BB066087708832DE1D29C838B83C501B40139
S1130BC099D0873131F18C31E9F48B819C81892B67
S1130BD091F5832D7ED29C838B83C301B2018AD08D
S1130BE090E0982F8827990F990F2B813C81281723
S1130BF0390709F05EC0832DA2DB69EF7FEF8FEF29
S1130C009FEF61C0832D9BDB69EF7FEF8FEF9FEF39
S1130C105AC080919004909191048E219F21892B38
S1130C2029F08B819C81892B31F43BC02B813C8141
S1130C30232B09F4BFCF822D90E0982F8827990F9A
S1130C40990F8C159D0508F46C018B819C818C1582
S1130C509D0508F46C01A60169817A81832D68D30E
S1130C6048019394092C000CAA08BB0840E4C50170
S1130C70B401A7D0C501B4013DD08111FBCFB601A9
S1130C8080E090E020C06FEF7FEFCB011CC06BEFE2
S1130C907FEF8FEF9FEF17C062EF7FEF8FEF9FEF34
S1130CA012C060E070E0CB010EC060E070E0CB01E8
S1130CB00AC080919004909191048E219F21892BE8
S1130CC009F478CFF2CF0F900F900F900F90DF912F
S1130CD0CF911F910F91FF90EF90DF90CF90BF9035
S1130CE0AF909F908F907F906F905F904F903F90C8
S1130CF02F900895DF92EF92FF920F931F93CF935B
S1130D00DF9300D0CDB7DEB7F62EE72ED82E06E05F
S1130D1012E0D8011896ED91FC9119971995D80114
S1130D201C96ED91FC911D971995F801848995897C
S1130D30892B31F0E0911C02F0911D023097C1F42F
S1130D4006E012E0D8015296ED91FC9153978D2D57
S1130D501995D8015296ED91FC9153978E2D1995C2
S1130D60D8015296ED91FC9153978F2D199508C097
S1130D70D982EA82FB8263E070E0CE010196199584
S1130D8006E012E0D8015096ED91FC915197199527
S1130D90F82ED8011E96ED91FC911F971995D80154
S1130DA01A96ED91FC911B9719958F2D0F900F902A
S1130DB00F90DF91CF911F910F91FF90EF90DF90F3
S1130DC008954F925F926F927F92BF92CF92DF927B
S1130DD0EF92FF920F931F93CF93DF9300D01F9254
S1130DE0CDB7DEB76B017C01B42E06E012E0D8016A
S1130DF01896ED91FC9119971995D8011C96ED91CF
S1130E00FC911D97199526013701689442F8D80181
S1130E105696ED91FC9157973097E1F45296ED91E7
S1130E20FC9153978E2D1995D8015296ED91FC9112
S1130E3053978D2D1995D8015296ED91FC915397A6
S1130E40842D1995D8015296ED91FC9153978B2DD1
S1130E50199509C0E982DA824B82BC8264E070E0B1
S1130E60CE010196199506E012E0D8011E96ED9187
S1130E70FC911F971995D8011A96ED91FC911B9737
S1130E8019950F900F900F900F90DF91CF911F91B4
S1130E900F91FF90EF90DF90CF90BF907F906F9075
S1130EA05F904F9008959F92AF92BF92CF92DF923E
S1130EB0EF92FF920F931F93CF93DF9300D0CDB7A0
S1130EC0DEB7B62EA72E982E7A01690106E012E04D
S1130ED0D8011896ED91FC9119971995D8011C9693
S1130EE0ED91FC911D971995F80184899589892BB9
S1130EF031F0E0911C02F0911D02309781F506E07B
S1130F0012E0D8015296ED91FC915397892D1995D1
S1130F10D8015296ED91FC9153978A2D1995D801D9
S1130F205296ED91FC9153978B2D1995C114D104D0
S1130F3029F18701CE0CDF1C0F2EF6E0EF2EF2E034
S1130F40FF2EF02DD7015096ED91FC9151971995F4
S1130F50F80181938F01EC15FD05A1F70FC099826B
S1130F60AA82BB8263E070E0CE0101961995E091FC
S1130F701A02F0911B02B601C701199506E012E0AE
S1130F80D8011E96ED91FC911F971995D8011A96D8
S1130F90ED91FC911B9719950F900F900F90DF9195
S1130FA0CF911F910F91FF90EF90DF90CF90BF9062
S1130FB0AF909F9008954F925F926F927F928F921D
S1130FC09F92AF92BF92CF92DF92EF92FF920F93D4
S1130FD01F93CF93DF9300D0CDB7DEB76B017C01B5
S1130FE04A01590106E012E0D8011896ED91FC91EE
S1130FF019971995D8011C96ED91FC911D97199597
S113100026013701689442F8D8015696ED91FC9177
S11310105797309769F55296ED91FC9153978E2D21
S11310201995D8015296ED91FC9153978D2D1995F0
S1131030D8015296ED91FC915397842D1995A114E2
S1131040B10429F18401A80CB91C0F2EF6E0EF2E8F
S1131050F2E0FF2EF02DD7015296ED91FC915397BB
S1131060D8018D918D0119950A151B05A1F70FC0A3
S1131070E982DA824B8263E070E0CE010196199531
S1131080E0911C02F0911D02B501C401199506E01E
S113109012E0D8011E96ED91FC911F971995D80185
S11310A01A96ED91FC911B9719950F900F900F9044
S11310B0DF91CF911F910F91FF90EF90DF90CF9030
S11310C0BF90AF909F908F907F906F905F904F9064
S11310D008958F929F92AF92BF92CF92DF92EF9238
S11310E0FF920F931F93CF93DF9324E0829FC0015D
S11310F011246C012FEFC21AD20ACC0CDD1CCC0CCB
S1131100DD1CCC0CDD1C460180EE981A092C000C69
S1131110AA08BB082FEDD21A0D2C000CEE08FF080C
S113112000E010E0C501B401E5DDC82FD0E0DC2FFC
S1131130CC27C701B601DEDDC80FD11D209761F0B1
S1131140C501B401D7DD082F10E0102F0027C70117
S1131150B601D0DD080F111D0C171D0719F7CE01BC
S1131160DF91CF911F910F91FF90EF90DF90CF907F
S1131170BF90AF909F908F9008958F929F92AF925F
S1131180BF92CF92DF92EF92FF920F931F93CF9370
S1131190DF9324E0829FC00111246C012FEFC21A57
S11311A0D20ACC0CDD1CCC0CDD1CCC0CDD1C4601A5
S11311B08AED981A092C000CAA08BB0829EDD21A4A
S11311C00D2C000CEE08FF0800E010E0C501B4018E
S11311D091DDC82FD0E0DC2FCC27C701B6018ADD12
S11311E0C80FD11D209761F0C501B40183DD082F1C
S11311F010E0102F0027C701B6017CDD080F111D78
S11312000C171D0719F7CE01DF91CF911F910F9194
S1131210FF90EF90DF90CF90BF90AF909F908F9012
S113122008952F923F924F925F926F927F928F9286
S11312309F92AF92BF92CF92DF92EF92FF920F9361
S11312401F93CF93DF9300D01F92CDB7DEB7411524
S1131250510509F456C01A017A836983882E912CAA
S1131260880C991C880C991C64012FEFC21AD20AAD
S1131270CC0CDD1CCC0CDD1CCC0CDD1C26013CEDA7
S1131280531A052C000C66087708C301B20132DD3D
S1131290082F8BEDD81A0D2C000CEE08FF08C7019F
S11312A0B60128DD10E0102F0027080F111D94014E
S11312B02E5F3F4F220F331F220F331F220F331F86
S11312C0C901330FAA0BBB0BA80160E070E0762FB5
S11312D0652F542F44274C015D01840E951EA61ED4
S11312E0B71EC501B401910149815A8164DE020D22
S11312F0131D412FC301B20164DD402FC701B601A4
S113130060DD0F900F900F900F90DF91CF911F91A0
S11313100F91FF90EF90DF90CF90BF90AF909F9090
S11313208F907F906F905F904F903F902F90089593
S11313302F923F924F925F926F927F928F929F92E1
S1131340AF92BF92CF92DF92EF92FF920F931F93CF
S1131350CF93DF9300D01F92CDB7DEB7411551056F
S113136009F456C01A017A836983882E912C880C5B
S1131370991C880C991C64012FEFC21AD20ACC0C58
S1131380DD1CCC0CDD1CCC0CDD1C260138ED531A05
S1131390052C000C66087708C301B201ABDC082FEA
S11313A087EDD81A0D2C000CEE08FF08C701B60112
S11313B0A1DC10E0102F0027080F111D94012D5FF0
S11313C03F4F220F331F220F331F220F331FC90138
S11313D0330FAA0BBB0BA80160E070E0762F652FDA
S11313E0542F44274C015D01840E951EA61EB71E82
S11313F0C501B401910149815A8155DD020D131DC6
S1131400412FC301B201DDDC402FC701B601D9DC95
S11314100F900F900F900F90DF91CF911F910F912C
S1131420FF90EF90DF90CF90BF90AF909F908F9000
S11314307F906F905F904F903F902F900895089504
S1131440089508950895FB0180810895FB01408368
S1131450089580E00895089508950895009719F077
S11314606115710559F4E6E0F2E081E29AE09587AE
S1131470848782E29AE0978786870895E6E0F2E01F
S1131480958784877787668708952091060230912F
S113149007022227327021153105E9F3009719F06C
S11314A06115710559F4E6E0F2E089E29AE0918B66
S11314B0808B8BE29AE0938B828B0895E6E0F2E0D6
S11314C0918B808B738B628B0895209106023091EF
S11314D007022227327021153105E9F3009719F02C
S11314E06115710559F4E6E0F2E08CE29AE0958B1F
S11314F0848B8DE29AE0978B868B0895E6E0F2E088
S1131500958B848B778B668B0895CF93DF93CDB7C0
S1131510DEB762970FB6F894DEBF0FBECDBF26E0EC
S113152030E0AE01435F5F4F60E079E080E090E03F
S1131530BADC24E030E0AE014F5F5F4F60E071E061
S113154080E090E0B0DC24E030E0AE014B5F5F4F20
S113155060E075E080E090E0A6DC24E030E0AE01DD
S1131560475F5F4F60E07FE080E090E09CDC40E814
S113157060E070E0CB0125DC60E070E0CB01BADB19
S113158026E030E0AE01435F5F4F60E079E080E049
S113159090E011DD24E030E0AE014F5F5F4F60E08A
S11315A071E080E090E007DD24E030E0AE014B5FC5
S11315B05F4F60E075E080E090E0FDDC24E030E027
S11315C0AE01475F5F4F60E07FE080E090E0F3DCD6
S11315D062960FB6F894DEBF0FBECDBFDF91CF91F8
S11315E00895EF92FF920F931F93CF93DF93EC0133
S11315F07B018BDF209709F458C0888181310CF07E
S113160043C0FE0131969E01285F3F4F9191890F9F
S11316108131E4F5E217F307C9F78E01C1E0D0E0A8
S1131620F80141918F01BE01660F771F660F771F86
S1131630660F771F715E072E000C880B990BC1DBB8
S11316402496C132D10561F730C09191890F81315F
S1131650FCF4E217F307C9F7C1E0D0E0F7014191C8
S11316607F01BE01660F771F660F771F660F771F16
S1131670725E072E000C880B990BA3DB2496C132F3
S1131680D10561F780E015C08FEF13C08FEF11C053
S11316908FEF0FC08FEF0DC0F70180818131D4F738
S11316A031969701285F3F4FD0CFE114F104A1F7A1
S11316B080E0DF91CF911F910F91FF90EF900895FB
S11316C0CF93DF93EC0126E030E0AC0160E079E0F9
S11316D080E090E070DCAE01425F5F4F24E030E0D8
S11316E060E071E080E090E066DCAE01465F5F4F51
S11316F024E030E060E075E080E090E05CDCAE0186
S11317004A5F5F4F24E030E060E07FE080E090E0FB
S113171052DCE3E9F4E08A8980838B8981838C89B4
S113172082838D8983838E8980939204DF91CF9104
S11317300895FC0180819181A281B3818F3F2FEFB5
S11317409207A105B10539F0BC01CD016F5F7F4F50
S11317508F4F9F4F04C061E070E080E090E06083B1
S113176071838283938308952F923F924F925F9265
S11317706F927F928F929F92AF92BF92CF92DF929D
S1131780EF92FF920F931F93CF93DF93EC012A0103
S11317903B011901141615061606170624F1812CAF
S11317A0912C540128C0EFA5F8A9C680D780C101A7
S11317B00E948E1C7B018C018C859D85BC01680D6B
S11317C0791DA30192018FA598A9F6011995992372
S11317D094F0860E971EA81EB91E84149504A604C0
S11317E0B70424F008C0812C912C5401C1010E943B
S11317F02F1C8823C1F2481459046A047B0461F441
S1131800488959896A897B89CE01C1960E94651CE1
S113181060E070E0CB0103C06FEF7FEFCB01DF919D
S1131820CF911F910F91FF90EF90DF90CF90BF90D9
S1131830AF909F908F907F906F905F904F903F906C
S11318402F900895AF92BF92CF92DF92EF92FF92C2
S11318500F931F93FC0170AB67A7128E118E168E27
S1131860158E12A211A216A215A212A611A62483E5
S113187035834683578315870487F186E086D786A8
S1131880C686B386A286158A168A178A108E148A8B
S113189016A615A6C1960E94A91C1F910F91FF9030
S11318A0EF90DF90CF90BF90AF9008952F923F922A
S11318B04F925F926F927F928F929F92AF92BF925C
S11318C0CF92DF92EF92FF920F931F93CF93DF9308
S11318D000D01F921F92CDB7DEB71C016B012A8383
S11318E03B834C835D83DB011D921D921D921C92F0
S11318F01397412C512C32014394812C912C540187
S113190083940CC0BFEF4B1A5B0A6B0A7B0AE5E0B9
S11319104E1651046104710409F451C0D1019F961B
S11319208D919C91D097DC011496ED91FC911597C3
S1131930EA80FB800C811D8121E030E040E050E032
S1131940BE016F5F7F4F1995613071058105910567
S1131950B1F5F980AF2DAF77B0E0A50194010E94F5
S11319608F2DF6010081118122813381DC01CB01AD
S1131970800F911FA21FB31F80839183A283B3831F
S1131980880C991CAA1CBB1C880C991CAA1CBB1C87
S1131990880C991CAA1CBB1C880C991CAA1CBB1C77
S11319A0880C991CAA1CBB1C880C991CAA1CBB1C67
S11319B0880C991CAA1CBB1CFF200CF4A3CFC301E8
S11319C0B2010F900F900F900F900F90DF91CF9175
S11319D01F910F91FF90EF90DF90CF90BF90AF9049
S11319E09F908F907F906F905F904F903F902F903B
S11319F008954F925F926F927F928F929F92AF92CF
S1131A00BF92CF92DF92EF92FF920F931F93CF93E7
S1131A10DF9300D01F92CDB7DEB76C015B01198252
S1131A201A821B821C82DC019F96ED91FC91D09757
S1131A3084809580CB010E948E1C7B018C01F60171
S1131A406685778521E030E040E050E087A590A9E5
S1131A50F4011995613071058105910509F054C0AF
S1131A60C5010E948E1C9B01AC01BE016F5F7F4FBC
S1131A70C6011CDF49815A816B817C81D6011E9687
S1131A808D919C911F9701960E9452162B013C0147
S1131A9089819A81AB81BC81181619061A061B0626
S1131AA03CF5D6019F96ED91FC91D097848095806A
S1131AB0C5010E948E1C7B018C0129813A814B81D6
S1131AC05C81BFEF4B1A5B0A6B0A7B0AF6016685E1
S1131AD07785640D751D87A590A9F4011995098171
S1131AE01A812B813C81601771078207930781F467
S1131AF0D6011E96ED91FC911F97608162956F70DF
S1131B0070E080E090E007C06FEF7FEFCB0103C08F
S1131B106FEF7FEFCB010F900F900F900F90DF913D
S1131B20CF911F910F91FF90EF90DF90CF90BF90D6
S1131B30AF909F908F907F906F905F904F9008959B
S1131B40CF93DF93DC01EB01EE81FF814A815B815E
S1131B504E0F5F1F9C91992309F446C0E417F507C3
S1131B60C0F511969A012150310901C01196808166
S1131B708F3219F49F32E1F024C09B3229F0933262
S1131B8099F08917A9F01DC0CF0101968417950714
S1131B9088F581818F3219F13196E217F30739F014
S1131BA091819F32C9F71BC0FA01319701C0F90135
S1131BB031969C919923C1F0E417F507B8F280E0BF
S1131BC01EC04E175F0739F481E09923C1F080E00D
S1131BD016C080E014C080E012C080E010C03196CE
S1131BE09C919111C3CFEDCF81E04E175F0739F07F
S1131BF080E005C031968C918111EFCFF5CFDF9154
S1131C00CF9108952F923F924F925F926F927F925D
S1131C108F929F92AF92BF92CF92DF92EF92FF92F8
S1131C200F931F93CF93DF9300D01F92CDB7DEB7EE
S1131C304C016B011A018C015C0184E1A80EB11CFA
S1131C4044244A94542C32017801D80159966D9158
S1131C507C915A976115710501F1C6010E949F1884
S1131C60672B682B692B39F4B601F801818D928DAD
S1131C7067DF882391F0D7015B96ED91FC915C9727
S1131C80309759F0DC82CB823A822982CE010196C8
S1131C901995412C512C612C712C0C5F1F4F0A1586
S1131CA01B0591F6BFEF4B165B066B067B0689F4AA
S1131CB0D4019D96ED91FC919E97309751F0DC8272
S1131CC0CB823A822982CE0101961995412C512C5E
S1131CD03201C301B2010F900F900F900F90DF916A
S1131CE0CF911F910F91FF90EF90DF90CF90BF9015
S1131CF0AF909F908F907F906F905F904F903F90A8
S1131D002F9008950F931F93CF93DF93CDB7DEB732
S1131D1028970FB6F894DEBF0FBECDBFFC014089F3
S1131D20518962897389452B462B472BB9F18C0164
S1131D30C1960E942F1C8823A9F1F801848981117E
S1131D4035C0CE0101960E94A91C48EE53E060E024
S1131D5070E0CE0101960E944C1CF801408551852B
S1131D6060E070E08485958586D6161617061806F9
S1131D70190684F49E012F5F3F4FAB01BC01C801DB
S1131D80F3DC611571058105910599F421E0F801F1
S1131D90248B0FC06FEF7FEFCB010BC060E070E0CE
S1131DA0CB0107C06FEF7FEFCB0103C06FEF7FEF75
S1131DB0CB0128960FB6F894DEBF0FBECDBFDF91DE
S1131DC0CF911F910F9108952F923F924F925F925E
S1131DD06F927F928F929F92AF92BF92CF92DF9237
S1131DE0EF92FF920F931F93CF93DF93CDB7DEB79C
S1131DF062970FB6F894DEBF0FBECDBF4C011B0136
S1131E00F8DD2B013C0185E04816510409F481C03A
S1131E109DE04916510409F4AFC0E3E04E165104A5
S1131E2009F0B0C0F401A684B784828593851F921B
S1131E301F929F938F93CE0108966C01FE013696F4
S1131E407F018E01065F1F4F9E012C5F3F4FAE0145
S1131E504E5F5F4FBE016F5F7F4F05970FD60F90A8
S1131E600F900F900F90613071058105910509F075
S1131E703EC0AE014F5F5F4FB801C401C3DE89812C
S1131E80882309F442C0813081F4EC80FD80F401A0
S1131E904085518560E070E000E024E0848595850C
S1131EA00E94B319AB01BC0111C0823021F5EC8052
S1131EB0FD80F4014085518560E070E000E025E09C
S1131EC0848595850E94B319AB01BC0114161506CF
S1131ED016061706ACF49101C40146DC6B017C01C3
S1131EE06F3F7F4F8F4F9F4F09F04FC050C0C12CA1
S1131EF0D12C76014CC0CC24CA94DC2C760147C08A
S1131F00CC24CA94DC2C760142C0C12CD12C76019D
S1131F103CC0F401E284F38400E010E026853785B8
S1131F20AE014F5F5F4FBE016E5E7F4FCE010A96DA
S1131F3042D6613071058105910599F5E980FA80F1
S1131F40F4014085518560E070E000E026E084857E
S1131F5095850E94B31916161706180619060CF56E
S1131F609101AB01BC01C401FFDB6B017C01672B58
S1131F70682B692BB1F409C0F401148AC12CD12C4B
S1131F80760103C0C12CD12C7601C401BBDEC1147F
S1131F90D104E104F10449F473016201EE24FF2445
S1131FA004C0CC24CA94DC2C7601C701B601629625
S1131FB00FB6F894DEBF0FBECDBFDF91CF911F9156
S1131FC00F91FF90EF90DF90CF90BF90AF909F90D4
S1131FD08F907F906F905F904F903F902F900895D7
S1131FE0CF92DF92EF92FF920F931F93CF93DF93E1
S1131FF0CDB7DEB728970FB6F894DEBF0FBECDBFBE
S11320008C016A017B01CE0101960E94A91CB701D3
S1132010A601CE0101960E944C1C0AC0BE016F5F4E
S11320207F4FC801D1DE6F3F7F4F8F4F9F4F51F0DD
S1132030CE0101960E942F1C882381F360E070E09A
S1132040CB0103C06FEF7FEFCB0128960FB6F89456
S1132050DEBF0FBECDBFDF91CF911F910F91FF90D7
S1132060EF90DF90CF9008958F929F92AF92BF929E
S1132070CF92DF92EF92FF920F931F93CF93DF9350
S11320808C014A015B01E901CC24CA94DC2C760161
S1132090CE010E942F1C81110CC0BE01C80194DE28
S11320A06B017C01681579058A059B0589F7750123
S11320B06401C701B601DF91CF911F910F91FF9089
S11320C0EF90DF90CF90BF90AF909F908F90089546
S11320D0EF92FF920F931F93CF93DF93CDB7DEB7A9
S11320E0C554D1090FB6F894DEBF0FBECDBF7C0135
S11320F08B018BE3E9E7F2E0DE01199601900D9282
S11321008A95E1F7CE0101960E94A91CF70144814A
S1132110558166817781CE0101960E944C1CF7019E
S113212085899689A789B08D892B8A2B8B2B09F0F9
S11321306DC00115110519F48E01075F1F4FF801D9
S11321404785508960E070E0F701408B518B628BCA
S1132150738BC701C1960E94651CF70140855185A8
S113216060E070E09801848595851ED3AB01BC01C5
S113217014161506160617060CF04CC09E012F5FA8
S11321803F4FC701F1DA611571058105910509F029
S11321904CC09E012F5F3F4F42E050E060E070E092
S11321A0C70162DF6230710581059105B9F58FEFD2
S11321B026968FAF269725961FAE2597F7010285A1
S11321C0138520E030E046855785BE016B5B7F4F69
S11321D0CE018C5B9F4FD6D361307105810591058B
S11321E009F526966FAD269770E080E090E06115C2
S11321F0710581059105C9F401E010E020E030E0AB
S1132200F701058B168B278B308F0FC06FEF7FEF95
S1132210CB010BC06FEF7FEFCB0107C06FEF7FEFF8
S1132220CB0103C06FEF7FEFCB01CB5BDF4F0FB66A
S1132230F894DEBF0FBECDBFDF91CF911F910F91F8
S1132240FF90EF9008952F923F924F925F926F927A
S11322507F928F929F92AF92BF92CF92DF92EF9232
S1132260FF920F931F93CF93DF93CDB7DEB76F9792
S11322700FB6F894DEBF0FBECDBF3C017D8F6C8FCF
S11322804B8F3F8F2E8F1B861C861D861E86188AB9
S11322901F867A876987CE0101960E94A91CF301E3
S11322A04481558166817781CE0101960E944C1C40
S11322B0F30185899689A789B08D892B8A2B8B2B6D
S11322C009F49DC0C30135DA8B019C01F3014085FB
S11322D0518560E070E0CE014B964C01FE013996C9
S11322E05F01C12CD12C7601C39420E0F3018485D5
S11322F095850E94521AAB01BC01141615061606E8
S113230017060CF081C09E012F5F3F4FC3012CDAEA
S11323101B012C01672B682B692B09F07EC09E01E1
S11323202F5F3F4F49E050E060E070E0C3019CDE66
S1132330693071058105910509F06BC01D8A1E8AFB
S11323401F8A188E8FEF9FEFDC01898B9A8BAB8BE2
S1132350BC8BF301A284B384C12CD12CE684F78412
S11323608E010F5E1F4F9E012B5E3F4F41E050E0F8
S113237060E070E0CE0149960E94F71A6130710561
S11323808105910551F449895A896B897C894038C2
S113239051056105710581F102C0B201A101F3018A
S11323A0818D928D892B49F081E090E0A0E0B0E02E
S11323B0258D368D232BA1F403C080E090E0DC0151
S11323C0880F991F880F991FF301E80FF91F8C8D4F
S11323D09D8D928F818F8E8D9F8D948F838F1DC045
S11323E00196A11DB11D349685309105A105B10555
S11323F0F9F61A012B0111C01A012B010EC0222477
S11324002A94322C210109C022242A94322C21013D
S113241004C022242A94322C2101C201B1016F96F6
S11324200FB6F894DEBF0FBECDBFDF91CF911F91E1
S11324300F91FF90EF90DF90CF90BF90AF909F905F
S11324408F907F906F905F904F903F902F90089562
S11324508F929F92AF92BF92CF92DF92EF92FF92B0
S11324600F931F93CF93DF93CDB7DEB764970FB667
S1132470F894DEBF0FBECDBF4C015A011B861C86EB
S11324801D861E86188A1F867A876987CE01019663
S11324900E94A91CF4014481558166817781CE0193
S11324A001960E944C1CF40185899689A789B08DF8
S11324B0892B8A2B8B2B09F4BBC0F50180818150B9
S11324C0823028F4C40135D9F50174836383F5019E
S11324D0C380D480F4014085518560E070E0848538
S11324E09585F501078110851F921F921F930F9305
S11324F026812F9325812F932DB73EB7285031097C
S11325000FB6F8943EBF0FBE2DBFADB7BEB7119640
S113251028E0FE01399601900D922A95E1F7F50124
S1132520E180008120E08DD6AB01BC010FB6F894A8
S1132530DEBF0FBECDBF14161506160617060CF027
S11325407BC09E012F5F3F4FC4010ED961157105F9
S11325508105910509F07BC0F5012081213099F5B1
S11325609E012F5F3F4F44E050E060E070E0C40103
S11325707BDD643071058105910509F061C0F401CA
S1132580E284F38400E010E026853785AE014F5ED7
S11325905F4FBE016C5E7F4FCE0143960CD301E0CA
S11325A010E020E030E0613071058105910519F4F7
S11325B000E010E0980166277727CB01601B710BC0
S11325C0820B930B44C0223009F041C09E012F5F5F
S11325D03F4F47E050E060E070E0C40145DD673004
S11325E071058105910581F5F401E284F38400E02D
S11325F010E026853785AE014F5E5F4FBE016C5EED
S11326007F4FCE014396D7D201E010E020E030E0C6
S1132610613071058105910519F400E010E098011D
S113262066277727CB01601B710B820B930B0FC0BE
S11326306FEF7FEFCB010BC06FEF7FEFCB0107C0D4
S11326406FEF7FEFCB0103C06FEF7FEFCB01649699
S11326500FB6F894DEBF0FBECDBFDF91CF911F91AF
S11326600F91FF90EF90DF90CF90BF90AF909F902D
S11326708F9008958F929F92AF92BF92CF92DF92E4
S1132680EF92FF92CF93DF93EC018E81833051F070
S1132690843081F40F2EFAE0CF2ED12CE12CF12CD2
S11326A0F02D0BC00F2EFCE0CF2ED12CE12CF12C01
S11326B0F02D03C0C12CD12C76012F81388549859A
S11326C05A856B857C858D859E850BD5DC01CB0178
S11326D00296A11DB11DC80ED91EEA1EFB1E8A89D1
S11326E0882309F1298D3A8D4B8D5C8D6D8D7E8DFE
S11326F08F8D98A1F6D44B015C0129A13AA14BA17D
S11327005CA16DA17EA18FA198A5EBD4DC01CB01C6
S1132710880D991DAA1DBB1D0496A11DB11DC80ECF
S1132720D91EEA1EFB1E8BA59CA5892B21F489A921
S11327309AA9892B91F02BA53CA54DA55EA56FA563
S113274078A989A99AA9CDD4DC01CB010296A11D4F
S1132750B11DC80ED91EEA1EFB1E8BA99CA9892B8C
S113276021F489AD9AAD892B91F02BA93CA94DA9EF
S11327705EA96FA978AD89AD9AADB3D4DC01CB0164
S11327800296A11DB11DC80ED91EEA1EFB1EC7016B
S1132790B601DF91CF91FF90EF90DF90CF90BF9083
S11327A0AF909F908F9008954F925F926F927F9217
S11327B0AF92BF92DF92EF92FF920F931F93CF934A
S11327C0DF9300D000D0CDB7DEB75C012A013B0116
S11327D079019A838983C9014DDF6B837C838D835F
S11327E09E833DD346165706680679060CF4B2C09C
S11327F060E1CE01019684D34B815C816D817E8141
S113280089819A814FD229813A81620F731F7A8319
S11328106983F7018681843051F467E373E0CE0164
S11328200196A6D364E0CE0101966AD309C06CE395
S113283073E0CE0101969CD363E0CE01019660D390
S1132840D12CF701818980FBD1F881E09289911123
S113285001C080E080FBD2F8D2FE0DC0F70182A552
S11328608370880F880F880F9D2D977ED92ED82AC4
S113287081A580FBD5F8F70183A594A5892B21F4C4
S113288081A992A9892B11F06894D7F8F70183A93B
S113289094A9892B21F481AD92AD892B11F0689410
S11328A0D6F86D2DCE0101962BD3F70147855089BB
S11328B060E070E0CE0101962DD3F7010781108509
S11328C0218532854385548565857685CE010196BB
S11328D077D3F70182898823B9F0018D128D238D76
S11328E0348D458D568D678D70A1CE01019668D3C8
S11328F0F70101A112A123A134A145A156A167A109
S113290070A5CE0101965CD37D2CDD2064F4F70123
S113291003A514A525A536A547A550A961A972A9A3
S1132920CE0101964DD376FE0CC0F70103A914A97C
S113293025A936A947A950AD61AD72ADCE01019666
S11329403FD369817A816A197B09072E000C880BB1
S1132950990B04C06EEF7FEF8FEF9FEF26960FB6B3
S1132960F894DEBF0FBECDBFDF91CF911F910F91C1
S1132970FF90EF90DF90BF90AF907F906F905F904B
S11329804F900895EF92FF920F931F93CF93DF938D
S113299000D000D0CDB7DEB77C018B015A834983C8
S11329A0CE010196A5D2807F803219F5BE016D5FFC
S11329B07F4F89819A8181D229813A81260F371FDD
S11329C03A8329832B813C8122303105ACF0CE013E
S11329D001968ED287FB882780F9F7018083CE0188
S11329E0019686D2F801808361E070E080E090E097
S11329F003C060E070E0CB0126960FB6F894DEBF0A
S1132A000FBECDBFDF91CF911F910F91FF90EF903B
S1132A1008950F931F93CF93DF931F921F92CDB707
S1132A20DEB79A8389834230510561057105C4F08C
S1132A308C01622F6295607FCE01019661D240E0E5
S1132A4050E0BA0189819A812DD129813A81620F9E
S1132A50731F601B710B072E000C880B990B04C0AD
S1132A606EEF7FEF8FEF9FEF0F900F90DF91CF917D
S1132A701F910F9108952CE0CCCF08952F923F928F
S1132A804F925F926F927F928F929F92AF92BF927A
S1132A90CF92DF92EF92FF920F931F93CF93DF9326
S1132AA0CDB7DEB728970FB6F894DEBF0FBECDBF03
S1132AB03C011B012A0138872F83BA82A9821B8219
S1132AC01C821D821E82CE01019612D2982F907F05
S1132AD0903309F052C083FB992790F9F301908356
S1132AE0982F96959370F10190838170F201808301
S1132AF0BE016D5F7F4F89819A81DFD14B015C01FB
S1132B0069807A80660E771E7A8269828B819C81C5
S1132B10680E791EA301BE016F5F7F4FC801A3D267
S1132B20672B682B692B61F189819A819301281B9A
S1132B30390BC901992324F1F1018081882339F0EB
S1132B40CE010196C2D1EF81F8857183608329811A
S1132B503A81C301821B930B092E000CAA0BBB0BF9
S1132B60F60180839183A283B383F70131832083A9
S1132B70812C912C5401839403C0812C912C5401F9
S1132B80C501B40128960FB6F894DEBF0FBECDBFC1
S1132B90DF91CF911F910F91FF90EF90DF90CF9035
S1132BA0BF90AF909F908F907F906F905F904F9069
S1132BB03F902F900895CF92DF92EF92FF920F9360
S1132BC01F93CF93DF9300D000D0CDB7DEB77C0145
S1132BD06B018A013A832983CE01019689D183FB53
S1132BE0992790F9F601908382958F70F70180837D
S1132BF0BE016D5F7F4F89819A815FD129813A81BE
S1132C00260F371F3A8329832B813C8122303105DB
S1132C1054F0CE01019659D1F8017183608361E0CB
S1132C2070E080E090E026960FB6F894DEBF0FBE09
S1132C30CDBFDF91CF911F910F91FF90EF90DF9067
S1132C40CF9008950F931F93CF93DF93DC01141655
S1132C50150616061706FCF4C0919704D091980443
S1132C60FE0100E010E0980191919C930F5F1F4FCB
S1132C702F4F3F4F4017510762077307A9F7DB0136
S1132C80CA010197A109B1090196C80FD91FD093B0
S1132C909804C0939704CB01BA01DF91CF911F919F
S1132CA00F9108958F929F92AF92BF92CF92DF922D
S1132CB0EF92FF920F931F93FC01812C912C5401EE
S1132CC08A019B010F77112722273078332364F47C
S1132CD0015011092109310900681F6F2F6F3F6FDF
S1132CE00F5F1F4F2F4F3F4F6A017B0177232CF457
S1132CF02FE7C20ED11CE11CF11CB701A601689498
S1132D0016F875956795579547951694D1F7141647
S1132D1015061606170644F42FEF821A920AA20A21
S1132D20B20A00680193CCCFFC01E80DF91D0083C1
S1132D30C501B4016F5F7F4F8F4F9F4F1F910F915C
S1132D40FF90EF90DF90CF90BF90AF909F908F90C7
S1132D5008954F925F926F927F929F92AF92BF922B
S1132D60CF92DF92EF92FF920F931F93CF93DF9353
S1132D701F92CDB7DEB75C018B01DB011D921D9262
S1132D801D921C921397412C512C32014394C12C57
S1132D90D12C7601C3940CC0BFEF4B1A5B0A6B0AAB
S1132DA07B0AE5E04E1651046104710409F444C041
S1132DB041E050E060E070E0CE010196F501199524
S1132DC06130710581059105B9F59980A92DAF7719
S1132DD0B0E0A70196010E948F2DD8012D913D915D
S1132DE04D915C91DC01CB01820F931FA41FB51F91
S1132DF0F80180839183A283B383CC0CDD1CEE1C89
S1132E00FF1CCC0CDD1CEE1CFF1CCC0CDD1CEE1CD2
S1132E10FF1CCC0CDD1CEE1CFF1CCC0CDD1CEE1CC2
S1132E20FF1CCC0CDD1CEE1CFF1CCC0CDD1CEE1CB2
S1132E30FF1C99200CF4B0CFC301B2010F90DF91B5
S1132E40CF911F910F91FF90EF90DF90CF90BF90A3
S1132E50AF909F907F906F905F904F9008950F93E5
S1132E601F938B019C010F5F1F4F2F4F3F4F003863
S1132E701105210531052CF46E5F7F4F8F4F9F4F55
S1132E8019C0011540E41407210531052CF46D5FC8
S1132E907F4F8F4F9F4F0EC00F3F1F4F2F41310564
S1132EA02CF46C5F7F4F8F4F9F4F04C06B5F7F4F3D
S1132EB08F4F9F4F1F910F91089590939804809383
S1132EC0970482E296E145CF0895DC01ED91FC91EF
S1132ED01197608170E0762F66278181680F711DDC
S1132EE0072E000C880B990B3296ED93FC930895F2
S1132EF0DC01ED91FC9111978191ED93FC93089580
S1132F00FC01A081B1816C938081918101969183B0
S1132F1080830895CF93DF93FC01C081D181DB01CD
S1132F20CA01772324F481509F4FAF4FBF4F98833A
S1132F30A081B181CD0101969183808355276627B5
S1132F40707877235CF441505109610971095F6F0E
S1132F506F6F7F6F4F5F5F4F6F4F7F4F11964C9333
S1132F6080819181019691838083DF91CF9108952F
S1132F70EF92FF920F931F93CF93DF938C017B010A
S1132F80EB0109900020E9F72197C61BD70BAE018E
S1132F9060E070E0BFDFAE01B701F801808191818C
S1132FA00E94FD2DF80180819181C80FD91FD18322
S1132FB0C083DF91CF911F910F91FF90EF900895FF
S1132FC0AF92BF92CF92DF92EF92FF920F931F9333
S1132FD0CF93DF93CDB7DEB728970FB6F894DEBF53
S1132FE00FBECDBF5C0109831A832B833C834D83C1
S1132FF05E836F837887CB80DC80ED80FE801C1439
S11330001D041E041F049CF4B701A60183DF6F8115
S11330107885A601F501808191810E94FD2DF5013D
S113302080819181C80ED91ED182C0820BC0698172
S11330307A816115710511F09BDF04C040E050E016
S1133040BA0168DF28960FB6F894DEBF0FBECDBF75
S1133050DF91CF911F910F91FF90EF90DF90CF9070
S1133060BF90AF900895EF92FF920F931F93CF9369
S1133070DF938C01EB017A01888199819A01281BE5
S1133080390B22303105E4F0CB011FDFF8016283F4
S113309073838483958328813981A901460F571F3F
S11330A0E416F50688F03783268328813981620F78
S11330B0731F7983688361E070E080E090E007C06B
S11330C060E070E0CB0103C060E070E0CB01F80188
S11330D011821082DF91CF911F910F91FF90EF9099
S11330E00895CF93DF93CDB7DEB728970FB6F89442
S11330F0DEBF0FBECDBF29833A834B835C836D83D0
S11331007E838F839887E981FA81309749F0DF01C4
S11331100D900020E9F71197BD016E1B7F0B02C0D3
S11331206B817C81072E000C880B990B28960FB6B7
S1133130F894DEBF0FBECDBFDF91CF9108950F93FA
S11331401F93CF93DF93EB01FC01A081B181109712
S113315059F0FD0101900020E9F73197AF014A1BB6
S11331605B0B60E070E007C0FC01A681B78142817F
S1133170538164817581FE0101900020E9F7319744
S11331808F010C1B1D0B20E030E040175107620734
S1133190730761F4BE01CD010E94062E31E020E0E8
S11331A0892B09F030E0632F722F02C060E070E0D9
S11331B0072E000C880B990BDF91CF911F910F9173
S11331C00895BF92CF92DF92EF92FF920F931F93D5
S11331D0CF93DF93CDB7DEB728970FB6F894DEBF51
S11331E00FBECDBFB82EB22FA32FF42FE52F862FFD
S11331F0972F202F312F4B2F5A2F6F2F7E2F71DFB8
S1133200DC01CB010296A11DB11DBC01CD016C0DE9
S11332107D1D8E1D9F1DBB2021F06E5F7F4F8F4F44
S11332209F4F28960FB6F894DEBF0FBECDBFDF9137
S1133230CF911F910F91FF90EF90DF90CF90BF90AF
S113324008953F924F925F926F927F928F929F92D6
S1133250AF92BF92CF92DF92EF92FF920F931F93A0
S1133260CF93DF9300D01F92CDB7DEB74C012A0174
S11332703B01322EB02EAE2CDC82CB829A83898322
S1133280CBA0DCA0EDA0FEA0098D1A8D2B8D3C8D6A
S11332904D8D5E8D6F8D78A18B2D93DF6B017C013D
S11332A0DEDD46165706680679060CF442C060E374
S11332B030FA63F98B2D8370880F697F682BA0FA2D
S11332C060F9CE0101961CDEB701A60189819A81BD
S11332D0E9DC29813A81620F731F7A836983098D3E
S11332E01A8D2B8D3C8D4D8D5E8D6F8D78A1CE0109
S11332F0019666DEBB2041F08B819C81AC0160E0CD
S113330070E0CE01019606DE4BA15CA169A17AA111
S113331089819A810E94FD2D69817A818BA19CA16A
S1133320680F791F68197909072E000C880B990B0F
S113333004C06EEF7FEF8FEF9FEF0F900F900F9011
S11333400F90DF91CF911F910F91FF90EF90DF903D
S1133350CF90BF90AF909F908F907F906F905F9031
S11333604F903F900895EF92FF920F931F93CF9346
S1133370DF931F921F92CDB7DEB7FC019A83898336
S113338044305105610571056CF1622F6295607FCF
S113339000FB63F991E0263009F090E08F0193700F
S11333A0990F697F692BCE010196AADD42E050E0B6
S11333B060E070E089819A8175DC29813A81620F2D
S11333C0731F7A836983A70160E070E0CE010196E0
S11333D0A1DD69817A81601B710B072E000C880BBB
S11333E0990B04C06EEF7FEF8FEF9FEF0F900F905C
S11333F0DF91CF911F910F91FF90EF9008954F921D
S11334005F926F927F928F929F92AF92BF92CF9270
S1133410DF92EF92FF92CF93DF93161617061806EA
S1133420190654F52B013C01C42FD52FC12CD12CE6
S11334307601812C912C5401689481F8288139817A
S11334404A815B816C817D818E819F814ADEDC01B2
S1133450CB010396A11DB11D880E991EAA1EBB1E89
S11334608FEFC81AD80AE80AF80A28964C145D04A3
S11334706E047F0419F705C0812C912C54016894C3
S113348081F8C501B401DF91CF91FF90EF90DF90F7
S1133490CF90BF90AF909F908F907F906F905F90F0
S11334A04F9008952F923F924F925F926F927F9226
S11334B08F929F92AF92BF92CF92DF92EF92FF9240
S11334C00F931F93CF93DF93CDB7DEB728970FB633
S11334D0F894DEBF0FBECDBF9C838B834D835E8388
S11334E06F837887722E160127019A8389834A2D68
S11334F05B2DC701B60183DF6B017C01B0DC2D813C
S11335003E814F81588526173707480759070CF421
S113351051C060E870FA63F9697F6260CE01019678
S1133520EFDCB701A60189819A81BCDB29813A814C
S1133530620F731F7A836983A80160E070E0CE0193
S11335400196E8DC121413041404150444F5EA2C5F
S1133550FB2C682C792C812C912C5401F7010081CF
S11335601181228133814481558166817781CE0125
S1133570019626DDF3016081F4E06F0E711CCE012B
S11335800196BEDC2FEF821A920AA20AB20A38E030
S1133590E30EF11C281439044A045B04F9F669812A
S11335A07A814B815C81641B750B072E000C880BA0
S11335B0990B04C06EEF7FEF8FEF9FEF28960FB645
S11335C0F894DEBF0FBECDBFDF91CF911F910F9155
S11335D0FF90EF90DF90CF90BF90AF909F908F902F
S11335E07F906F905F904F903F902F9008954F92EF
S11335F05F926F927F928F929F92AF92BF92CF927F
S1133600DF92EF92FF920F931F93CF93DF9300D03B
S113361000D0CDB7DEB74C012A013B016901FA8223
S1133620E982CE01019664DC807F803909F05EC0B6
S1133630BE016D5F7F4F89819A813FDCA980BA808A
S1133640A60EB71EBA82A9822B813C814D815E8170
S1133650223031050CF45AC0A20EB31ECE010196DD
S113366034DCF40171836083F601108211821282CA
S1133670138289819A818A159B05E0F577200CF4E1
S11336803EC080E090E0DC010AC0F60180819181B7
S1133690A281B381481659066A067B06A4F1AC01DF
S11336A0BD014F5F5F4F6F4F7F4FF60140835183E2
S11336B062837383880F991F880F991F7801E80E1E
S11336C0F91ECE01019614DC90E0A0E0B0E0F70111
S11336D080839183A283B38389819A818A159B0510
S11336E0A0F261E070E080E090E010C060E070E083
S11336F0CB010CC061E070E080E090E007C06FEFA8
S11337007FEFCB0103C06FEF7FEFCB0126960FB69F
S1133710F894DEBF0FBECDBFDF91CF911F910F9103
S1133720FF90EF90DF90CF90BF90AF909F908F90DD
S11337307F906F905F904F900895CF92DF92EF92B9
S1133740FF920F931F93CF93DF93EC018B016901D9
S11337507A0188819981AA81BB81880F991FAA1F48
S1133760BB1F880F991FAA1FBB1F0196A11DB11D66
S1133770880F991FAA1FBB1F880F991FAA1FBB1F61
S1133780880F991FAA1FBB1FBC01CD017D5F8F4FFE
S11337909F4F0E947A06873159F488810E94BD08A0
S11337A0892B51F0A601B80188810E94820507C0C7
S11337B060E070E0CB0103C060E070E0CB01DF911A
S11337C0CF911F910F91FF90EF90DF90CF900895CC
S11337D0CF92DF92EF92FF920F931F93CF93DF93D9
S11337E0EC018B0169017A0188819981AA81BB81ED
S11337F0880F991FAA1FBB1F880F991FAA1FBB1FE1
S11338000196A11DB11D880F991FAA1FBB1F880F08
S1133810991FAA1FBB1F880F991FAA1FBB1FBC019A
S1133820CD017D5F8F4F9F4F0E947A06873131F41F
S1133830A601B80188810E94770403C060E070E0AB
S1133840CB01DF91CF911F910F91FF90EF90DF900B
S1133850CF900895FC0180810C94F5030895CF92D4
S1133860DF92EF92FF92FC01C480D580E680F7805E
S113387057D3A7019601261B370B480B590BDA01C6
S1133880C9018827B7FD83959927AA27BB27FF90ED
S1133890EF90DF90CF900895CF92DF92EF92FF9256
S11338A0CF93DF93EC016A017B013AD3C60ED71E96
S11338B0E81EF91ECC82DD82EE82FF82DF91CF9179
S11338C0FF90EF90DF90CF9008958F929F92AF92E8
S11338D0BF92CF92DF92EF92FF92CF93DF93EC01EE
S11338E04A015B011DD36B017C01A8EEB3E0A50185
S11338F094010E948F2DC60ED71EE81EF91ECC829D
S1133900DD82EE82FF82DF91CF91FF90EF90DF9016
S1133910CF90BF90AF909F908F900895CF92DF92F9
S1133920EF92FF92FC01C480D580E680F780F8D244
S1133930A7019601261B370B480B590BCA01B90185
S11339401AF460E070E0CB01FF90EF90DF90CF902D
S11339500895FC0114821582168217820895FC01D1
S11339608DE99BE19583848388EE9BE1978386832D
S11339708AE29CE1918780870895EF92FF920F93EA
S11339801F93CF93DF93EC018B017A0120E049E38D
S113399050E361E088810E941402A701B801888184
S11339A00E94160360E070E0CB01DF91CF911F917C
S11339B00F91FF90EF9008951092940608955E98E9
S11339C008955E9A08951EBC0DB407FEFDCF8EB512
S11339D008958EBD0DB407FEFDCF089561157105E0
S11339E061F0FC01680F791F1EBC0DB407FEFDCF0A
S11339F09EB59193E617F707B9F708956115710518
S1133A0059F0FC01680F791F91919EBD0DB407FE1A
S1133A10FDCFE617F707C1F70895CF93DF938091A1
S1133A209406811124C0C091B905CC2301F14C2F17
S1133A3050E06AEB75E087E296E00E94FD2DE5E92F
S1133A40F6E016821582D1E0D783D08782E08187A1
S1133A5087E296E093878287C4878CED9CE1968702
S1133A608587CF013FD61092B905D0939406DF9194
S1133A70CF910895D2CF089580919F04811122C0DF
S1133A8081E090E0ECD588E790E0F0D58FE00E94EB
S1133A905A2B81E00E94562B65E17FE181E0EDD550
S1133AA0E6EAF6E084E190E0A0E0B0E08683978364
S1133AB0A087B18712868AE39DE19487838781E09A
S1133AC080939F040895FF920F931F93CF93DF93E6
S1133AD08C01892BC9F0C0E0D0E0CED4F82E8091BF
S1133AE0B9058D3609F499DFE091B905ED3640F456
S1133AF081E08E0F8093B905F0E0E654FA4FF0822E
S1133B0021960C171D0749F786EA96E00E94A02C1F
S1133B1086EA96E00E94F72CDF91CF911F910F91D6
S1133B20FF900895CF93DF93EC018881882329F0D7
S1133B3021967BD489918111FCCFDF91CF91089597
S1133B40AF92BF92CF92DF92EF92FF920F931F93A7
S1133B50CF93DF93CDB7DEB7C157D1400FB6F894FA
S1133B60DEBF0FBECDBF2091B4023091B5023A83BF
S1133B702983FE0133964EE3DF011D924A95E9F74E
S1133B808E010F5B1F4FF8013183208332964EE77D
S1133B90DF011D924A95E9F77E01B1ECEB0EF11CB1
S1133BA0F701219331932AEADF011D922A95E9F75F
S1133BB0FC01A080B1800280F381E02D4281538119
S1133BC0668177819E012F5F3F4F6901C9010E9481
S1133BD0142ED50117964D915C91189715966D91F9
S1133BE07C911697C8010E94142E1F930F93DF92A5
S1133BF0CF928DE892E09F938F93FF92EF920E9471
S1133C00642EC7018FDF63E473E0C8010E94232E92
S1133C100FB6F894DEBF0FBECDBF892B09F467C081
S1133C20CE018F589E4F9F938F9304979F938F93AA
S1133C3002969F938F9382E593E09F938F93C8019D
S1133C409F930F930E94922E0FB6F894DEBF0FBE7F
S1133C50CDBF039709F048C0C159DE4F88819981CF
S1133C60CF56D140FCD4C359DE4F88819981CD56BB
S1133C70D140FCD4CF58DE4F8881C157D1400E9437
S1133C805A2B00581F4FD8011C92CF58DE4F888101
S1133C90C157D1401F928F93C259DE4F8881CE56AF
S1133CA0D1408F93C359DE4F8881CD56D1408F9335
S1133CB0C059DE4F8881C057D1408F93C159DE4F20
S1133CC08881CF56D1408F9385E592E09F938F935F
S1133CD01F930F930E94642EC80124DF0FB6F8943B
S1133CE0DEBF0FBECDBF03C083E993E01BDFCF5817
S1133CF0DE4F0FB6F894DEBF0FBECDBFDF91CF917C
S1133D001F910F91FF90EF90DF90CF90BF90AF90F5
S1133D100895AF92BF92CF92DF92EF92FF920F93EA
S1133D201F93CF93DF93CDB7DEB729970FB6F894DF
S1133D30DEBF0FBECDBF8C017B016A015901A8957E
S1133D4080919B0490919C04A0919D04B0919E0449
S1133D500196A11DB11D80939B0490939C04A09394
S1133D609D04B0939E04BF93AF939F938F9381E47C
S1133D7092E09F938F930E943D2E198280919E2101
S1133D8090919F219C012F5F3F4F30939F2120935F
S1133D909E219D838C83B986A886DF82CE82AE0164
S1133DA04F5F5F4FB701C8010E9428120F900F9018
S1133DB00F900F900F900F90672B682B692B59F47D
S1133DC010929A0489E392E09F938F930E943D2E70
S1133DD00F900F9019C08EE292E09F938F930E94F0
S1133DE03D2E80919A0491E0980F90939A040F903D
S1133DF00F90853148F081EF91E09F938F930E945B
S1133E003D2E0F900F90FFCF29960FB6F894DEBF8A
S1133E100FBECDBFDF91CF911F910F91FF90EF9017
S1133E20DF90CF90BF90AF9008950F931F93CF93DF
S1133E308C01E9E3F5E01082DC0118968C91189767
S1133E408F9317968C918F9380E491E09F938F9337
S1133E50FF93EF930E94642E9C0149E355E06FEBBE
S1133E6073E080E095E055DF0F900F900F900F9076
S1133E700F900F90F8018185882379F0C0E0D80174
S1133E801796ED91FC911897EC0FF11D8081CDD21E
S1133E90CF5FF8018185C81790F381E0CF911F911E
S1133EA00F910895CF93DF931F921F92CDB7DEB782
S1133EB08091C9239091CA23009711F09C0102C0FC
S1133EC024ED33E2CE010196821B930B0F900F90E9
S1133ED0DF91CF9108951F920F920FB60F92112484
S1133EE08F939F93AF93BF9380919A1F90919B1F41
S1133EF0A0919C1FB0919D1F0196A11DB11D80939F
S1133F009A1F90939B1FA0939C1FB0939D1FBF91DA
S1133F10AF919F918F910F900FBE0F901F901895A6
S1133F20F89460919A1F70919B1F80919C1F9091AF
S1133F309D1F78940895CF93DF93CDB7DEB728976C
S1133F400FB6F894DEBF0FBECDBF88E0E4EFF2E019
S1133F50DE01119601900D928A95E1F761EE7CE104
S1133F608FED9CE10E942E0A69EE7CE183EE9CE1D8
S1133F700E94450A6EEF7CE18EEE9CE10E94650A88
S1133F80BE016F5F7F4FCB010E94F10A82E292E093
S1133F900E94600B28960FB6F894DEBF0FBECDBF0B
S1133FA0DF91CF91089582E084BD83E085BD89EFE0
S1133FB087BDEEE6F0E08081826080830895CF9330
S1133FC0DF93CDB7DEB7C85BD1090FB6F894DEBF77
S1133FD00FBECDBF99E288E10FB6F894A8958093FF
S1133FE060000FBE90936000A895DDDF60E076E985
S1133FF080E090E0C5D16ED178940E942B2C00EA29
S113400014E0F801108281EA92E09F938F938EEE80
S113401091E09F938F931F930F930E94642EC80186
S113402081DD89DF82E090E0A0E0B0E0A9968CAF6A
S11340309DAFAEAFBFAFA997F8011082EEE1F2E0F9
S113404083811F928F9382811F928F9381811F920C
S11340508F9380811F928F938CEB91E09F938F932A
S11340601F930F930E94642EC8015CDDCE018B590F
S11340709F4F75DC4BE557E06EE172E0CE018B5942
S11340809F4F7BDCA12C6894BB24B1F80F2EFEE972
S1134090CF2EFFE1DF2EF02D0F2EF4E6EF2EF12CC4
S11340A0F02D8E010F5F1F4F28EE33E040E050E00B
S11340B0BE016B597F4F80E095E00E94220C8BE398
S11340C0ECEFF2E0DE01A159BF4F01900D928A9509
S11340D0E1F7CF57DF4F1882C158D04084E0E6960D
S11340E08FAFE69789E592E0E8969FAF8EAFE897A9
S11340F089E392E0C656DF4F99838883CA59D0403A
S113410080EE94E0CE55DF4F99838883C25AD04025
S11341108CE390E0C258DF4F99838883CE57D04018
S113412081E0C058DF4F8883C058D040BE01615938
S11341307F4F80E095E00E9468100FB6F894DEBFD0
S11341400FBECDBF611571058105910509F050C001
S113415000EA14E0F80110821F921F921F921F922E
S11341608CE991E09F938F931F930F930E94642E89
S1134170C801D8DC7E01FAEAEF0EF11C8FE0EFEB08
S1134180F3E0D70101900D928A95E1F720EA3DE131
S113419040E0B70180E095E00E942311F80110820D
S11341A09F938F937F936F93FF92EF9287E891E0B1
S11341B09F938F931F930F930E94642EC801B2DCC8
S11341C0AFDE4B015C010FB6F894DEBF0FBECDBF6E
S11341D078010F2EF8EE4F2EF3E05F2E612C712C38
S11341E0F02D0F2EF3E4CF2EF1E0DF2EF02D18C0CA
S11341F0E0EAF4E010829F938F937F936F9389E6B4
S113420091E09F938F93FF93EF930E94642E80EA33
S113421094E088DC0FB6F894DEBF0FBECDBFFFCFAD
S113422007E010E00E94322CC0D126DC01501109B5
S1134230C9F7A89507E010E00E94322CB6D11CDC27
S113424001501109C9F76CDEDC01CB018819990909
S1134250AA09BB09893E9340A105B10590F160DE2E
S11342604B015C01809199048F5F843118F4809331
S1134270990427C010929904F701108213DE182FB5
S1134280092F4EDE0F931F93A30192010E946D2DFF
S11342905F934F933F932F93DF92CF92FF92EF92CE
S11342A00E94642E0FB6F894DEBF0FBECDBF181661
S11342B019063CF49C01A7016FEB73E080E095E0E4
S11342C028DD44E650E060E070E080E095E00E9484
S11342D0F00FA6CF569A5E9A84B1866084B985B1F0
S11342E0866085B9549A80E58CBD1DBC089514BEC2
S11342F00FB6F894A895809160008861809360005F
S1134300109260000FBEE1E6F0E080E88083108246
S1134310789401C008951092A02380E197E29093CD
S1134320A9008093A800E1EAF0E088E0808380811E
S113433082608083E2E7F0E0808182608083089578
S11343401F920F920FB60F9211248F938091A02386
S11343508F5F8093A0238F910F900FBE0F901F90BB
S113436018951F920F920FB60F9211248F9381E02C
S11343708093B3068F910F900FBE0F901F901895E6
S1134380DC01CB01880F991FAA1FBB1F880F991F3F
S1134390AA1FBB1F9C01AD01220F331F441F551FD1
S11343A0220F331F441F551F60E074E284EF90E036
S11343B00E946D2DBA01A901415051096109710989
S11343C0BB27A72F962F852F8093CD004093CC0039
S11343D082E08093C80088E98093C90086E08093D6
S11343E0CA00E2EEF9E081E598E09187808780E9F0
S11343F091E095838483178216821182108213823E
S11344001282E7E4F8E026EB36E0318720879583D3
S1134410848317821682118210821382128281E0B1
S11344208093B5061092B4060895CF93DF93E2EE1D
S1134430F9E0268137816481758126173707C9F031
S1134440C085D18542815381DA011196B383A28359
S1134450FE01E40FF51F80836A177B0721F4109295
S1134460E5091092E4092F5F3F4F3093E909209347
S1134470E809DF91CF9108954FB7F894E7E4F8E0A5
S11344802085318580819181BC016F5F7F4F71836D
S11344906083D901A80FB91F8C9160817181248137
S11344A035816217730721F4109248081092470867
S11344B0E7E4F8E0268137812150310937832683E8
S11344C04FBF08951F920F920FB60F9211240BB68F
S11344D00F928F93EF93FF9381E08093B506E9ECFD
S11344E0F0E080818F7D8083FF91EF918F910F9019
S11344F00BBE0F900FBE0F901F9018951F920F9236
S11345000FB60F9211240BB60F922F933F934F9334
S11345105F936F937F938F939F93AF93BF93EF9327
S1134520FF938091C8002091CE008C7159F5E7E487
S1134530F8E046815781848195814817590711F124
S11345404085518582819381BC016F5F7F4F738366
S11345506283DA01A80FB91F2C93228133818481ED
S113456095812817390721F410924A0810924908B6
S1134570E7E4F8E08681978101969783868381E05A
S11345808093B406FF91EF91BF91AF919F918F916A
S11345907F916F915F914F913F912F910F900BBE3F
S11345A00F900FBE0F901F9018958091E80990917D
S11345B0E909009769F12091B506222349F1E2EE59
S11345C0F9E06085718520813181A9014F5F5F4FDA
S11345D051834083DB01A20FB31F2C916481758149
S11345E04617570721F41092E3091092E209019744
S11345F09093E9098093E8099FB7F8942093CE003B
S1134600E9ECF0E08081806280831092B5069FBF60
S11346102FB7F8949091B4061092B40640914D08C7
S113462050914E082FBF992311F0CA014CCA089526
S1134630E1EAF3E2148215821182108217A216A213
S1134640E7EAF3E287EC93E211921192E817F90793
S1134650D9F742D660D30DD140D092C1089590933A
S1134660A2238093A1230C94702B08959093A423E8
S11346708093A3230C945E2B0895E82FF0E0EE0FB3
S1134680FF1FE955FC4D7183608308958BD320D7B8
S11346904DC00895E091EC09F091ED093097D9F0FF
S11346A0228133818217930789F405C022813381E3
S11346B02817390759F4DC01AD57BF4F2C912787D0
S11346C013962C91208B22E0248305C00190F08165
S11346D0E02D309759F711C108951092ED09109209
S11346E0EC090895FC011482178613821282A1EA50
S11346F0B3E296968D919C919797019697969C9389
S11347008E9396978091EC099091ED09009739F476
S113471011821082F093ED09E093EC0908959183DE
S11347208083F093ED09E093EC0908950F931F93B0
S1134730CF93DF93E091EC09F091ED09309709F400
S113474093C0EF018C81882321F0823009F466C084
S113475085C09AD08C01009721F482E08C838F87E6
S113476083C09B838A8381E08C83F801E957FF4FE0
S11347708AE493E2918380833197898582FB882739
S113478080F980839985D8011B968C911B9790FBA7
S113479080F91B968C931B97998593FB992790F925
S11347A090FB82F91B968C931B97E1EAF3E28481D8
S11347B08F5F84831C968C931C97808191811E96B5
S11347C09C938E931D978D819E8150969C938E937E
S11347D01F978885982F9F7051968C915197807F51
S11347E0892B51968C9351979F819295907F8F70CE
S11347F0892B51968C93F801EF57FF4F4C8550E06D
S11348006A857B85808191810E94FD2DF8019181CB
S11348108C85890F8183C80182D526C0EC17FD07DA
S113482041F4808191819093ED098093EC090AC051
S1134830FC01808191818C179D07D1F78881998132
S113484091838083E1EAF3E286A197A1019797A37C
S113485086A3ED85FE85CE01199506C00990D88101
S1134860C02D209709F06ECFDF91CF911F910F914A
S11348700895EEEEF9E08CEF99E11082E757FF4FCF
S1134880E817F907D1F708958091EE09882359F0C4
S1134890E7E7FAE06CEF79E181E090E0AC01208198
S11348A0211122C002C040E050E069E8649F9001F9
S11348B0659F300D1124C9018251964FFC0111925C
S11348C06A95E9F740E1FC014183EF57FF4F20501F
S11348D0364F31832083E1EAF3E226A137A12F5F2B
S11348E03F4F37A326A308950196E757FF4FE617D6
S11348F0F707A1F680E090E00895FC011082E1EA58
S1134900F3E286A197A1019797A386A30895009740
S113491041F0FC01E757FF4F89E1EC3FF80718F03D
S113492012C0EEEEF9E08081882321F00FC080816F
S113493081110FC0E757FF4F89E1EC3FF807B8F347
S113494080E090E0089580E090E008958E2F9F2FFE
S113495008958E2F9F2F0895FC01DC01AD57BF4FA2
S11349601C92A1EAB3E214969C9114979F5F14964B
S11349709C93149794878D919C919687858708952D
S1134980ADEFB9E180E090E04FEF5FEF11965C93FB
S11349904E93FC01EE0FFF1FEE0FFF1FEE0FFF1FE4
S11349A0E81BF90BE450F64E20812E7F20831496E9
S11349B01C921497019617968436910539F7089539
S11349C00F931F93CF93DF93EDEFF9E120E030E0F5
S11349D0062F10E04081518148175907B1F4D901DD
S11349E0AA0FBB1FAA0FBB1FAA0FBB1FA21BB30B8F
S11349F0A450B64E4C9146954170C42F40E0D42F3C
S1134A00C017D10711F4CD0108C02F5F3F4F37966F
S1134A1024363105F9F680E090E0DF91CF911F91C3
S1134A200F910895A0E0B0E0ECEFF9E1808180FD02
S1134A300DC08581882381F0109739F015969C91DB
S1134A401597891718F4DF0101C0DF0137968CE14F
S1134A50E83BF80759F7FD0180818D7080638083FE
S1134A6080E88583CF010895FC01808180FD05C025
S1134A708FEF9FEF9283818315820895A1DF0097C2
S1134A8021F0FC018381948108958FEF9FEF0895B5
S1134A9097DF009709F0E8CF08950F931F93CF9302
S1134AA0DF93FC010185128511232CF485859685FD
S1134AB008171907E1F5858196810196C1F1EF0187
S1134AC060E0858596857CDFFC01892BA1F08F81D0
S1134AD098850196F9F42091A1233091A2238F8522
S1134AE0988928173907B1F41483038380818F7060
S1134AF0806380830AC096DFFC018D859E85928346
S1134B00818389859A8594838383CD57DF4F8881F8
S1134B1086830DC08381948108171907B1F39681A8
S1134B20DE01AD57BF4F8C919817F0F2EECFDF91B5
S1134B30CF911F910F910895CF93DF93FC01878547
S1134B4090898F3F2FEF9207D9F1EF01638563FBC3
S1134B50662760F935DFDC01892B91F18C9180FDAA
S1134B602FC0FE01ED57FF4F8081811119C08C9138
S1134B708F7080638C9315968C9115978F5F159623
S1134B808C938F3FE9F4E1E0FAE12DEB3CE1808185
S1134B9086958F5F80833796E217F307C1F710C0BD
S1134BA09C91892F82958F70815F8F70282F229519
S1134BB0207F9F70922B9C93811102C0CD0154DF02
S1134BC0DF91CF910895CF93DF93FC01878590897E
S1134BD08F3F2FEF920729F48FEF9FEF9087878302
S1134BE00EC0238522FF03C09087878308C0EF018E
S1134BF0638563FB662760F941DF98878F83DF91C4
S1134C00CF910895AF92BF92CF92DF92EF92FF922D
S1134C101F93CF93DF93EC011B8513FB112710F92E
S1134C20CF84D888612FC60129DF019659F0FE018F
S1134C30E957FF4F11821082319782E08083CE01C1
S1134C406ED322C0AD84BE841FDE7C010097D1F0F8
S1134C5083DEF70181818A5F8183E957FF4F1182E7
S1134C601082F701B08AA786EF57FF4F0190F081B9
S1134C70E02D81E08083B282A182D482C382158335
S1134C80C7014DD3CE0139DEDF91CF911F91FF9043
S1134C90EF90DF90CF90BF90AF900895FC012185F5
S1134CA0263049F40780F085E02D65818381948165
S1134CB0EFDE81E0089580E00895DC0119962C91DF
S1134CC01997222371F01796ED91FC911897208182
S1134CD0222319F0213019F006C0B2C30895DECFA3
S1134CE0089580E0089580E00895BC01EAECFCE1B9
S1134CF02CEF3CE140E051E09081992319F0915070
S1134D009083452F3596E217F307B1F7442311F04A
S1134D10CB016DC60895EAECFCE18CEF9CE11082B6
S1134D203596E817F907D9F7E8EBFCE184E690E05B
S1134D30A0E0B0E086839783A087B187128685E7D9
S1134D4096E2948783876DE576E280E096CC0895B9
S1134D50CF93DF93DC01ED91FC91119721812838E9
S1134D60F1F420812F7D2134D1F412962C9120313D
S1134D70B0F0EC0189DD009791F020E2FC01208382
S1134D802A8121832B81ED57FF4F20832C8131967B
S1134D9020834A8150E06881798102962ED7DF9181
S1134DA0CF9108952F923F924F925F926F927F928C
S1134DB08F929F92AF92BF92CF92DF92EF92FF9227
S1134DC00F931F93CF93DF93CDB7DEB72C970FB616
S1134DD0F894DEBF0FBECDBF00E010E00F2EF4E26A
S1134DE0BF2EF02D0F2EF1EAEF2EF3E2FF2EF02D61
S1134DF0552453946894AA24A4F86894772473F8E7
S1134E006894662462F8312C212C0F2EFFE14F2E7A
S1134E10F02DCC24C394D12CDAC1D8018C918232E8
S1134E2009F405C118F4803241F0D1C1833209F488
S1134E30C9C1843209F4C9C1CAC1F801B0828385E9
S1134E40982F9A7009F0C3C1258136812F3F3F4FB7
S1134E5091F4D8011F968D919C915097F701208170
S1134E6031812817390719F0019609F0B0C1E2E23F
S1134E70D801EC93ACC1D8011F962D913C91509769
S1134E802F3F3F4F11F480FDA2C1F70120813181F2
S1134E90D8011D968D919C911E972817390709F406
S1134EA096C1C801FADDE6ECFCE180E090E0832CD9
S1134EB0922C9C014481442309F474C0D8011D96AA
S1134EC06D917C911E97408151816417750709F09B
S1134ED06AC01C968C911C97F901EE0FFF1FEE0F10
S1134EE0FF1FE20FF31FEA53F34E9281981B983091
S1134EF008F03EC0F901EE0FFF1FEE0FFF1FE20F97
S1134F00F31FEA53F34E8381482F50E0092E02C069
S1134F10559547950A94E2F740FF17C0F7012081A1
S1134F20318117968D919C9118972817390709F0AC
S1134F304EC11B966C911B9763FB662760F91F9605
S1134F408D919C915097A4DD42C1F901EE0FFF1F92
S1134F50EE0FFF1F2E0F3F1FF901EA53F34E960188
S1134F6002C0220F331F9A95E2F7822B838336C146
S1134F70F901EE0FFF1FEE0FFF1F2E0F3F1FF90168
S1134F80EA53F34E82838381282F30E09195A9015F
S1134F9002C0440F551F9A95E2F7CA0181608383CA
S1134FA044821CC14F01019635968A30910509F05F
S1134FB080CF8114910409F40AC1D8011D968D9102
S1134FC09C911E97F401918380831C968C9182831B
S1134FD05382448288EB9CE10AD500C1D7012D910C
S1134FE03C91F801878590892817390781F043851A
S1134FF042FD0BC0C801E1D1D7012D913C91F801CC
S1135000878590892817390711F0019621F4E2E287
S1135010D801EC93DCC0D80117968D919C91189718
S11350208217930709F0D3C0E3E2EC93D0C0109247
S1135030C51CD80151968C91519782958F70E82F99
S1135040F0E0EE0FFF1FE955FC4D0190F081E02DDB
S1135050309709F460C01D962D913C911E973A83B8
S113506029831F964D915C9150975C834B83519695
S11350709C9151979F709D838E83AF57BF4F8D91A5
S11350809C9199878887B8016E5F7F4F861B970B29
S1135090D80111969C911197981B9A87AD57BF4FD1
S11350A08C918B8711968C918C87D8011B969C913F
S11350B0692F637092FD02C080E001C080E2862BFC
S11350C093FD02C090E001C090E4892B4F3F5F4FF5
S11350D011F090E001C0962D892BD80119964D91BD
S11350E05C911A972417350711F090E001C0972DB1
S11350F0892B8F83D80115962D913C9116972F3FBC
S11351003F4F11F090E001C09A2D892B8F83CE017F
S11351100196199501C080E0F801938590FF80E025
S1135120D80117962D913C9118972F3F3F4F69F462
S1135130F70140815181D8011F962D913C915097E0
S11351404217530711F493FF852DF8012581368109
S11351502F3F3F4FA1F1D7012D913C912F3F3F4F5E
S113516071F1882361F190DB4C01009741F1F4DB8C
S1135170F40181818D5F8183E957FF4F1182108291
S1135180D8011B968C911B9786958170F4019385A9
S113519080FB91F993871D968D919C911E97908B1E
S11351A08787EF57FF4F0190F081E02D10828091A7
S11351B0C51C82831C968C918183C401B0D0D80114
S11351C0BC9205C0C8011EDD02C0C80196DBC8013F
S11351D09EDB8C01892B09F020CE07C0F801878162
S11351E09085019609F008CFF9CE2C960FB6F89465
S11351F0DEBF0FBECDBFDF91CF911F910F91FF9006
S1135200EF90DF90CF90BF90AF909F908F907F9062
S11352106F905F904F903F902F900895EF92FF9280
S11352200F931F93CF937C0110E080E090E001E0A6
S1135230C3E113C0FC012081213179F4EC57FF4F05
S1135240208131812150310931832083232B21F4A2
S1135250FC01C083102F01C0102F59DB009751F7B8
S1135260112311F0C701C3D3CF911F910F91FF9068
S1135270EF900895EF92FF920F931F93CF93DF93D4
S11352807C0110E080E090E001E0D7E1C0E116C0CD
S1135290FC012081263191F4EC57FF4F20813181AC
S11352A02150310931832083232B39F4FC01D0832D
S11352B0ED57FF4FC083102F01C0102F28DB00973C
S11352C039F7112311F0C70192D3DF91CF911F91C8
S11352D00F91FF90EF9008951092131D1092121DDC
S11352E0E5E0FDE182E390E0A0E0B0E0868397830F
S11352F0A087B18712868AE399E294878387E8EFCF
S1135300FCE18AE090E0A0E0B0E086839783A08788
S1135310B18712868EE099E2948783870895CF93AC
S1135320DF93EC01FC01EA57FF4F808181FF03C04A
S113533092E1988302C092E19883FE01ED57FF4FFA
S1135340108280FF05C02FEF3FEF3E832D8306C000
S11353502091A3233091A4233E832D83857019F4D7
S1135360CE0131DC04C08F85988998878F83E1EA68
S1135370F3E2808191819A87898785818F5F858314
S11353808C838F819885019669F481E498E89B83E6
S11353908A8325D4CC57DF4F877099270196998348
S11353A0888308C081E698E89B838A83CC57DF4FC3
S11353B019821882DF91CF9108950F931F93CF9391
S11353C0DF938C0161DAEC01892BA9F182E18883F6
S11353D0F80181818983FE01ED57FF4F1082FFD3CD
S11353E0FE01EC57FF4F87709927019691838083C4
S11353F0339611821082F801418150E0B8016E5F4A
S11354007F4FCE010296F9D381E498E89B838A8387
S11354108FEF9FEF98878F83F801858196819E8314
S11354208D83E1EAF3E2808191819A87898785817E
S11354308F5F85838C83DF91CF911F910F910895A6
S1135440CF93DF93FC0121852330D9F410C0FC01F4
S11354502081263189F43485298132130DC027E156
S113546020832A81EA57FF4F208381E00BC0FC018F
S1135470C781D08580E090E04ADA009741F780E068
S113548001C080E0DF91CF910895E091121DF09169
S1135490131D813021F048F0823019F004C080E2FD
S11354A005C081E203C081E001C080E0DF01AD57A7
S11354B0BF4F8C9385E180831092131D1092121DAF
S11354C0E1EAF3E286A197A1019797A386A3089541
S11354D09F92AF92BF92CF92DF92EF92FF920F937F
S11354E01F93CF93DF93C0E0D0E00F2EF4E1AF2EF3
S11354F0F02D01EA13E20F2EF7E1DF2EF02D0F2E2F
S1135500F6E19F2EF02D0F2EF9E2EF2EF12CF02D67
S11355100F2EF3E1CF2EF02D0F2EF1E1BF2EF02D43
S113552060C088818331C1F018F4823139F059C0E8
S1135530853149F1873109F445C053C0FE01EC5768
S1135540FF4F80819181892B29F0B88288EF9CE1FB
S11355504ED247C0C88245C08091121D9091131D40
S1135560892B09F03EC0D093131DC093121DA8824D
S11355706981CE010296CBD0F80186A197A101964C
S113558097A386A32EC0FE01ED57FF4F80818111A2
S113559017C02D853E85F801808191812817390730
S11355A069F48B8580FF0AC09882FE01EC57FF4F97
S11355B0F182E08285E09DE11AD213C0D88211C045
S11355C0D8820FC0CE01B8DAFE01E957FF4F01902F
S11355D0F081E02D309719F4CE018FD902C0CE01AD
S11355E01995CE0194D9EC01892B09F09ACFDF915A
S11355F0CF911F910F91FF90EF90DF90CF90BF90CC
S1135600AF909F9008958091141D982F9F70E4E5AA
S1135610F1E08081807F892B80838091141D882311
S113562029F08091151D8093530108958091151DD3
S1135630982F9F71E8E4F1E08081807E892B80833C
S1135640089593E090934201E1E4F1E090819F7129
S11356509830E1F780934201E1E4F1E090819F7199
S11356608913FCCF089588E0ECDF8FEF80934F011E
S11356708091161D882311F086E1E3CF0895E9E3B4
S1135680F1E08081816080831092161D1092141DB8
S113569081E08093971D88E0D4DF8BEE80935601E0
S11356A0ECE4F1E080818068808308958093161D86
S11356B0DACF08958093151DA6CF0895CF93DF9375
S11356C01F921F92CDB7DEB79A83898380936201BC
S11356D08A81809363010F900F90DF91CF91089599
S11356E0CF93DF931F921F92CDB7DEB79A8389833E
S11356F0809360018A818093610199818A81890FF5
S113570080936D010F900F90DF91CF9108951F93B7
S1135710CF93DF93182FD92FC62F89E192DF8FEF14
S113572080934F0182E08C0F80938001CC2371F031
S1135730A12FBD2FC1506C2F70E06E577E4FE1E852
S1135740F1E08D918193E617F707D9F783E0809311
S1135750971D82E080934201DF91CF911F910895BC
S11357601F93CF93DF9300D01F921F92CDB7DEB764
S11357708091971D823009F465C080914F0183FFA9
S11357803EC0A0917B016A2F70E0AB014F5F5F4F79
S113579080E090E020E0FC01E058FE4F3081FC0105
S11357A0E95EF24E30832F5F822F90E084179507D5
S11357B094F387E19DE19A838983A250AB83FB0133
S11357C0E95EF24E80818C83809147018A558D83F6
S11357D0CE010196BDDAE1E4F1E080818F7186317A
S11357E0E1F7EFE4F1E0808188608083ECE4F1E0AC
S11357F080818F77808380818068808323C08091BB
S11358004F0186FF1FC0809141018F718931A9F436
S11358101091420112951695177049F0133021F03A
S1135820153021F013E003C011E001C012E01BDFCA
S113583081E08093971D812F28DEEFE4F1E08081E1
S1135840806480830F900F900F900F900F90DF91E2
S1135850CF911F9108950E9477216DD010DF0C9491
S1135860182308957DDF0E944623CCC008950F932A
S11358701F93CF93DF93EC018091981D9091991D14
S1135880009709F445C04E815F8168857985FC01E4
S11358900281138124813581401751076207730700
S11358A060F0DC0117C00281138124813581401727
S11358B051076207730768F403C0FC01A0E0B0E07D
S11358C0041B150B260B370B0283138324833583A8
S11358D00AC0DF01401B510B620B730BED91FC916D
S11358E01197309701F74A835B836C837D8310970C
S11358F041F08D919C91119799838883CD93DC938A
S113590015C099838883D093991DC093981D0EC0A8
S1135910198218828E819F81A885B9858A839B8389
S1135920AC83BD83D093991DC093981DDF91CF9113
S11359301F910F9108951092991D1092981D08952A
S1135940CF93DF93A091981DB091991D109791F179
S1135950A817B90751F50AC08E179F0729F51097A4
S113596031F0208131812D933C9307C0FC012081CB
S113597031813093991D2093981D0190F081E02D81
S11359803097C1F04281538164817581EC018A8131
S11359909B81AC81BD81840F951FA61FB71F828395
S11359A09383A483B58306C0DF01ED91FC91119725
S11359B0309791F6DF91CF910895E091981DF09181
S11359C0991D309771F0E817F90721F40CC08E1770
S11359D09F0759F00190F081E02D3097C1F780E0E6
S11359E0089580E0089581E0089581E00895CF93BB
S11359F0DF93EC01E2DF811102C0CE0138DFDF91D9
S1135A00CF910895CF92DF92EF92FF92CF93DF93DD
S1135A108091A023882309F459C08FB7F894C090CB
S1135A20A0231092A0238FBFD12CE12CF12CCC0CFD
S1135A30DD1CEE1CFF1CD701C601880F991FAA1F8D
S1135A40BB1F880F991FAA1FBB1FC80ED91EEA1EB1
S1135A50FB1EC091981DD091991D2097B9F18A81A0
S1135A609B81AC81BD81C816D906EA06FB0610F1FC
S1135A70C81AD90AEA0AFB0A888199819093991D68
S1135A808093981D8A85813011F4CE01F0DEEB8578
S1135A90FC85CE011995C091981DD091991D209730
S1135AA0A9F08A819B81AC81BD81C816D906EA061A
S1135AB0FB06F0F68A819B81AC81BD818C199D091E
S1135AC0AE09BF098A839B83AC83BD83DF91CF91E9
S1135AD0FF90EF90DF90CF900895A1E21A2EAA1BB9
S1135AE0BB1BFD010DC0AA1FBB1FEE1FFF1FA2178A
S1135AF0B307E407F50720F0A21BB30BE40BF50B87
S1135B00661F771F881F991F1A9469F7609570950F
S1135B10809590959B01AC01BD01CF01089509D0FA
S1135B20A59F900DB49F900DA49F800D911D1124ED
S1135B300895A29FB001B39FC001A39F700D811D62
S1135B401124911DB29F700D811D1124911D089582
S1135B508F929F92AF92BF92CF92DF92EF92FF9279
S1135B60CF93DF93EC01688179818A819B816115F0
S1135B7071058105910521F464E279ED8BE597E0E7
S1135B802DE133EF41E050E0D1D649015A019B01A8
S1135B90AC01A7EAB1E4C3DF6B017C01ACEEB4EF66
S1135BA0A5019401E1D6DC01CB018C0D9D1DAE1D38
S1135BB0BF1DB7FF03C00197A109B048888399832B
S1135BC0AA83BB839F77DF91CF91FF90EF90DF9003
S1135BD0CF90BF90AF909F908F900895B9CF80E001
S1135BE092E0B6CFA0E0B0E080930002909301026F
S1135BF0A0930202B09303020895FB01DC0102C0EA
S1135C0001900D9241505040D8F70895FB01DC01FA
S1135C104150504030F08D910190801919F40020CA
S1135C20B9F7881B990B0895FB01DC0141505040E2
S1135C3048F001900D920020C9F701C01D92415017
S1135C405040E0F70895FB0151915523A9F0BF019D
S1135C50DC014D9145174111E1F759F4CD01019053
S1135C60002049F04D9140154111C9F3FB01411148
S1135C70EFCF81E090E0019708950F931F93CF93A6
S1135C80DF93CDB7DEB7AE01485F5F4FDA016D91A8
S1135C907D91AD010DEC13E2F80182819381DC0169
S1135CA013962C911397286013962C935CD0D801EB
S1135CB01296ED91FC9113972381277F2383DF9123
S1135CC0CF911F910F9108950F931F93CF93DF935B
S1135CD0CDB7DEB72E970FB6F894DEBF0FBECDBF9B
S1135CE00E891F898EE08C831A8309838FEF9FE7C7
