S00C00004C4142332E7372656316
S1130000B0C00000CDC00000CBC00000C9C00000DB
S1130010C7C00000C5C00000C3C00000C1C00000CC
S1130020BFC00000BDC00000BBC00000B9C00000DC
S1130030B7C00000B5C00000B3C0000067C2000034
S1130040AFC0000047C2000057C20000A9C00000B2
S1130050A7C00000A5C00000A3C00000A1C000000C
S11300609FC000009DC000009BC0000099C000001C
S113007097C0000055C2000093C0000091C000006A
S11300808FC000008DC000008BC0000089C000003C
S1130090F2C1000085C0000083C0000081C00000E0
S11300A07FC000007DC000007BC0000079C000005C
S11300B077C0000075C0000073C0000071C000006C
S11300C06FC000006DC000006BC0000069C000007C
S11300D067C0000065C0000063C0000061C000008C
S11300E05FC000005DC000005BC0000059C000009C
S11300F057C0000055C0000053C0000051C00000AC
S11301004FC000004DC000004BC0000049C00000BB
S113011047C0000045C0000043C0000041C00000CB
S11301203FC000003DC000003BC0000039C00000DB
S113013037C00000DA011502EA0115021502A10117
S1130140A501A901AD01B601C501150215021502EB
S113015015021502150215021502150215021502E3
S1130160FB0111241FBECFEFD1E8DEBFCDBF00E0FD
S11301700CBF14E0A0E0B2E0EAE6FDE000E00BBF53
S113018002C007900D92A032B107D9F724E0A0E293
S1130190B4E001C01D92AB32B207E1F74DD1E3C523
S11301A02FCFACE7B0E01C92EAE7F0E01082908138
S11301B0892B80838C9190E4699FB0011124682B72
S11301C06C93808180688083EBE7F0E080818823F2
S11301D0ECF7EBE7F0E0808185FFFDCF0895ECE7D5
S11301E0F0E09081907E9083ABE7B0E09C91977FA4
S11301F09C939081892B8083EAE7F0E0808180647E
S11302008083808186FDFDCF209178003091790034
S1130210EAE7F0E0908190619083C9010895ACE72A
S1130220B0E01C92EAE7F0E010829081892B808391
S11302308C9190E4699FB0011124682B6C938081A8
S113024080688083EBE7F0E080818823ECF7EBE7BC
S1130250F0E0808185FFFDCFECE7F0E08081482B62
S11302604083EBE7F0E08081282B2083EAE7F0E08D
S11302708081806280838081886080830895269A4B
S1130280259A249A6B9A80E0A0D12E986D9A759A3B
S113029061E080E096E9C3D162E084E082DF80E03F
S11302A092E09093280480932704789408958EE034
S11302B092E0E4D189E192E0E1D182E292E0DED100
S11302C088E392E0DBD18CE492E0D8D181E692E03D
S11302D0D5D185E792E0D2D18EE892E0CFD184EAFD
S11302E092E0CCD18AEB92E0C9D180ED92E0C6D104
S11302F087EF92E0C3D186E193E0C0C1089526E080
S113030030E090E485B1892785B94FEF54E38CE060
S1130310415050408040E1F700C0000021503109B5
S113032089F70895E09123048E2F90E0FC01BB9798
S1130330E731F10508F079C08827E656FF4F8F4F63
S1130340E4C181E293E09AD174C086E393E096D14C
S113035070C085E493E092D16CC085E593E08ED1C2
S1130360CEDF82E693E08AD1A2DF63C083E037DF89
S11303709F938F9387E693E09F938F9304D297DFA5
S11303800F900F900F900F9054C0809121048823F8
S113039039F088E893E00AD215D11092210449C0BB
S11303A08AE993E003D284EA97E0D7D081E080938E
S11303B021043FC08DEA93E0F9D18091B3008B30E2
S11303C018F41092B30035C0E3EBF0E080818A505A
S11303D080832FC08BEB93E0E9D18091B300843FFD
S11303E020F08FEF8093B30024C0E3EBF0E0808132
S11303F0865F80831EC080912004882339F089ECB5
S113040093E0D4D110922004DDD013C081EE93E0A8
S1130410CDD181E08093200488EC90E0BED025E02B
S113042043E062E084E0FBDE04C08AEF93E026D17F
S11304303EDF10922404089522DF39DF80912404E2
S1130440813009F46FDF659908C0809122048F5FC1
S1130450809322048B3090F303C010922204EECFD9
S113046085E593E00BD14BDF82E693E007D11FDFF4
S113047010922204E3CF1F920F920FB60F92112411
S11304800BB60F922F933F934F935F936F937F938A
S11304908F939F93AF93BF93EF93FF93E7D0809392
S11304A0230480912304DAD081E080932404FF9113
S11304B0EF91BF91AF919F918F917F916F915F91D8
S11304C04F913F912F910F900BBE0F900FBE0F9045
S11304D01F9018951F920F920FB60F9211248F93AD
S11304E09F939EB188E089278EB99F918F910F9039
S11304F00FBE0F901F9018951F920F920FB60F9278
S113050011240F900FBE0F901F9018951F920F92F9
S11305100FB60F9211240F900FBE0F901F901895D5
S11305201F920F920FB60F9211248F939F931092E4
S113053085001092840080917800909179009695BE
S113054087959695879580958093B3009F918F9119
S11305500F900FBE0F901F901895CF93DF93F894D0
S1130560A0E8B0E01C92E1E8F0E01082CFE6D0E031
S113057018829093890080938800808188608083AA
S11305808081856080838881826088838C91806487
S11305908C937894DF91CF910895F8941092800011
S11305A0A1E8B0E01C92EFE6F0E0108290938B009B
S11305B080938A008C9185608C9380818460808391
S11305C078940895109281000895CF93DF93F8945E
S11305D0E0EBF0E0108221EB30E0D9011C92C0E79F
S11305E0D0E01882BFEF8B9FC001112464E670E055
S11305F05DD06093B300808182608083808181605C
S11306008083D9018C9185608C93888181608883F3
S11306108081806880837894DF91CF910895CF930F
S1130620C62F9C0140E050E060E271EA87E090E070
S113063050D0215031093093CD002093CC0088E173
S11306408093C90086E08093CA00CC2329F0E9ECAA
S1130650F0E0808180688083CF910895E8ECF0E039
S1130660908195FFFDCF8093CE000895E8ECF0E0F3
S113067080818823ECF78091CE000895CF93DF9397
S1130680EC018881882329F02196E8DF8991811182
S1130690FCCFDF91CF910895E8ECF0E0908195FFD5
S11306A0FDCF8093CE0080E090E0089597FB072E65
S11306B016F4009406D077FD08D02FD007FC05D09F
S11306C03EF4909581959F4F0895709561957F4F65
S11306D00895052E97FB16F400940FD057FD05D00E
S11306E030D007FC02D046F408C0509540953095B0
S11306F021953F4F4F4F5F4F08959095809570958A
S113070061957F4F8F4F9F4F0895EE0FFF1F881FF6
S11307108BBF0790F691E02D1994AA1BBB1B51E1E6
S113072007C0AA1FBB1FA617B70710F0A61BB70B5D
S1130730881F991F5A95A9F780959095BC01CD0102
S11307400895A1E21A2EAA1BBB1BFD010DC0AA1F0E
S1130750BB1FEE1FFF1FA217B307E407F50720F026
S1130760A21BB30BE40BF50B661F771F881F991FA1
S11307701A9469F760957095809590959B01AC01EA
S1130780BD01CF010895CF93DF93CDB7DEB7AE019E
S11307904A5F5F4FFA0161917191AF018091270423
S11307A09091280433D0DF91CF9108950F931F9334
S11307B0CF93DF93E0912704F0912804238121FF54
S11307C01BC08C01D0E0C0E0F80181918F016091E1
S11307D0270470912804DB011896ED91FC91199778
S11307E0882331F01995892B79F3DFEFCFEFECCF24
S11307F08AE01995892B19F08FEF9FEF02C08D2F96
S11308009C2FDF91CF911F910F9108952F923F92CA
S11308104F925F926F927F928F929F92AF92BF920C
S1130820CF92DF92EF92FF920F931F93CF93DF93B8
S1130830CDB7DEB72B970FB6F894DEBF0FBECDBF92
S11308406C017B018A01FC0117821682838181FF7E
S1130850BFC1CE0101963C01F6019381F70193FDDE
S1130860859193FF81917F01882309F4ADC185327D
S113087039F493FD859193FF81917F01853221F4B1
S1130880B60190E0D6D1E8CF912C212C312CFFE198
S1130890F315D8F08B3279F038F4803279F0833262
S11308A0A1F4232D20611DC08D3261F0803369F4E1
S11308B0232D216016C0832D8260382EE32DE46041
S11308C03E2E2AC0F32DF8601DC037FC2DC020ED4C
S11308D0280F2A3040F08E32B9F436FC75C1232D2E
S11308E02064322E19C036FE06C08AE0989E200D80
S11308F01124922E11C0EAE02E9E200D1124222EE6
S1130900F32DF0623F2E08C08C3621F4832D8068CD
S1130910382E02C0883641F4F70193FD859193FF88
S113092081917F018111B3CF982F9F7D955493308E
S113093028F40C5F1F4F9FE399830DC0833631F079
S1130940833771F0833509F055C020C0F8018081E8
S113095089830E5F1F4F88248394912C530112C006
S11309602801F2E04F0E511CF801A080B18036FE40
S113097003C0692D70E002C06FEF7FEFC5014ED157
S11309804C018201F32DFF773F2E15C0280122E090
S1130990420E511CF801A080B18036FE03C0692DBF
S11309A070E002C06FEF7FEFC5012DD14C01F32D34
S11309B0F0683F2E820133FC19C0822D90E0881626
S11309C09906A0F4B60180E290E033D12A94F5CFE1
S11309D0F50137FC859137FE81915F01B60190E006
S11309E028D121102A9421E0821A910881149104BB
S11309F079F7E1C0843611F0893639F5F80137FE0C
S1130A0007C060817181828193810C5F1F4F08C090
S1130A1060817181072E000C880B990B0E5F1F4FAC
S1130A20F32DFF763F2E97FF09C090958095709522
S1130A3061957F4F8F4F9F4FF0683F2E2AE030E043
S1130A40A30133D1882E861844C0853731F4232D71
S1130A502F7EB22E2AE030E025C0932D997FB92E47
S1130A608F36C1F018F4883579F0AEC0803719F0AC
S1130A70883721F0A9C0E92FE061BE2EB4FE0DC075
S1130A80FB2DF460BF2E09C034FE0AC0292F266056
S1130A90B22E06C028E030E005C020E130E002C0FC
S1130AA020E132E0F801B7FE07C0608171818281E4
S1130AB093810C5F1F4F06C06081718180E090E0DC
S1130AC00E5F1F4FA301F1D0882E8618FB2DFF77F0
S1130AD03F2E36FE0DC0232D2E7FA22E891458F4EE
S1130AE034FE0BC032FC09C0832D8E7EA82E05C0B7
S1130AF0B82CA32C03C0B82C01C0B92CA4FE0FC081
S1130B00FE01E80DF11D8081803321F49A2D997E38
S1130B10A92E09C0A2FE06C0B394B39404C08A2DC2
S1130B20867809F0B394A3FC10C0A0FE06C0B214EA
S1130B3080F4280C922C9B180DC0B21458F4B60102
S1130B4080E290E076D0B394F8CFB21418F42B1866
S1130B5002C0982C212CA4FE0FC0B60180E390E0C3
S1130B6068D0A2FE16C0A1FC03C088E790E002C0D2
S1130B7088E590E0B6010CC08A2D867851F0A1FE7C
S1130B8002C08BE201C080E2A7FC8DE2B60190E0D6
S1130B9050D0891430F4B60180E390E04AD09A949E
S1130BA0F8CF8A94F301E80DF11D8081B60190E03D
S1130BB040D08110F6CF222009F44ECEB60180E257
S1130BC090E037D02A94F7CFF6018681978102C04E
S1130BD08FEF9FEF2B960FB6F894DEBF0FBECDBFFD
S1130BE0DF91CF911F910F91FF90EF90DF90CF9005
S1130BF0BF90AF909F908F907F906F905F904F9039
S1130C003F902F900895FC010590615070400110B1
S1130C10D8F7809590958E0F9F1F0895FC01615021
S1130C20704001900110D8F7809590958E0F9F1F0A
S1130C3008950F931F93CF93DF93FB01238121FD2D
S1130C4003C08FEF9FEF2CC022FF16C0468157814F
S1130C50248135814217530744F4A081B1819D0159
S1130C602F5F3F4F318320838C93268137812F5F01
S1130C703F4F3783268314C08B01EC01FB010084B2
S1130C80F185E02D1995892BE1F6D80116968D9101
S1130C909C911797019617969C938E931697CE0165
S1130CA0DF91CF911F910F910895FA01AA2728305F
S1130CB051F1203181F1E8946F936E7F6E5F7F4F25
S1130CC08F4F9F4FAF4FB1E03ED0B4E03CD0670FA1
S1130CD0781F891F9A1FA11D680F791F8A1F911DF4
S1130CE0A11D6A0F711D811D911DA11D20D009F444
S1130CF068943F912AE0269F11243019305D319386
S1130D00DEF6CF010895462F4770405D4193B3E06E
S1130D100FD0C9F7F6CF462F4F70405D4A3318F015
S1130D20495D31FD4052419302D0A9F7EACFB4E0C6
S1130D30A6959795879577956795BA95C9F700977E
S1130D406105710508959B01AC010A2E069457951F
S1130D50479537952795BA95C9F7620F731F841F76
S10D0D60951FA01D0895F894FFCF1D
S1130D6A00000003000000004C03000000001B5BAD
S1130D7A313B33313B34306D004D454E553A200DED
S1130D8A0A0030202D204B6F6E65632070726F67E6
S1130D9A72616D75200D0A0031202D204D616C6140
S1130DAA2061626563656461200D0A0032202D208A
S1130DBA56656C6B612061626563656461200D0A26
S1130DCA0033202D20426C696B6E65204C4544200B
S1130DDA32200D0A0034202D205072656369737421
S1130DEA206F737665746C656E69200D0A00352070
S1130DFA2D2053746172742F53746F702032487AA1
S1130E0A200D0A002B202D205A76797369206A61F5
S1130E1A73204C454430200D0A002D202D20536E9A
S1130E2A697A69206A6173204C454430200D0A00AE
S1130E3A41202D2053746172742F53746F702041B2
S1130E4A75746F6D617469636B65686F2072697A12
S1130E5A656E69200D0A00537469736B20427574B8
S1130E6A746F6E31202D206A616B6F20766F6C620D
S1130E7A6120330D0A001B5B303B33373B34306D42
S1130E8A000D0A204E756C61202D206B6F6E656310
S1130E9A2E2E2E0D0A006D616C61206162656365F8
S1130EAA64610D0A0056454C4B4120414245434575
S1130EBA44410D0A00426C696B61204C4544320D71
S1130ECA0A001B5B324A00486F646E6F7461207AB1
S1130EDA20414420707265766F646E696B75206A6E
S1130EEA65202564200D0A0053544F502032487A55
S1130EFA206E6120504235200D0053544152542033
S1130F0A32487A206E6120504235200D005A767993
S1130F1A73756A69206A6173200D00536E697A7564
S1130F2A6A69206A6173200D0053544F5020617519
S1130F3A746F2072697A656E69204C454430200DBD
S1130F4A005354415254206175746F2072697A6552
S1130F5A6E69204C454430200D004E657A6E616DF1
S1130F6A7920706F76656C2C206D6F7A6E652068B7
S1130F7A6F646E6F7479206A736F753A200A0D0074
S9030000FC
