S00C00004C4142342E7372656315
S113000044C1000062C1000060C100005EC1000084
S11300105CC100005AC1000058C1000056C1000074
S113002054C1000052C1000050C100004EC1000084
S11300304CC100004AC1000048C10000D4C3000004
S113004044C10000B4C30000C4C300003EC10000AA
S11300503CC100003AC1000038C1000036C10000B4
S113006034C1000032C1000030C100002EC10000C4
S11300702CC10000C2C3000028C1000026C100003A
S113008024C1000022C1000020C100001EC10000E4
S11300905FC300001AC1000018C1000016C10000AF
S11300A014C1000012C1000010C100000EC1000004
S11300B00CC100000AC1000008C1000006C1000014
S11300C004C1000002C1000000C10000FEC0000025
S11300D0FCC00000FAC00000F8C00000F6C0000038
S11300E0F4C00000F2C00000F0C00000EEC0000048
S11300F0ECC00000EAC00000E8C00000E6C0000058
S1130100E4C00000E2C00000E0C00000DEC0000067
S1130110DCC00000DAC00000D8C00000D6C0000077
S1130120D4C00000D2C00000D0C00000CEC0000087
S1130130CCC0000033038203430382038203FA0228
S1130140FE02020306030F031E03820382038203DB
S11301508203820382038203820382038203820373
S11301605403820382038203820382038203820391
S11301708203820382038203820382038203820353
S11301808203820382036E036E616E00696E6600F1
S113019000407A10F35A00A0724E18090010A5D43A
S11301A0E80000E87648170000E40B54020000CA97
S11301B09A3B000000E1F5050000809698000000DD
S11301C040420F000000A08601000000102700003C
S11301D00000E803000000006400000000000A00C2
S11301E0000000000100000000002C76D888DC67C5
S11301F04F0823DFC1DFAE59E1B1B796E5E3E4531D
S1130200C63AE651997696E8E6C28426EB898C9B39
S113021062ED407C6FFCEFBC9C9F40F2BAA56FA5D9
S1130220F490055A2AF75C936B6CF9676DC11BFC5B
S1130230E0E40D47FEF520E6B500D0ED902E030076
S1130240943577050080841E080000204E0A0000C3
S113025000C80C333333330F986E12831141EF8D82
S11302602114893BE65516CFFEE6DB18D1844B38C2
S11302701BF77C1D901DA4BBE424203284725E22F3
S11302808100C9F124ECA1E53D2711241FBECFEF65
S1130290D1E8DEBFCDBF00E00CBF14E0A0E0B2E0C7
S11302A0EEEEF6E100E00BBF02C007900D92A03A1B
S11302B0B107D9F724E0A0EAB4E001C01D92AB3A3B
S11302C0B207E1F726D20C94750B9ACEACE7B0E0F6
S11302D01C92EAE7F0E010829081892B80838C9154
S11302E090E4699FB0011124682B6C93808180682D
S11302F08083EBE7F0E080818823ECF7EBE7F0E024
S1130300808185FFFDCF0895ECE7F0E09081907E39
S11303109083ABE7B0E09C91977F9C939081892B6D
S11303208083EAE7F0E0808180648083808186FDB9
S1130330FDCF2091780030917900EAE7F0E09081D8
S113034090619083C9010895ACE7B0E01C92EAE79C
S1130350F0E010829081892B80838C9190E4699FD6
S1130360B0011124682B6C93808180688083EBE753
S1130370F0E080818823ECF7EBE7F0E0808185FFF3
S1130380FDCFECE7F0E08081482B4083EBE7F0E021
S11303908081282B2083EAE7F0E0808180628083DB
S11303A08081886080830895CF93C82F89D086E99F
S11303B094D0B4D0883129F08EE092E0CCD280E0A1
S11303C023C081E08AD0AAD0883229F089E192E062
S11303D0C2D280E019C08C2F8295880F807E7DD098
S11303E09DD0883229F089E192E0B5D280E00CC03A
S11303F080E073D093D0883229F089E192E0ABD2C7
S113040080E002C066D081E0CF910895CF93DF935E
S113041000D01F92CDB7DEB753D086E95ED07ED030
S1130420883119F08EE092E096D280E056D076D0F2
S1130430883219F089E192E08ED24BD041D06ED04F
S1130440883019F085E492E086D287E946D066D0F8
S1130450803419F084E292E07ED24AD089835ED05F
S1130460803519F08FE292E076D24DD08A8356D04F
S1130470883519F08AE392E06ED22BD029818A81E3
S113048090E0922B9C838B836B817C81072E000CE4
S1130490880B990B7AD220E030E040E85BE3B0D2DD
S11304A00F900F900F900F90DF91CF9108951092BD
S11304B0B90082E08093B80084E08093BC00089582
S11304C084EA8093BC00ECEBF0E080818823ECF7B5
S11304D0089584E98093BC0008958093BB0084E868
S11304E08093BC00ECEBF0E080818823ECF7089566
S11304F084EC8093BC00ECEBF0E080818823ECF783
S11305008091BB00089584E88093BC00ECEBF0E09C
S113051080818823ECF78091BB0008958091B90015
S1130520887F0895269A259A249A6B9A80E0BAD1F6
S11305302E986D9A759A61E080E096E9DDD162E0CB
S113054084E0C4DEB4DF82E02FDF80E092E09093A9
S1130550A8048093A7047894089580E592E0FBD1E1
S11305608BE592E0F8D184E692E0F5D18AE792E057
S1130570F2D18EE892E0EFD183EA92E0ECD187EBFE
S113058092E0E9D180ED92E0E6D186EE92E0E3D10B
S11305908CEF92E0E0D182E193E0DDD189E393E056
S11305A0DAD184E593E0D7D183E793E0D4C1089509
S11305B026E030E090E485B1892785B94FEF54E314
S11305C08CE0415050408040E1F700C000002150D1
S11305D0310989F70895E091A3048E2F90E0FC017E
S11305E0BB97EA32F10508F08DC08827E656FF4F25
S11305F08F4F72C68EE793E0AED188C083E993E053
S1130600AAD184C082EA93E0A6D180C082EB93E0B1
S1130610A2D1CEDF8FEB93E09ED19FDF77C083E042
S113062073DE9F938F9384EC93E09F938F93BCD757
S113063094DF0F900F900F900F9068C08091A104E9
S1130640882339F085EE93E0C2D729D11092A10412
S11306505DC087EF93E0BBD784EA97E0EBD081E0FD
S11306608093A10453C08AE094E0B1D78091B30091
S11306708B3018F41092B30049C0E3EBF0E08081B2
S11306808A50808343C088E194E0A1D78091B3006D
S1130690843F20F08FEF8093B30038C0E3EBF0E0A9
S11306A08081865F808332C08091A004882339F0E2
S11306B086E294E08CD71092A004F1D027C08EE398
S11306C094E085D781E08093A00488EC90E0D2D0B8
S11306D025E043E062E084E037DE18C087E594E07B
S11306E03AD194DE9F938F937F936F9388E694E03F
S11306F09F938F9359D70F900F900F900F900F9057
S11307000F9004C08AE794E026D127DF1092A40456
S1130710089508DF22DF8091A404813009F45BDFAF
S1130720659908C08091A2048F5F8093A2048B30E6
S113073090F303C01092A204EECF82EB93E00BD1AE
S113074037DF8FEB93E007D108DF1092A204E3CFE9
S11307501F920F920FB60F9211240BB60F922F9384
S11307603F934F935F936F937F938F939F93AF9335
S1130770BF93EF93FF93E7D08093A3048091A304E6
S1130780DAD081E08093A404FF91EF91BF91AF91FF
S11307909F918F917F916F915F914F913F912F9195
S11307A00F900BBE0F900FBE0F901F9018951F92C5
S11307B00F920FB60F9211248F939F939EB188E0EE
S11307C089278EB99F918F910F900FBE0F901F9024
S11307D018951F920F920FB60F9211240F900FBE0F
S11307E00F901F9018951F920F920FB60F9211241D
S11307F00F900FBE0F901F9018951F920F920FB677
S11308000F9211248F939F9310928500109284006D
S11308108091780090917900969587959695879523
S113082080958093B3009F918F910F900FBE0F908E
S11308301F901895CF93DF93F894A0E8B0E01C9232
S1130840E1E8F0E01082CFE6D0E0188290938900CE
S11308508093880080818860808380818560808324
S11308608881826088838C9180648C937894DF91F2
S1130870CF910895F89410928000A1E8B0E01C9202
S1130880EFE6F0E0108290938B0080938A008C91C5
S113089085608C938081846080837894089510921D
S11308A081000895CF93DF93F894E0EBF0E0108299
S11308B021EB30E0D9011C92C0E7D0E01882BFEFF1
S11308C08B9FC001112464E670E0D7D46093B30019
S11308D0808182608083808181608083D9018C9152
S11308E085608C938881816088838081806880831F
S11308F07894DF91CF910895CF93C62F9C0140E067
S113090050E060E271EA87E090E0CAD421503109F6
S11309103093CD002093CC0088E18093C90086E019
S11309208093CA00CC2329F0E9ECF0E08081806850
S11309308083CF910895E8ECF0E0908195FFFDCF9E
S11309408093CE000895E8ECF0E080818823ECF7F2
S11309508091CE000895CF93DF93EC0188818823A2
S113096029F02196E8DF89918111FCCFDF91CF91A5
S11309700895E8ECF0E0908195FFFDCF8093CE00E0
S113098080E090E00895E89409C097FB3EF49095C8
S11309908095709561957F4F8F4F9F4F9923A9F054
S11309A0F92F96E9BB279395F695879577956795E3
S11309B0B795F111F8CFFAF4BB0F11F460FF1BC027
S11309C06F5F7F4F8F4F9F4F16C0882311F096E9BA
S11309D011C0772321F09EE8872F762F05C0662368
S11309E071F096E8862F70E060E02AF09A95660F21
S11309F0771F881FDAF7880F9695879597F90895DA
S1130A000BD078C069D028F06ED018F0952309F087
S1130A105AC05FC01124A2C07ED0A0F3959FD1F329
S1130A20950F50E0551F629FF001729FBB27F00D98
S1130A30B11D639FAA27F00DB11DAA1F649F6627ED
S1130A40B00DA11D661F829F2227B00DA11D621F3C
S1130A50739FB00DA11D621F839FA00D611D221FF6
S1130A60749F3327A00D611D231F849F600D211DDA
S1130A70822F762F6A2F11249F5750408AF0E1F07D
S1130A8088234AF0EE0FFF1FBB1F661F771F881FC6
S1130A9091505040A9F79E3F510570F014C05EC0BC
S1130AA05F3FECF3983EDCF3869577956795B795B1
S1130AB0F795E7959F5FC1F7FE2B880F911D9695DB
S1130AC0879597F9089597F99F6780E870E060E04B
S1130AD008959FEF80EC089500240A9416161706D3
S1130AE018060906089500240A941216130614061B
S1130AF005060895092E0394000C11F4882352F07E
S1130B00BB0F40F4BF2B11F460FF04C06F5F7F4F35
S1130B108F4F9F4F089557FD9058440F551F59F01C
S1130B205F3F71F04795880F97FB991F61F09F3FD6
S1130B3079F087950895121613061406551FF2CFFF
S1130B404695F1DF08C0161617061806991FF1CF4F
S1130B5086957105610508940895E894BB27662776
S1130B607727CB0197F908952F923F924F925F9286
S1130B706F927F928F929F92AF92BF92CF92DF92A9
S1130B80EF92FF920F931F93CF93DF93CDB7DEB70E
S1130B9060970FB6F894DEBF0FBECDBF7C011B017A
S1130BA06A01FC0117821682838181FF2AC39E0198
S1130BB02F5F3F4F3901F7019381F10193FD859137
S1130BC093FF81911F01882309F417C3853239F4F7
S1130BD093FD859193FF81911F01853231F4B70113
S1130BE090E0A6D456016501E6CF10E0512C912C7B
S1130BF0FFE1F915D8F08B3279F038F4803279F0CE
S1130C008332A1F4F92DF0612EC08D3261F080336E
S1130C1069F4292D21602DC0392D3260932E892D40
S1130C208460982E2AC0E92DE86015C097FC2DC079
S1130C3020ED280F2A3088F496FE06C03AE0139F70
S1130C40200D1124122F19C08AE0589E200D112462
S1130C50522EE92DE0629E2E10C08E3231F496FCA5
S1130C60CCC2F92DF0649F2E08C08C3621F4292DB6
S1130C702068922E02C0883641F4F10193FD8591DB
S1130C8093FF81911F018111B3CF9BEB980F933098
S1130C9020F4992D9061805E07C09BE9980F9330F2
S1130CA008F059C1992D9F7E96FF16E09F73992EE7
S1130CB0853619F49064992E08C0863621F4392FAC
S1130CC03068932E02C01111115097FE07C01C33D7
S1130CD050F444244394410E27E00BC0183038F0FC
S1130CE027E017E005C027E09CE3492E02C0212F2E
S1130CF0412C560184E0A80EB11CF601608171817B
S1130D0082819381042DA30125D36C01F981FC8791
S1130D10F0FF02C0F3FF06C091FC06C092FE06C0BD
S1130D2000E205C00DE203C00BE201C000E08C85C7
S1130D308C7019F0011143C280C297FE10C04C0C94
S1130D40FC85F4FF04C08A81813309F44A941414A5
S1130D5074F528E0241578F588E0482E2CC096FC1C
S1130D602AC0812F90E08C159D059CF03CEFC316A2
S1130D703FEFD30674F0892D8068982E0AC0E2E014
S1130D80F0E0EC0FFD1FE10FF11D8081803319F4B9
S1130D9011501111F4CF97FE0EC044244394410E18
S1130DA0812F90E0C816D9062CF41C1904C04424E1
S1130DB0439401C010E097FE06C01C141D0434F4D3
S1130DC0C601019605C085E090E002C081E090E094
S1130DD001110196112331F0212F30E02F5F3F4F95
S1130DE0820F931F252D30E08217930714F4581AAD
S1130DF001C0512C892D897041F4552031F0B7017F
S1130E0080E290E095D35A94F8CF002321F0B70103
S1130E10802F90E08DD393FC08C0552031F0B701AA
S1130E2080E390E085D35A94F8CF97FE4AC04601F8
S1130E30D7FE02C0812C912CC60188199909F301AF
S1130E40E80FF91FFE87ED87960124193109388BC5
S1130E502F87012F10E01195019511093FEF83169B
S1130E60930621F4B7018EE290E062D3C814D9044A
S1130E704CF08F8598898815990524F4ED85FE85B5
S1130E80818101C080E3F1E08F1A91082D853E85B0
S1130E902F5F3F4F3E872D878016910624F0B701C0
S1130EA090E046D3DBCFC814D90441F49A81963339
S1130EB020F4953319F43C8534FF81E3B70190E0C5
S1130EC048C08A81813319F09C859F7E9C87B70135
S1130ED090E02ED3111105C094FC16C085E690E075
S1130EE015C0B7018EE290E023D31E5F82E001E0DB
S1130EF0080FF301E80FF11D8081B70190E018D3CA
S1130F00802F0113F4CFE8CF85E490E0B70110D32C
S1130F10D7FC06C0C114D10441F4EC85E4FF05C03C
S1130F20D194C194D1088DE201C08BE2B70190E065
S1130F30FFD280E32AE0C216D1042CF08F5FFAE0DE
S1130F40CF1AD108F7CFB70190E0F2D2B701C601AA
S1130F50C096EED249C1833631F0833779F08335B8
S1130F6009F052C01FC0560132E0A30EB11CF601B5
S1130F708081898301E010E0630111C05601F2E031
S1130F80AF0EB11CF601C080D18096FE03C0612F64
S1130F9070E002C06FEF7FEFC601BFD28C01F92D64
S1130FA0FF7713C0560122E0A20EB11CF601C080E7
S1130FB0D18096FE03C0612F70E002C06FEF7FEF17
S1130FC0C601A0D28C01F92DF0689F2EF3FD18C044
S1130FD0852D90E00817190798F4B70180E290E096
S1130FE0A7D25A94F5CFF60197FC859197FE81918B
S1130FF06F01B70190E09CD251105A94015011092D
S11310000115110581F7F0C0843611F0893659F5C0
S1131010560197FE09C024E0A20EB11CF6016081BE
S11310207181828193810AC0F2E0AF0EB11CF60196
S113103060817181072E000C880B990BF92DFF76C6
S11310409F2E97FF09C090958095709561957F4F6D
S11310508F4F9F4FF0689F2E2AE030E0A301E7D224
S1131060C82EC6183EC0092D853721F40F7E2AE00C
S113107030E01DC0097F8F3691F018F4883559F09F
S1131080BCC0803719F0883711F0B7C0006104FF85
S113109009C0046007C094FE08C0066006C028E0CA
S11310A030E005C020E130E002C020E132E056012A
S11310B007FF09C084E0A80EB11CF60160817181AC
S11310C08281938108C0F2E0AF0EB11CF601608109
S11310D0718180E090E0A301AAD2C82EC6180F77D0
S11310E0902E96FE0BC0092D0E7FC11650F494FE6F
S11310F00AC092FC08C0092D0E7E05C0DC2C092D07
S113110003C0DC2C01C0D12E04FF0DC0FE01EC0D88
S1131110F11D8081803311F4097E09C002FF06C0ED
S1131120D394D39404C0802F867809F0D39403FD1C
S113113010C000FF06C01C2DD51478F4150D1D1920
S11311400CC0D51450F4B70180E290E0F1D1D394EF
S1131150F8CFD51410F45D1801C0512C04FF0FC052
S1131160B70180E390E0E4D102FF16C001FD03C0A3
S113117088E790E002C088E590E0B7010CC0802FBA
S1131180867851F001FF02C08BE201C080E207FDC6
S11311908DE2B70190E0CCD1C11630F4B70180E301
S11311A090E0C6D11150F8CFCA94F301EC0DF11DB3
S11311B08081B70190E0BCD1C110F6CF15C0F4E036
S11311C0F51550F584E0581A93FE1EC0011125C090
S11311D02C8523FF27C008E811E0392D3071932EA8
S11311E0F8018491811121C0552009F4FCCCB70188
S11311F080E290E09DD15A94F7CFF70186819781E0
S113120023C08FEF9FEF20C0B70180E290E090D120
S11312105A945110F9CFDACF512CB701802F90E0B6
S113122087D1D6CF0CE811E0D8CF91108052B70106
S113123090E07ED10F5F1F4FD3CF23E0251510F42C
S113124083E0C1CF512CC4CF60960FB6F894DEBFB3
S11312500FBECDBFDF91CF911F910F91FF90EF9003
S1131260DF90CF90BF90AF909F908F907F906F90C2
S11312705F904F903F902F90089597FB072E16F4A0
S1131280009406D077FD08D02FD007FC05D03EF49B
S1131290909581959F4F0895709561957F4F08951E
S11312A0052E97FB16F400940FD057FD05D030D0CF
S11312B007FC02D046F408C050954095309521951E
S11312C03F4F4F4F5F4F089590958095709561956E
S11312D07F4F8F4F9F4F0895EE0FFF1F881F8BBFC7
S11312E00790F691E02D1994AA1BBB1B51E107C08E
S11312F0AA1FBB1FA617B70710F0A61BB70B881FA2
S1131300991F5A95A9F780959095BC01CD01089530
S1131310A1E21A2EAA1BBB1BFD010DC0AA1FBB1FF5
S1131320EE1FFF1FA217B307E407F50720F0A21B67
S1131330B30BE40BF50B661F771F881F991F1A94D4
S113134069F760957095809590959B01AC01BD01FE
S1131350CF010895283008F027E03327DA01990FE8
S1131360311D87FD916000966105710539F4326085
S11313702E5F3D9330E32A95E1F708959F3F30F0C7
S113138080387105610509F03C5F3C5F3D93913005
S113139008F08068911DDF93CF931F930F93FF9202
S11313A0EF92192F987F9695E92F96959695E90FC8
S11313B0FF27E651FE4F99273327EE24FF24A70188
S11313C0E70105900894079428F4360FE71EF81EE9
S11313D0491F511D660F771F881F991F0694A1F797
S11313E00590079428F4E70EF81E491F561FC11DE7
S11313F0770F881F991F661F0694A1F7059007941D
S113140028F4F80E491F561FC71FD11D880F991FB6
S1131410661F771F0694A1F70590079420F4490FDF
S1131420561FC71FD81F990F661F771F881F069462
S1131430A9F784911095177041F0D695C7955795E3
S11314404795F794E7941A95C1F7E0E9F1E06894B9
S11314501590159135916591959105907FE273955D
S1131460E118F10A430B560BC90BD009C0F7E10C84
S1131470F11E431F561FC91FD01D7EF4703311F493
S11314808A95E6CFE894015030F0080F0AF400275B
S1131490021708F4202F2395022F7A3328F079E3DA
S11314A07D932A95E9F710C07D932A9589F60694D1
S11314B097956795379517951794E118F10A430B9B
S11314C0560BC90BD00998F023957E9173957A3306
S11314D008F070E37C932013B8F77E9170617D93DC
S11314E030F0839571E37D9370E32A95E1F711243D
S11314F0EF90FF900F911F91CF91DF91992787FD76
S113150090950895FC010590615070400110D8F742
S1131510809590958E0F9F1F0895FC016150704037
S113152001900110D8F7809590958E0F9F1F089514
S11315300F931F93CF93DF93FB01238121FD03C0FE
S11315408FEF9FEF2CC022FF16C046815781248164
S113155035814217530744F4A081B1819D012F5F67
S11315603F4F318320838C93268137812F5F3F4FF8
S11315703783268314C08B01EC01FB010084F185C1
S1131580E02D1995892BE1F6D80116968D919C9141
S11315901797019617969C938E931697CE01DF9119
S11315A0CF911F910F910895CF93DF93CDB7DEB7FD
S11315B0AE014A5F5F4FFA0161917191AF01809171
S11315C0A7049091A804D0DADF91CF9108950F93E6
S11315D01F93CF93DF93E091A704F091A804238194
S11315E021FF1BC08C01D0E0C0E0F80181918F0184
S11315F06091A7047091A804DB011896ED91FC9109
S11316001997882331F01995892B79F3DFEFCFEF00
S1131610ECCF8AE01995892B19F08FEF9FEF02C068
S11316208D2F9C2FDF91CF911F910F910895FA0177
S1131630AA27283051F1203181F1E8946F936E7F0D
S11316406E5F7F4F8F4F9F4FAF4FB1E03ED0B4E0FE
S11316503CD0670F781F891F9A1FA11D680F791F3F
S11316608A1F911DA11D6A0F711D811D911DA11D50
S113167020D009F468943F912AE0269F1124301960
S1131680305D3193DEF6CF010895462F4770405DFB
S11316904193B3E00FD0C9F7F6CF462F4F70405DAA
S11316A04A3318F0495D31FD4052419302D0A9F705
S11316B0EACFB4E0A6959795879577956795BA95FF
S11316C0C9F700976105710508959B01AC010A2EC5
S11316D006945795479537952795BA95C9F7620F9C
S11116E0731F841F951FA01D0895F894FFCF5B
S11316EE0000000300000000B90400000000457271
S11316FE726F722031380A0D004572726F72203289
S113170E380A0D004572726F722034300A0D00458E
S113171E72726F722035300A0D004572726F72202C
S113172E35380A0D004572726F722030380A0D007A
S113173E1B5B313B33313B34306D004D454E553AD6
S113174E200D0A0030202D204B6F6E6563207072C1
S113175E6F6772616D75200D0A0031202D204D6169
S113176E6C612061626563656461200D0A0032203C
S113177E2D2056656C6B6120616265636564612022
S113178E0D0A0033202D20426C696B6E65204C458A
S113179E442032200D0A0034202D205072656369D6
S11317AE7374206F737665746C656E69200D0A0010
S11317BE35202D2053746172742F53746F70203240
S11317CE487A200D0A002B202D205A767973692031
S11317DE6A6173204C454430200D0A002D202D20C3
S11317EE536E697A69206A6173204C454430200D2A
S11317FE0A0041202D2053746172742F53746F703C
S113180E204175746F6D617469636B65686F2072C6
S113181E697A656E69200D0A0054202D2054657076
S113182E6C6F7461207A20493243206369646C6161
S113183E200D0A00537469736B20427574746F6EB5
S113184E31202D206A616B6F20766F6C62612033BC
S113185E0D0A001B5B303B33373B34306D000D0AF1
S113186E204E756C61202D206B6F6E65632E2E2EAF
S113187E0D0A006D616C6120616265636564610DC2
S113188E0A0056454C4B4120414245434544410DC7
S113189E0A00426C696B61204C4544320D0A001BF0
S11318AE5B324A00486F646E6F7461207A20414443
S11318BE20707265766F646E696B75206A6520257B
S11318CE64200D0A0053544F502032487A206E6122
S11318DE20504235200D0053544152542032487A40
S11318EE206E6120504235200D005A767973756A48
S11318FE69206A6173200D00536E697A756A6920D6
S113190E6A6173200D0053544F50206175746F201B
S113191E72697A656E69204C454430200D0053542B
S113192E415254206175746F2072697A656E692014
S113193E4C454430200D004D6572696D652074650B
S113194E706C6F74750D0A007679736C6564656BD3
S113195E3D256620B043200A0D004E657A6E616DFA
S113196E7920706F76656C2C206D6F7A6E652068A9
S113197E6F646E6F7479206A736F753A200A0D0066
S9030000FC
